{
  "contracts/Safemoon.sol": {
    "Safemoon": {
      "abi": [
        {
          "anonymous": false,
          "inputs": [
            {
              "indexed": true,
              "internalType": "address",
              "name": "owner",
              "type": "address"
            },
            {
              "indexed": true,
              "internalType": "address",
              "name": "spender",
              "type": "address"
            },
            {
              "indexed": false,
              "internalType": "uint256",
              "name": "value",
              "type": "uint256"
            }
          ],
          "name": "Approval",
          "type": "event"
        },
        {
          "anonymous": false,
          "inputs": [
            {
              "indexed": false,
              "internalType": "uint256",
              "name": "minTokensBeforeSwap",
              "type": "uint256"
            }
          ],
          "name": "MinTokensBeforeSwapUpdated",
          "type": "event"
        },
        {
          "anonymous": false,
          "inputs": [
            {
              "indexed": true,
              "internalType": "address",
              "name": "previousOwner",
              "type": "address"
            },
            {
              "indexed": true,
              "internalType": "address",
              "name": "newOwner",
              "type": "address"
            }
          ],
          "name": "OwnershipTransferred",
          "type": "event"
        },
        {
          "anonymous": false,
          "inputs": [
            {
              "indexed": false,
              "internalType": "uint256",
              "name": "bnbSwapped",
              "type": "uint256"
            },
            {
              "indexed": false,
              "internalType": "uint256",
              "name": "tokenReceived",
              "type": "uint256"
            },
            {
              "indexed": false,
              "internalType": "uint256",
              "name": "bnbIntoLiquidity",
              "type": "uint256"
            }
          ],
          "name": "SwapAndEvolve",
          "type": "event"
        },
        {
          "anonymous": false,
          "inputs": [
            {
              "indexed": false,
              "internalType": "bool",
              "name": "enabled",
              "type": "bool"
            }
          ],
          "name": "SwapAndEvolveEnabledUpdated",
          "type": "event"
        },
        {
          "anonymous": false,
          "inputs": [
            {
              "indexed": true,
              "internalType": "address",
              "name": "from",
              "type": "address"
            },
            {
              "indexed": true,
              "internalType": "address",
              "name": "to",
              "type": "address"
            },
            {
              "indexed": false,
              "internalType": "uint256",
              "name": "value",
              "type": "uint256"
            }
          ],
          "name": "Transfer",
          "type": "event"
        },
        {
          "inputs": [],
          "name": "WBNB",
          "outputs": [
            {
              "internalType": "address",
              "name": "",
              "type": "address"
            }
          ],
          "stateMutability": "view",
          "type": "function"
        },
        {
          "inputs": [],
          "name": "_burnAddress",
          "outputs": [
            {
              "internalType": "address",
              "name": "",
              "type": "address"
            }
          ],
          "stateMutability": "view",
          "type": "function"
        },
        {
          "inputs": [],
          "name": "_defaultFees",
          "outputs": [
            {
              "internalType": "uint256",
              "name": "ecoSystemFee",
              "type": "uint256"
            },
            {
              "internalType": "uint256",
              "name": "liquidityFee",
              "type": "uint256"
            },
            {
              "internalType": "uint256",
              "name": "taxFee",
              "type": "uint256"
            },
            {
              "internalType": "uint256",
              "name": "ownerFee",
              "type": "uint256"
            },
            {
              "internalType": "uint256",
              "name": "burnFee",
              "type": "uint256"
            },
            {
              "internalType": "address",
              "name": "ecoSystem",
              "type": "address"
            },
            {
              "internalType": "address",
              "name": "owner",
              "type": "address"
            }
          ],
          "stateMutability": "view",
          "type": "function"
        },
        {
          "inputs": [],
          "name": "_maxTxAmount",
          "outputs": [
            {
              "internalType": "uint256",
              "name": "",
              "type": "uint256"
            }
          ],
          "stateMutability": "view",
          "type": "function"
        },
        {
          "inputs": [
            {
              "internalType": "address",
              "name": "_account",
              "type": "address"
            }
          ],
          "name": "accountTier",
          "outputs": [
            {
              "components": [
                {
                  "internalType": "uint256",
                  "name": "ecoSystemFee",
                  "type": "uint256"
                },
                {
                  "internalType": "uint256",
                  "name": "liquidityFee",
                  "type": "uint256"
                },
                {
                  "internalType": "uint256",
                  "name": "taxFee",
                  "type": "uint256"
                },
                {
                  "internalType": "uint256",
                  "name": "ownerFee",
                  "type": "uint256"
                },
                {
                  "internalType": "uint256",
                  "name": "burnFee",
                  "type": "uint256"
                },
                {
                  "internalType": "address",
                  "name": "ecoSystem",
                  "type": "address"
                },
                {
                  "internalType": "address",
                  "name": "owner",
                  "type": "address"
                }
              ],
              "internalType": "struct Safemoon.FeeTier",
              "name": "",
              "type": "tuple"
            }
          ],
          "stateMutability": "view",
          "type": "function"
        },
        {
          "inputs": [
            {
              "internalType": "uint256",
              "name": "_ecoSystemFee",
              "type": "uint256"
            },
            {
              "internalType": "uint256",
              "name": "_liquidityFee",
              "type": "uint256"
            },
            {
              "internalType": "uint256",
              "name": "_taxFee",
              "type": "uint256"
            },
            {
              "internalType": "uint256",
              "name": "_ownerFee",
              "type": "uint256"
            },
            {
              "internalType": "uint256",
              "name": "_burnFee",
              "type": "uint256"
            },
            {
              "internalType": "address",
              "name": "_ecoSystem",
              "type": "address"
            },
            {
              "internalType": "address",
              "name": "_owner",
              "type": "address"
            }
          ],
          "name": "addTier",
          "outputs": [],
          "stateMutability": "nonpayable",
          "type": "function"
        },
        {
          "inputs": [
            {
              "internalType": "address",
              "name": "owner",
              "type": "address"
            },
            {
              "internalType": "address",
              "name": "spender",
              "type": "address"
            }
          ],
          "name": "allowance",
          "outputs": [
            {
              "internalType": "uint256",
              "name": "",
              "type": "uint256"
            }
          ],
          "stateMutability": "view",
          "type": "function"
        },
        {
          "inputs": [
            {
              "internalType": "address",
              "name": "spender",
              "type": "address"
            },
            {
              "internalType": "uint256",
              "name": "amount",
              "type": "uint256"
            }
          ],
          "name": "approve",
          "outputs": [
            {
              "internalType": "bool",
              "name": "",
              "type": "bool"
            }
          ],
          "stateMutability": "nonpayable",
          "type": "function"
        },
        {
          "inputs": [
            {
              "internalType": "address",
              "name": "account",
              "type": "address"
            }
          ],
          "name": "balanceOf",
          "outputs": [
            {
              "internalType": "uint256",
              "name": "",
              "type": "uint256"
            }
          ],
          "stateMutability": "view",
          "type": "function"
        },
        {
          "inputs": [
            {
              "internalType": "address",
              "name": "account",
              "type": "address"
            }
          ],
          "name": "blacklistAddress",
          "outputs": [],
          "stateMutability": "nonpayable",
          "type": "function"
        },
        {
          "inputs": [],
          "name": "decimals",
          "outputs": [
            {
              "internalType": "uint8",
              "name": "",
              "type": "uint8"
            }
          ],
          "stateMutability": "view",
          "type": "function"
        },
        {
          "inputs": [
            {
              "internalType": "address",
              "name": "spender",
              "type": "address"
            },
            {
              "internalType": "uint256",
              "name": "subtractedValue",
              "type": "uint256"
            }
          ],
          "name": "decreaseAllowance",
          "outputs": [
            {
              "internalType": "bool",
              "name": "",
              "type": "bool"
            }
          ],
          "stateMutability": "nonpayable",
          "type": "function"
        },
        {
          "inputs": [
            {
              "internalType": "address",
              "name": "account",
              "type": "address"
            }
          ],
          "name": "excludeFromFee",
          "outputs": [],
          "stateMutability": "nonpayable",
          "type": "function"
        },
        {
          "inputs": [
            {
              "internalType": "address",
              "name": "account",
              "type": "address"
            }
          ],
          "name": "excludeFromReward",
          "outputs": [],
          "stateMutability": "nonpayable",
          "type": "function"
        },
        {
          "inputs": [
            {
              "internalType": "address",
              "name": "_account",
              "type": "address"
            }
          ],
          "name": "excludeWhitelistedAddress",
          "outputs": [],
          "stateMutability": "nonpayable",
          "type": "function"
        },
        {
          "inputs": [
            {
              "internalType": "uint256",
              "name": "_tierIndex",
              "type": "uint256"
            }
          ],
          "name": "feeTier",
          "outputs": [
            {
              "components": [
                {
                  "internalType": "uint256",
                  "name": "ecoSystemFee",
                  "type": "uint256"
                },
                {
                  "internalType": "uint256",
                  "name": "liquidityFee",
                  "type": "uint256"
                },
                {
                  "internalType": "uint256",
                  "name": "taxFee",
                  "type": "uint256"
                },
                {
                  "internalType": "uint256",
                  "name": "ownerFee",
                  "type": "uint256"
                },
                {
                  "internalType": "uint256",
                  "name": "burnFee",
                  "type": "uint256"
                },
                {
                  "internalType": "address",
                  "name": "ecoSystem",
                  "type": "address"
                },
                {
                  "internalType": "address",
                  "name": "owner",
                  "type": "address"
                }
              ],
              "internalType": "struct Safemoon.FeeTier",
              "name": "",
              "type": "tuple"
            }
          ],
          "stateMutability": "view",
          "type": "function"
        },
        {
          "inputs": [],
          "name": "feeTiersLength",
          "outputs": [
            {
              "internalType": "uint256",
              "name": "",
              "type": "uint256"
            }
          ],
          "stateMutability": "view",
          "type": "function"
        },
        {
          "inputs": [],
          "name": "getBNBBalance",
          "outputs": [
            {
              "internalType": "uint256",
              "name": "",
              "type": "uint256"
            }
          ],
          "stateMutability": "view",
          "type": "function"
        },
        {
          "inputs": [],
          "name": "getContractBalance",
          "outputs": [
            {
              "internalType": "uint256",
              "name": "",
              "type": "uint256"
            }
          ],
          "stateMutability": "view",
          "type": "function"
        },
        {
          "inputs": [
            {
              "internalType": "address",
              "name": "account",
              "type": "address"
            }
          ],
          "name": "includeInFee",
          "outputs": [],
          "stateMutability": "nonpayable",
          "type": "function"
        },
        {
          "inputs": [
            {
              "internalType": "address",
              "name": "account",
              "type": "address"
            }
          ],
          "name": "includeInReward",
          "outputs": [],
          "stateMutability": "nonpayable",
          "type": "function"
        },
        {
          "inputs": [
            {
              "internalType": "address",
              "name": "spender",
              "type": "address"
            },
            {
              "internalType": "uint256",
              "name": "addedValue",
              "type": "uint256"
            }
          ],
          "name": "increaseAllowance",
          "outputs": [
            {
              "internalType": "bool",
              "name": "",
              "type": "bool"
            }
          ],
          "stateMutability": "nonpayable",
          "type": "function"
        },
        {
          "inputs": [
            {
              "internalType": "address",
              "name": "_router",
              "type": "address"
            }
          ],
          "name": "initialize",
          "outputs": [],
          "stateMutability": "nonpayable",
          "type": "function"
        },
        {
          "inputs": [
            {
              "internalType": "address",
              "name": "account",
              "type": "address"
            }
          ],
          "name": "isBlacklisted",
          "outputs": [
            {
              "internalType": "bool",
              "name": "",
              "type": "bool"
            }
          ],
          "stateMutability": "view",
          "type": "function"
        },
        {
          "inputs": [
            {
              "internalType": "address",
              "name": "account",
              "type": "address"
            }
          ],
          "name": "isExcludedFromFee",
          "outputs": [
            {
              "internalType": "bool",
              "name": "",
              "type": "bool"
            }
          ],
          "stateMutability": "view",
          "type": "function"
        },
        {
          "inputs": [
            {
              "internalType": "address",
              "name": "account",
              "type": "address"
            }
          ],
          "name": "isExcludedFromReward",
          "outputs": [
            {
              "internalType": "bool",
              "name": "",
              "type": "bool"
            }
          ],
          "stateMutability": "view",
          "type": "function"
        },
        {
          "inputs": [],
          "name": "isMigrationStarted",
          "outputs": [
            {
              "internalType": "bool",
              "name": "",
              "type": "bool"
            }
          ],
          "stateMutability": "view",
          "type": "function"
        },
        {
          "inputs": [
            {
              "internalType": "address",
              "name": "_account",
              "type": "address"
            }
          ],
          "name": "isWhitelisted",
          "outputs": [
            {
              "internalType": "bool",
              "name": "",
              "type": "bool"
            }
          ],
          "stateMutability": "view",
          "type": "function"
        },
        {
          "inputs": [
            {
              "internalType": "address",
              "name": "account",
              "type": "address"
            },
            {
              "internalType": "uint256",
              "name": "amount",
              "type": "uint256"
            }
          ],
          "name": "migrate",
          "outputs": [],
          "stateMutability": "nonpayable",
          "type": "function"
        },
        {
          "inputs": [],
          "name": "name",
          "outputs": [
            {
              "internalType": "string",
              "name": "",
              "type": "string"
            }
          ],
          "stateMutability": "view",
          "type": "function"
        },
        {
          "inputs": [],
          "name": "numOfBnbToSwapAndEvolve",
          "outputs": [
            {
              "internalType": "uint256",
              "name": "",
              "type": "uint256"
            }
          ],
          "stateMutability": "view",
          "type": "function"
        },
        {
          "inputs": [],
          "name": "numTokensToCollectBNB",
          "outputs": [
            {
              "internalType": "uint256",
              "name": "",
              "type": "uint256"
            }
          ],
          "stateMutability": "view",
          "type": "function"
        },
        {
          "inputs": [],
          "name": "owner",
          "outputs": [
            {
              "internalType": "address",
              "name": "",
              "type": "address"
            }
          ],
          "stateMutability": "view",
          "type": "function"
        },
        {
          "inputs": [
            {
              "internalType": "uint256",
              "name": "tAmount",
              "type": "uint256"
            },
            {
              "internalType": "bool",
              "name": "deductTransferFee",
              "type": "bool"
            }
          ],
          "name": "reflectionFromToken",
          "outputs": [
            {
              "internalType": "uint256",
              "name": "",
              "type": "uint256"
            }
          ],
          "stateMutability": "view",
          "type": "function"
        },
        {
          "inputs": [
            {
              "internalType": "uint256",
              "name": "tAmount",
              "type": "uint256"
            },
            {
              "internalType": "uint256",
              "name": "_tierIndex",
              "type": "uint256"
            },
            {
              "internalType": "bool",
              "name": "deductTransferFee",
              "type": "bool"
            }
          ],
          "name": "reflectionFromTokenInTiers",
          "outputs": [
            {
              "internalType": "uint256",
              "name": "",
              "type": "uint256"
            }
          ],
          "stateMutability": "view",
          "type": "function"
        },
        {
          "inputs": [],
          "name": "renounceOwnership",
          "outputs": [],
          "stateMutability": "nonpayable",
          "type": "function"
        },
        {
          "inputs": [
            {
              "internalType": "uint256",
              "name": "_tierIndex",
              "type": "uint256"
            },
            {
              "internalType": "uint256",
              "name": "_burnFee",
              "type": "uint256"
            }
          ],
          "name": "setBurnFeePercent",
          "outputs": [],
          "stateMutability": "nonpayable",
          "type": "function"
        },
        {
          "inputs": [],
          "name": "setDefaultSettings",
          "outputs": [],
          "stateMutability": "nonpayable",
          "type": "function"
        },
        {
          "inputs": [
            {
              "internalType": "uint256",
              "name": "_tierIndex",
              "type": "uint256"
            },
            {
              "internalType": "address",
              "name": "_ecoSystem",
              "type": "address"
            }
          ],
          "name": "setEcoSystemFeeAddress",
          "outputs": [],
          "stateMutability": "nonpayable",
          "type": "function"
        },
        {
          "inputs": [
            {
              "internalType": "uint256",
              "name": "_tierIndex",
              "type": "uint256"
            },
            {
              "internalType": "uint256",
              "name": "_ecoSystemFee",
              "type": "uint256"
            }
          ],
          "name": "setEcoSystemFeePercent",
          "outputs": [],
          "stateMutability": "nonpayable",
          "type": "function"
        },
        {
          "inputs": [
            {
              "internalType": "uint256",
              "name": "_tierIndex",
              "type": "uint256"
            },
            {
              "internalType": "uint256",
              "name": "_liquidityFee",
              "type": "uint256"
            }
          ],
          "name": "setLiquidityFeePercent",
          "outputs": [],
          "stateMutability": "nonpayable",
          "type": "function"
        },
        {
          "inputs": [
            {
              "internalType": "uint256",
              "name": "maxTxPercent",
              "type": "uint256"
            }
          ],
          "name": "setMaxTxPercent",
          "outputs": [],
          "stateMutability": "nonpayable",
          "type": "function"
        },
        {
          "inputs": [
            {
              "internalType": "address",
              "name": "_migration",
              "type": "address"
            }
          ],
          "name": "setMigrationAddress",
          "outputs": [],
          "stateMutability": "nonpayable",
          "type": "function"
        },
        {
          "inputs": [
            {
              "internalType": "uint256",
              "name": "_numBnb",
              "type": "uint256"
            }
          ],
          "name": "setNumOfBnbToSwapAndEvolve",
          "outputs": [],
          "stateMutability": "nonpayable",
          "type": "function"
        },
        {
          "inputs": [
            {
              "internalType": "uint256",
              "name": "_numToken",
              "type": "uint256"
            }
          ],
          "name": "setNumberOfTokenToCollectBNB",
          "outputs": [],
          "stateMutability": "nonpayable",
          "type": "function"
        },
        {
          "inputs": [
            {
              "internalType": "uint256",
              "name": "_tierIndex",
              "type": "uint256"
            },
            {
              "internalType": "address",
              "name": "_owner",
              "type": "address"
            }
          ],
          "name": "setOwnerFeeAddress",
          "outputs": [],
          "stateMutability": "nonpayable",
          "type": "function"
        },
        {
          "inputs": [
            {
              "internalType": "uint256",
              "name": "_tierIndex",
              "type": "uint256"
            },
            {
              "internalType": "uint256",
              "name": "_ownerFee",
              "type": "uint256"
            }
          ],
          "name": "setOwnerFeePercent",
          "outputs": [],
          "stateMutability": "nonpayable",
          "type": "function"
        },
        {
          "inputs": [
            {
              "internalType": "bool",
              "name": "_enabled",
              "type": "bool"
            }
          ],
          "name": "setSwapAndEvolveEnabled",
          "outputs": [],
          "stateMutability": "nonpayable",
          "type": "function"
        },
        {
          "inputs": [
            {
              "internalType": "uint256",
              "name": "_tierIndex",
              "type": "uint256"
            },
            {
              "internalType": "uint256",
              "name": "_taxFee",
              "type": "uint256"
            }
          ],
          "name": "setTaxFeePercent",
          "outputs": [],
          "stateMutability": "nonpayable",
          "type": "function"
        },
        {
          "inputs": [],
          "name": "swapAndEvolve",
          "outputs": [],
          "stateMutability": "nonpayable",
          "type": "function"
        },
        {
          "inputs": [],
          "name": "swapAndEvolveEnabled",
          "outputs": [
            {
              "internalType": "bool",
              "name": "",
              "type": "bool"
            }
          ],
          "stateMutability": "view",
          "type": "function"
        },
        {
          "inputs": [],
          "name": "swapAndLiquifyEnabled",
          "outputs": [
            {
              "internalType": "bool",
              "name": "",
              "type": "bool"
            }
          ],
          "stateMutability": "view",
          "type": "function"
        },
        {
          "inputs": [],
          "name": "symbol",
          "outputs": [
            {
              "internalType": "string",
              "name": "",
              "type": "string"
            }
          ],
          "stateMutability": "view",
          "type": "function"
        },
        {
          "inputs": [
            {
              "internalType": "uint256",
              "name": "rAmount",
              "type": "uint256"
            }
          ],
          "name": "tokenFromReflection",
          "outputs": [
            {
              "internalType": "uint256",
              "name": "",
              "type": "uint256"
            }
          ],
          "stateMutability": "view",
          "type": "function"
        },
        {
          "inputs": [],
          "name": "totalFees",
          "outputs": [
            {
              "internalType": "uint256",
              "name": "",
              "type": "uint256"
            }
          ],
          "stateMutability": "view",
          "type": "function"
        },
        {
          "inputs": [],
          "name": "totalSupply",
          "outputs": [
            {
              "internalType": "uint256",
              "name": "",
              "type": "uint256"
            }
          ],
          "stateMutability": "view",
          "type": "function"
        },
        {
          "inputs": [
            {
              "internalType": "address",
              "name": "recipient",
              "type": "address"
            },
            {
              "internalType": "uint256",
              "name": "amount",
              "type": "uint256"
            }
          ],
          "name": "transfer",
          "outputs": [
            {
              "internalType": "bool",
              "name": "",
              "type": "bool"
            }
          ],
          "stateMutability": "nonpayable",
          "type": "function"
        },
        {
          "inputs": [
            {
              "internalType": "address",
              "name": "sender",
              "type": "address"
            },
            {
              "internalType": "address",
              "name": "recipient",
              "type": "address"
            },
            {
              "internalType": "uint256",
              "name": "amount",
              "type": "uint256"
            }
          ],
          "name": "transferFrom",
          "outputs": [
            {
              "internalType": "bool",
              "name": "",
              "type": "bool"
            }
          ],
          "stateMutability": "nonpayable",
          "type": "function"
        },
        {
          "inputs": [
            {
              "internalType": "address",
              "name": "newOwner",
              "type": "address"
            }
          ],
          "name": "transferOwnership",
          "outputs": [],
          "stateMutability": "nonpayable",
          "type": "function"
        },
        {
          "inputs": [
            {
              "internalType": "address",
              "name": "account",
              "type": "address"
            }
          ],
          "name": "unBlacklistAddress",
          "outputs": [],
          "stateMutability": "nonpayable",
          "type": "function"
        },
        {
          "inputs": [],
          "name": "uniswapV2Pair",
          "outputs": [
            {
              "internalType": "address",
              "name": "",
              "type": "address"
            }
          ],
          "stateMutability": "view",
          "type": "function"
        },
        {
          "inputs": [],
          "name": "uniswapV2Router",
          "outputs": [
            {
              "internalType": "contract IUniswapV2Router02",
              "name": "",
              "type": "address"
            }
          ],
          "stateMutability": "view",
          "type": "function"
        },
        {
          "inputs": [
            {
              "internalType": "address",
              "name": "_newBurnAddress",
              "type": "address"
            }
          ],
          "name": "updateBurnAddress",
          "outputs": [],
          "stateMutability": "nonpayable",
          "type": "function"
        },
        {
          "inputs": [
            {
              "internalType": "address",
              "name": "_uniswapV2Router",
              "type": "address"
            },
            {
              "internalType": "address",
              "name": "_uniswapV2Pair",
              "type": "address"
            }
          ],
          "name": "updateRouterAndPair",
          "outputs": [],
          "stateMutability": "nonpayable",
          "type": "function"
        },
        {
          "inputs": [
            {
              "internalType": "address",
              "name": "_account",
              "type": "address"
            },
            {
              "internalType": "uint256",
              "name": "_tierIndex",
              "type": "uint256"
            }
          ],
          "name": "whitelistAddress",
          "outputs": [],
          "stateMutability": "nonpayable",
          "type": "function"
        },
        {
          "inputs": [
            {
              "internalType": "uint256",
              "name": "_amount",
              "type": "uint256"
            }
          ],
          "name": "withdrawBnb",
          "outputs": [],
          "stateMutability": "nonpayable",
          "type": "function"
        },
        {
          "inputs": [
            {
              "internalType": "address",
              "name": "_token",
              "type": "address"
            },
            {
              "internalType": "uint256",
              "name": "_amount",
              "type": "uint256"
            }
          ],
          "name": "withdrawToken",
          "outputs": [],
          "stateMutability": "nonpayable",
          "type": "function"
        },
        {
          "stateMutability": "payable",
          "type": "receive"
        }
      ],
      "evm": {
        "bytecode": {
          "linkReferences": {},
          "object": "608060405234801561001057600080fd5b5061570d80620000216000396000f3fe6080604052600436106103e85760003560e01c8063674a311211610208578063a9059cbb11610118578063dd62ed3e116100ab578063f2fde38b1161007a578063f2fde38b14610b2e578063f3290d7514610b4e578063f89879aa14610b6e578063fe575a8714610b83578063fff3e1ba14610ba3576103ef565b8063dd62ed3e14610aa6578063dfd66cb314610ac6578063ea2f0b3714610aee578063f2d58c2314610b0e576103ef565b8063c4d66de8116100e7578063c4d66de814610a26578063d40cf65914610a46578063d543dbeb14610a66578063d66329b014610a86576103ef565b8063a9059cbb146109b1578063ad68ebf7146109d1578063bd3900c0146109f1578063bf26646914610a06576103ef565b80638abec6061161019b5780638dd950021161016a5780638dd95002146109275780638fc3d4b81461093c57806395d89b411461095c5780639e281a9814610971578063a457c2d714610991576103ef565b80638abec606146108c85780638af319c7146108dd5780638d50d499146108fd5780638da5cb5b14610912576103ef565b8063715018a6116101d7578063715018a61461085e5780637d1db4a5146108735780637ed948f71461088857806388f82020146108a8576103ef565b8063674a3112146107e95780636bd89cdd146108095780636f9fb98a1461082957806370a082311461083e576103ef565b80633685d419116103035780634732a7dc1161029657806352390c021161026557806352390c021461076a5780635342acb41461078a57806355724b3a146107aa57806360d0eb73146107bf5780636531c58c146107d4576103ef565b80634732a7dc1461070057806349bd5a5e146107205780634a74bb02146107355780634ffc14251461074a576103ef565b806340b28c2f116102d257806340b28c2f14610680578063437823ec146106a05780634549b039146106c0578063459c979b146106e0576103ef565b80633685d41914610600578063395093511461062057806339aa1bba146106405780633af32abf14610660576103ef565b806318160ddd1161037b578063301273341161034a578063301273341461057e57806330b263ba1461059e578063313ce567146105be57806332c2d90c146105e0576103ef565b806318160ddd14610509578063200c72951461051e57806323b872dd1461053e5780632d8381191461055e576103ef565b806313114a9d116103b757806313114a9d14610490578063132af75c146104a5578063140c5759146104ba5780631694505e146104e7576103ef565b806306fdde03146103f4578063095ea7b31461041f578063108449531461044c57806311b326011461046e576103ef565b366103ef57005b600080fd5b34801561040057600080fd5b50610409610bc3565b6040516104169190614da1565b60405180910390f35b34801561042b57600080fd5b5061043f61043a366004614aaf565b610c59565b6040516104169190614d61565b34801561045857600080fd5b5061046c6104673660046149ff565b610c77565b005b34801561047a57600080fd5b50610483610d34565b60405161041691906154b9565b34801561049c57600080fd5b50610483610d3a565b3480156104b157600080fd5b5061046c610d40565b3480156104c657600080fd5b506104da6104d5366004614b12565b610d9d565b6040516104169190615461565b3480156104f357600080fd5b506104fc610e4a565b6040516104169190614cbb565b34801561051557600080fd5b50610483610e59565b34801561052a57600080fd5b5061046c610539366004614aaf565b610e5f565b34801561054a57600080fd5b5061043f610559366004614a6f565b610f5d565b34801561056a57600080fd5b50610483610579366004614b12565b610fe5565b34801561058a57600080fd5b506104da6105993660046149ff565b611028565b3480156105aa57600080fd5b5061046c6105b9366004614b8a565b6110cc565b3480156105ca57600080fd5b506105d36111f3565b6040516104169190615550565b3480156105ec57600080fd5b5061046c6105fb366004614ada565b6111fc565b34801561060c57600080fd5b5061046c61061b3660046149ff565b611288565b34801561062c57600080fd5b5061043f61063b366004614aaf565b6113fb565b34801561064c57600080fd5b5061046c61065b366004614b8a565b611449565b34801561066c57600080fd5b5061043f61067b3660046149ff565b611569565b34801561068c57600080fd5b5061046c61069b366004614a37565b611586565b3480156106ac57600080fd5b5061046c6106bb3660046149ff565b61168c565b3480156106cc57600080fd5b506104836106db366004614b66565b6116ef565b3480156106ec57600080fd5b5061046c6106fb366004614b12565b6116fd565b34801561070c57600080fd5b5061046c61071b3660046149ff565b611769565b34801561072c57600080fd5b506104fc6117ca565b34801561074157600080fd5b5061043f6117d9565b34801561075657600080fd5b5061046c610765366004614c10565b6117e9565b34801561077657600080fd5b5061046c6107853660046149ff565b611841565b34801561079657600080fd5b5061043f6107a53660046149ff565b611979565b3480156107b657600080fd5b5061043f611997565b3480156107cb57600080fd5b5061043f6119a5565b3480156107e057600080fd5b506104836119b6565b3480156107f557600080fd5b5061046c610804366004614b12565b6119bc565b34801561081557600080fd5b5061046c6108243660046149ff565b611a00565b34801561083557600080fd5b50610483611a66565b34801561084a57600080fd5b506104836108593660046149ff565b611a76565b34801561086a57600080fd5b5061046c611ad8565b34801561087f57600080fd5b50610483611b61565b34801561089457600080fd5b5061046c6108a3366004614b42565b611b67565b3480156108b457600080fd5b5061043f6108c33660046149ff565b611c65565b3480156108d457600080fd5b50610483611c83565b3480156108e957600080fd5b5061046c6108f8366004614b42565b611c89565b34801561090957600080fd5b5061046c611d88565b34801561091e57600080fd5b506104fc612006565b34801561093357600080fd5b506104fc612015565b34801561094857600080fd5b5061046c610957366004614b8a565b612024565b34801561096857600080fd5b50610409612147565b34801561097d57600080fd5b5061046c61098c366004614aaf565b6121a8565b34801561099d57600080fd5b5061043f6109ac366004614aaf565b612267565b3480156109bd57600080fd5b5061043f6109cc366004614aaf565b6122cf565b3480156109dd57600080fd5b5061046c6109ec366004614aaf565b6122e3565b3480156109fd57600080fd5b506104fc6123a6565b348015610a1257600080fd5b50610483610a21366004614bab565b6123b5565b348015610a3257600080fd5b5061046c610a413660046149ff565b612419565b348015610a5257600080fd5b5061046c610a613660046149ff565b6124b5565b348015610a7257600080fd5b5061046c610a81366004614b12565b612515565b348015610a9257600080fd5b5061046c610aa1366004614b8a565b61257b565b348015610ab257600080fd5b50610483610ac1366004614a37565b61269e565b348015610ad257600080fd5b50610adb6126c9565b6040516104169796959493929190615514565b348015610afa57600080fd5b5061046c610b093660046149ff565b6126ee565b348015610b1a57600080fd5b5061046c610b29366004614b8a565b61274e565b348015610b3a57600080fd5b5061046c610b493660046149ff565b61286f565b348015610b5a57600080fd5b5061046c610b693660046149ff565b612930565b348015610b7a57600080fd5b5061048361299e565b348015610b8f57600080fd5b5061043f610b9e3660046149ff565b6129a2565b348015610baf57600080fd5b5061046c610bbe366004614b12565b6129c0565b60718054604080516020601f6002600019610100600188161502019095169490940493840181900481028201810190925282815260609390929091830182828015610c4f5780601f10610c2457610100808354040283529160200191610c4f565b820191906000526020600020905b815481529060010190602001808311610c3257829003601f168201915b5050505050905090565b6000610c6d610c66612a04565b8484612a08565b5060015b92915050565b610c7f612a04565b6001600160a01b0316610c90612006565b6001600160a01b031614610cbf5760405162461bcd60e51b8152600401610cb6906151cb565b60405180910390fd5b6001600160a01b038116610ce55760405162461bcd60e51b8152600401610cb690615200565b6001600160a01b0381166000908152606b6020526040902054610d1a5760405162461bcd60e51b8152600401610cb690615394565b6001600160a01b03166000908152606b6020526040812055565b60895490565b606f5490565b610d48612a04565b6001600160a01b0316610d59612006565b6001600160a01b031614610d7f5760405162461bcd60e51b8152600401610cb6906151cb565b608f805460ff60a81b191690556095805461ff001916610100179055565b610da561489b565b60895482908110610dc85760405162461bcd60e51b8152600401610cb69061511c565b60898381548110610dd557fe5b60009182526020918290206040805160e081018252600790930290910180548352600181015493830193909352600283015490820152600382015460608201526004820154608082015260058201546001600160a01b0390811660a083015260069092015490911660c0820152915050919050565b608a546001600160a01b031681565b606d5490565b610e67612a04565b6001600160a01b0316610e78612006565b6001600160a01b031614610e9e5760405162461bcd60e51b8152600401610cb6906151cb565b60895481908110610ec15760405162461bcd60e51b8152600401610cb69061511c565b826040518060600160405280602a81526020016156ae602a91396001600160a01b0382166000908152606a6020526040902054819060ff1615610f175760405162461bcd60e51b8152600401610cb69190614da1565b506001600160a01b038516610f3e5760405162461bcd60e51b8152600401610cb690615200565b5050506001600160a01b039091166000908152606b6020526040902055565b6000610f6a848484612b6e565b610fda84610f76612a04565b610fd5856040518060600160405280602881526020016155cf602891396001600160a01b038a16600090815260676020526040812090610fb4612a04565b6001600160a01b031681526020810191909152604001600020549190612f81565b612a08565b5060015b9392505050565b6000606e548211156110095760405162461bcd60e51b8152600401610cb690614e7d565b6000611013612fad565b905061101f8382612fd0565b9150505b919050565b61103061489b565b6001600160a01b0382166000908152606b602052604090205460898054909190811061105857fe5b60009182526020918290206040805160e081018252600790930290910180548352600181015493830193909352600283015490820152600382015460608201526004820154608082015260058201546001600160a01b0390811660a083015260069092015490911660c08201529050919050565b6110d4612a04565b6001600160a01b03166110e5612006565b6001600160a01b03161461110b5760405162461bcd60e51b8152600401610cb6906151cb565b6089548290811061112e5760405162461bcd60e51b8152600401610cb69061511c565b61113661489b565b6089848154811061114357fe5b60009182526020918290206040805160e0810182526007909302909101805483526001810154938301939093526002830154908201819052600383015460608301526004830154608083015260058301546001600160a01b0390811660a084015260069093015490921660c082015291506111c090829085613002565b82608985815481106111ce57fe5b6000918252602090912060026007909202010155836111ed5760768390555b50505050565b60735460ff1690565b611204612a04565b6001600160a01b0316611215612006565b6001600160a01b03161461123b5760405162461bcd60e51b8152600401610cb6906151cb565b6095805461ff001916610100831515021790556040517ef279ea7539cc7cc5311702e24242fe836f7f94e8e329be09530ade3dd254c39061127d908390614d61565b60405180910390a150565b611290612a04565b6001600160a01b03166112a1612006565b6001600160a01b0316146112c75760405162461bcd60e51b8152600401610cb6906151cb565b6001600160a01b03811660009081526069602052604090205460ff166112ff5760405162461bcd60e51b8152600401610cb690614fb2565b60005b606c548110156113f757816001600160a01b0316606c828154811061132357fe5b6000918252602090912001546001600160a01b031614156113ef57606c8054600019810190811061135057fe5b600091825260209091200154606c80546001600160a01b03909216918390811061137657fe5b600091825260208083209190910180546001600160a01b0319166001600160a01b039485161790559184168152606682526040808220829055606990925220805460ff19169055606c8054806113c857fe5b600082815260209020810160001990810180546001600160a01b03191690550190556113f7565b600101611302565b5050565b6000610c6d611408612a04565b84610fd58560676000611419612a04565b6001600160a01b03908116825260208083019390935260409182016000908120918c16815292529020549061306f565b611451612a04565b6001600160a01b0316611462612006565b6001600160a01b0316146114885760405162461bcd60e51b8152600401610cb6906151cb565b608954829081106114ab5760405162461bcd60e51b8152600401610cb69061511c565b6114b361489b565b608984815481106114c057fe5b60009182526020918290206040805160e08101825260079093029091018054808452600182015494840194909452600281015491830191909152600381015460608301526004810154608083015260058101546001600160a01b0390811660a08401526006909101541660c0820152915061153d90829085613002565b826089858154811061154b57fe5b6000918252602090912060079091020155836111ed57505060745550565b6001600160a01b03166000908152606b6020526040902054151590565b61158e612a04565b6001600160a01b031661159f612006565b6001600160a01b0316146115c55760405162461bcd60e51b8152600401610cb6906151cb565b608a80546001600160a01b038085166001600160a01b03199283161792839055608b8054858316931692909217909155604080516315ab88c960e31b81529051929091169163ad5c464891600480820192602092909190829003018186803b15801561163057600080fd5b505afa158015611644573d6000803e3d6000fd5b505050506040513d601f19601f820116820180604052508101906116689190614a1b565b608c80546001600160a01b0319166001600160a01b03929092169190911790555050565b611694612a04565b6001600160a01b03166116a5612006565b6001600160a01b0316146116cb5760405162461bcd60e51b8152600401610cb6906151cb565b6001600160a01b03166000908152606860205260409020805460ff19166001179055565b6000610fde836000846123b5565b611705612a04565b6001600160a01b0316611716612006565b6001600160a01b03161461173c5760405162461bcd60e51b8152600401610cb6906151cb565b604051339082156108fc029083906000818181858888f193505050501580156113f7573d6000803e3d6000fd5b611771612a04565b6001600160a01b0316611782612006565b6001600160a01b0316146117a85760405162461bcd60e51b8152600401610cb6906151cb565b608d80546001600160a01b0319166001600160a01b0392909216919091179055565b608b546001600160a01b031681565b608f54600160a81b900460ff1681565b6117f1612a04565b6001600160a01b0316611802612006565b6001600160a01b0316146118285760405162461bcd60e51b8152600401610cb6906151cb565b61183787878787878787613094565b5050505050505050565b611849612a04565b6001600160a01b031661185a612006565b6001600160a01b0316146118805760405162461bcd60e51b8152600401610cb6906151cb565b6001600160a01b03811660009081526069602052604090205460ff16156118b95760405162461bcd60e51b8152600401610cb690614f44565b6001600160a01b03811660009081526065602052604090205415611913576001600160a01b0381166000908152606560205260409020546118f990610fe5565b6001600160a01b0382166000908152606660205260409020555b6001600160a01b03166000818152606960205260408120805460ff19166001908117909155606c805491820181559091527f2b4a51ab505fc96a0952efda2ba61bcd3078d4c02c39a186ec16f21883fbe0160180546001600160a01b0319169091179055565b6001600160a01b031660009081526068602052604090205460ff1690565b609554610100900460ff1681565b608d546001600160a01b0316151590565b60935481565b6119c4612a04565b6001600160a01b03166119d5612006565b6001600160a01b0316146119fb5760405162461bcd60e51b8152600401610cb6906151cb565b609355565b611a08612a04565b6001600160a01b0316611a19612006565b6001600160a01b031614611a3f5760405162461bcd60e51b8152600401610cb6906151cb565b608f80546001600160a01b0319166001600160a01b038316179055611a6381611841565b50565b6000611a7130611a76565b905090565b6001600160a01b03811660009081526069602052604081205460ff1615611ab657506001600160a01b038116600090815260666020526040902054611023565b6001600160a01b038216600090815260656020526040902054610c7190610fe5565b611ae0612a04565b6001600160a01b0316611af1612006565b6001600160a01b031614611b175760405162461bcd60e51b8152600401610cb6906151cb565b6033546040516000916001600160a01b0316907f8be0079c531659141344cd1fd0a4f28419497f9722a3daafe3b4186f6b6457e0908390a3603380546001600160a01b0319169055565b60905481565b611b6f612a04565b6001600160a01b0316611b80612006565b6001600160a01b031614611ba65760405162461bcd60e51b8152600401610cb6906151cb565b60895482908110611bc95760405162461bcd60e51b8152600401610cb69061511c565b6001600160a01b038216611bef5760405162461bcd60e51b8152600401610cb6906152c2565b611bf882611841565b8160898481548110611c0657fe5b906000526020600020906007020160050160006101000a8154816001600160a01b0302191690836001600160a01b031602179055508260001415611c6057607980546001600160a01b0319166001600160a01b0384161790555b505050565b6001600160a01b031660009081526069602052604090205460ff1690565b60945481565b611c91612a04565b6001600160a01b0316611ca2612006565b6001600160a01b031614611cc85760405162461bcd60e51b8152600401610cb6906151cb565b60895482908110611ceb5760405162461bcd60e51b8152600401610cb69061511c565b6001600160a01b038216611d115760405162461bcd60e51b8152600401610cb6906152c2565b611d1a82611841565b8160898481548110611d2857fe5b906000526020600020906007020160060160006101000a8154816001600160a01b0302191690836001600160a01b031602179055508260001415611c6057607a80546001600160a01b0384166001600160a01b0319909116179055505050565b611d90612a04565b6001600160a01b0316611da1612006565b6001600160a01b031614611dc75760405162461bcd60e51b8152600401610cb6906151cb565b608f805460ff60a01b1916600160a01b1790556094544790811015611dfe5760405162461bcd60e51b8152600401610cb69061534a565b506094546000611e0f826002612fd0565b90506000611e1d838361326e565b6040516370a0823160e01b815290915060009030906370a0823190611e46903390600401614cbb565b60206040518083038186803b158015611e5e57600080fd5b505afa158015611e72573d6000803e3d6000fd5b505050506040513d601f19601f82011682018060405250810190611e969190614b2a565b9050611ea183613296565b6040516370a0823160e01b815260009030906370a0823190611ec7903390600401614cbb565b60206040518083038186803b158015611edf57600080fd5b505afa158015611ef3573d6000803e3d6000fd5b505050506040513d601f19601f82011682018060405250810190611f179190614b2a565b90506000611f25828461326e565b9050611f32333083612a08565b6040516323b872dd60e01b815230906323b872dd90611f5990339084908690600401614ce9565b602060405180830381600087803b158015611f7357600080fd5b505af1158015611f87573d6000803e3d6000fd5b505050506040513d601f19601f82011682018060405250810190611fab9190614af6565b50611fb6818561341d565b7f08261edc7b257da79c22afdc1c7064b198c7abe8fdd21070ac0b55e0351804a3858286604051611fe9939291906154fe565b60405180910390a15050608f805460ff60a01b1916905550505050565b6033546001600160a01b031690565b608c546001600160a01b031681565b61202c612a04565b6001600160a01b031661203d612006565b6001600160a01b0316146120635760405162461bcd60e51b8152600401610cb6906151cb565b608954829081106120865760405162461bcd60e51b8152600401610cb69061511c565b61208e61489b565b6089848154811061209b57fe5b60009182526020918290206040805160e0810182526007909302909101805483526001810154938301939093526002830154908201526003820154606082015260048201546080820181905260058301546001600160a01b0390811660a084015260069093015490921660c0820152915061211890829085613002565b826089858154811061212657fe5b6000918252602090912060046007909202010155836111ed57505060785550565b60728054604080516020601f6002600019610100600188161502019095169490940493840181900481028201810190925282815260609390929091830182828015610c4f5780601f10610c2457610100808354040283529160200191610c4f565b6121b0612a04565b6001600160a01b03166121c1612006565b6001600160a01b0316146121e75760405162461bcd60e51b8152600401610cb6906151cb565b60405163a9059cbb60e01b81526001600160a01b0383169063a9059cbb906122159033908590600401614d0d565b602060405180830381600087803b15801561222f57600080fd5b505af1158015612243573d6000803e3d6000fd5b505050506040513d601f19601f82011682018060405250810190611c609190614af6565b6000610c6d612274612a04565b84610fd585604051806060016040528060258152602001615660602591396067600061229e612a04565b6001600160a01b03908116825260208083019390935260409182016000908120918d16815292529020549190612f81565b6000610c6d6122dc612a04565b8484612b6e565b81604051806060016040528060298152602001615685602991396001600160a01b0382166000908152606a6020526040902054819060ff16156123395760405162461bcd60e51b8152600401610cb69190614da1565b50608d546001600160a01b03166123625760405162461bcd60e51b8152600401610cb690615280565b608d546001600160a01b0316612376612a04565b6001600160a01b03161461239c5760405162461bcd60e51b8152600401610cb6906150ed565b6111ed84846134cf565b608f546001600160a01b031681565b6000606d548411156123d95760405162461bcd60e51b8152600401610cb690615020565b816123fa576123e66148ea565b6123f0858561350f565b519150610fde9050565b6124026148ea565b61240c858561350f565b602001519150610fde9050565b600054610100900460ff168061243257506124326135e1565b80612440575060005460ff16155b61245c5760405162461bcd60e51b8152600401610cb69061509f565b600054610100900460ff16158015612487576000805460ff1961ff0019909116610100171660011790555b61248f6135f2565b612497613674565b6124a08261374e565b80156113f7576000805461ff00191690555050565b6124bd612a04565b6001600160a01b03166124ce612006565b6001600160a01b0316146124f45760405162461bcd60e51b8152600401610cb6906151cb565b6001600160a01b03166000908152606a60205260409020805460ff19169055565b61251d612a04565b6001600160a01b031661252e612006565b6001600160a01b0316146125545760405162461bcd60e51b8152600401610cb6906151cb565b61257561271061256f83606d54613b1290919063ffffffff16565b90612fd0565b60905550565b612583612a04565b6001600160a01b0316612594612006565b6001600160a01b0316146125ba5760405162461bcd60e51b8152600401610cb6906151cb565b608954829081106125dd5760405162461bcd60e51b8152600401610cb69061511c565b6125e561489b565b608984815481106125f257fe5b60009182526020918290206040805160e0810182526007909302909101805483526001810154938301939093526002830154908201526003820154606082018190526004830154608083015260058301546001600160a01b0390811660a084015260069093015490921660c0820152915061266f90829085613002565b826089858154811061267d57fe5b6000918252602090912060036007909202010155836111ed57505060775550565b6001600160a01b03918216600090815260676020908152604080832093909416825291909152205490565b607454607554607654607754607854607954607a546001600160a01b03918216911687565b6126f6612a04565b6001600160a01b0316612707612006565b6001600160a01b03161461272d5760405162461bcd60e51b8152600401610cb6906151cb565b6001600160a01b03166000908152606860205260409020805460ff19169055565b612756612a04565b6001600160a01b0316612767612006565b6001600160a01b03161461278d5760405162461bcd60e51b8152600401610cb6906151cb565b608954829081106127b05760405162461bcd60e51b8152600401610cb69061511c565b6127b861489b565b608984815481106127c557fe5b60009182526020918290206040805160e0810182526007909302909101805483526001810154938301849052600281015491830191909152600381015460608301526004810154608083015260058101546001600160a01b0390811660a08401526006909101541660c0820152915061284090829085613002565b826089858154811061284e57fe5b6000918252602090912060016007909202010155836111ed57505060755550565b612877612a04565b6001600160a01b0316612888612006565b6001600160a01b0316146128ae5760405162461bcd60e51b8152600401610cb6906151cb565b6001600160a01b0381166128d45760405162461bcd60e51b8152600401610cb690614ec7565b6033546040516001600160a01b038084169216907f8be0079c531659141344cd1fd0a4f28419497f9722a3daafe3b4186f6b6457e090600090a3603380546001600160a01b0319166001600160a01b0392909216919091179055565b612938612a04565b6001600160a01b0316612949612006565b6001600160a01b03161461296f5760405162461bcd60e51b8152600401610cb6906151cb565b6001600160a01b03166000908152606a60209081526040808320805460ff19166001179055606b909152812055565b4790565b6001600160a01b03166000908152606a602052604090205460ff1690565b6129c8612a04565b6001600160a01b03166129d9612006565b6001600160a01b0316146129ff5760405162461bcd60e51b8152600401610cb6906151cb565b609455565b3390565b8260405180606001604052806026815260200161561a602691396001600160a01b0382166000908152606a6020526040902054819060ff1615612a5e5760405162461bcd60e51b8152600401610cb69190614da1565b50836040518060600160405280602881526020016155a7602891396001600160a01b0382166000908152606a6020526040902054819060ff1615612ab55760405162461bcd60e51b8152600401610cb69190614da1565b506001600160a01b038716612adc5760405162461bcd60e51b8152600401610cb690614e39565b6001600160a01b038616612b025760405162461bcd60e51b8152600401610cb69061541f565b6001600160a01b038088166000818152606760209081526040808320948b168084529490915290819020889055517f8c5be1e5ebec7d5bd14f71427d1e84f3dd0314c0f7b2291e5b200ac8c7c3b92590612b5d9089906154b9565b60405180910390a350505050505050565b612b76612a04565b60408051808201825260208082527f536166656d6f6f6e3a204164647265737320697320626c61636b6c6973746564818301526001600160a01b0384166000908152606a9091529190912054819060ff1615612be55760405162461bcd60e51b8152600401610cb69190614da1565b5084604051806060016040528060258152602001615582602591396001600160a01b0382166000908152606a6020526040902054819060ff1615612c3c5760405162461bcd60e51b8152600401610cb69190614da1565b50856040518060600160405280602381526020016155f7602391396001600160a01b0382166000908152606a6020526040902054819060ff1615612c935760405162461bcd60e51b8152600401610cb69190614da1565b50612c9c612a04565b803b63ffffffff811615612d61576001600160a01b0382166000908152606b602052604090205480612d5f576000839050806001600160a01b031663c45a01556040518163ffffffff1660e01b815260040160206040518083038186803b158015612d0657600080fd5b505afa925050508015612d36575060408051601f3d908101601f19168201909252612d3391810190614a1b565b60015b612d3f57612d5d565b506001600160a01b0384166000908152606b60205260409020600190555b505b505b506001600160a01b038a16612d885760405162461bcd60e51b8152600401610cb690614df4565b6001600160a01b038916612dae5760405162461bcd60e51b8152600401610cb690615307565b60008811612dce5760405162461bcd60e51b8152600401610cb690615237565b612dd6612006565b6001600160a01b03168a6001600160a01b031614158015612e105750612dfa612006565b6001600160a01b0316896001600160a01b031614155b15612e3757609054881115612e375760405162461bcd60e51b8152600401610cb690615057565b6000612e4230611a76565b90506090548110612e5257506090545b60935481108015908190612e705750608f54600160a01b900460ff16155b8015612e8a5750608b546001600160a01b038d8116911614155b8015612e9d5750609554610100900460ff165b15612eb0576093549150612eb082613b4c565b6001600160a01b038c1660009081526068602052604090205460019060ff1680612ef257506001600160a01b038c1660009081526068602052604090205460ff165b15612efb575060005b60008115612f6457506001600160a01b038d166000818152606b602052604090205490612f26612a04565b6001600160a01b031614612f6457606b6000612f40612a04565b6001600160a01b03166001600160a01b031681526020019081526020016000205490505b612f718e8e8e8486613b78565b5050505050505050505050505050565b60008184841115612fa55760405162461bcd60e51b8152600401610cb69190614da1565b505050900390565b6000806000612fba613c9a565b9092509050612fc98282612fd0565b9250505090565b6000808211612ff15760405162461bcd60e51b8152600401610cb690614fe9565b818381612ffa57fe5b049392505050565b600061304b8261303f85613045886080015161303f8a6060015161303f8c6040015161303f8e602001518f6000015161306f90919063ffffffff16565b9061306f565b9061326e565b90506070548111156111ed5760405162461bcd60e51b8152600401610cb6906153d9565b600082820183811015610fde5760405162461bcd60e51b8152600401610cb690614f0d565b61309c61489b565b6130a461489b565b6130f16040518060e001604052808b81526020018a8152602001898152602001888152602001878152602001866001600160a01b03168152602001856001600160a01b0316815250613e45565b90506130fc84611841565b61310583611841565b6089805460018101825560009190915281517f5bfa74c743914028161ae645d300d90bbdc659f169ca1469ec86b4960f7266cb60079092029182015560208201517f5bfa74c743914028161ae645d300d90bbdc659f169ca1469ec86b4960f7266cc82015560408201517f5bfa74c743914028161ae645d300d90bbdc659f169ca1469ec86b4960f7266cd82015560608201517f5bfa74c743914028161ae645d300d90bbdc659f169ca1469ec86b4960f7266ce82015560808201517f5bfa74c743914028161ae645d300d90bbdc659f169ca1469ec86b4960f7266cf82015560a08201517f5bfa74c743914028161ae645d300d90bbdc659f169ca1469ec86b4960f7266d0820180546001600160a01b03199081166001600160a01b039384161790915560c08401517f5bfa74c743914028161ae645d300d90bbdc659f169ca1469ec86b4960f7266d190930180549091169290911691909117905598975050505050505050565b6000828211156132905760405162461bcd60e51b8152600401610cb690614f7b565b50900390565b60408051600280825260608083018452926020830190803683375050608a54604080516315ab88c960e31b815290519394506001600160a01b039091169263ad5c464892506004808301926020929190829003018186803b1580156132fa57600080fd5b505afa15801561330e573d6000803e3d6000fd5b505050506040513d601f19601f820116820180604052508101906133329190614a1b565b8160008151811061333f57fe5b60200260200101906001600160a01b031690816001600160a01b031681525050308160018151811061336d57fe5b60200260200101906001600160a01b031690816001600160a01b0316815250506133aa613398612006565b608a546001600160a01b031684612a08565b608a546001600160a01b031663b6f9de95836000846133c7612006565b426040518663ffffffff1660e01b81526004016133e79493929190614d6c565b6000604051808303818588803b15801561340057600080fd5b505af1158015613414573d6000803e3d6000fd5b50505050505050565b608a546134359030906001600160a01b031684612a08565b608a546001600160a01b031663f305d719823085600080613454612006565b426040518863ffffffff1660e01b815260040161347696959493929190614d26565b6060604051808303818588803b15801561348f57600080fd5b505af11580156134a3573d6000803e3d6000fd5b50505050506040513d601f19601f820116820180604052508101906134c89190614be3565b5050505050565b6001600160a01b0382166134f55760405162461bcd60e51b8152600401610cb690615194565b608e546113f7906001600160a01b03168383600080613b78565b6135176148ea565b61351f614936565b6135298484613ead565b905060006135588260a0015161303f846080015161303f8660200151876040015161306f90919063ffffffff16565b9050600080600061357688866060015186613571612fad565b613ff3565b92509250925060405180610120016040528084815260200183815260200182815260200186600001518152602001866020015181526020018660400151815260200186606001518152602001866080015181526020018660a001518152509550505050505092915050565b60006135ec30614043565b15905090565b600054610100900460ff168061360b575061360b6135e1565b80613619575060005460ff16155b6136355760405162461bcd60e51b8152600401610cb69061509f565b600054610100900460ff16158015613660576000805460ff1961ff0019909116610100171660011790555b8015611a63576000805461ff001916905550565b600054610100900460ff168061368d575061368d6135e1565b8061369b575060005460ff16155b6136b75760405162461bcd60e51b8152600401610cb69061509f565b600054610100900460ff161580156136e2576000805460ff1961ff0019909116610100171660011790555b60006136ec612a04565b603380546001600160a01b0319166001600160a01b038316908117909155604051919250906000907f8be0079c531659141344cd1fd0a4f28419497f9722a3daafe3b4186f6b6457e0908290a3508015611a63576000805461ff001916905550565b600054610100900460ff168061376757506137676135e1565b80613775575060005460ff16155b6137915760405162461bcd60e51b8152600401610cb69061509f565b600054610100900460ff161580156137bc576000805460ff1961ff0019909116610100171660011790555b6040805180820190915260088082526729b0b332a6b7b7b760c11b60209092019182526137eb9160719161496c565b506040805180820190915260038082526253464d60e81b60209092019182526138169160729161496c565b506073805460ff19166009179055683635c9adc5dea00000606d8190556000190619606e556103e8607055674563918244f400006090556706f05b59d3b20000609155608f80546001600160a01b03191661dead179055613875612a04565b608e80546001600160a01b03199081166001600160a01b039384161791829055606e5491831660009081526065602090815260409182902093909355608a8054909216868516179182905580516315ab88c960e31b81529051919093169263ad5c4648926004808301939192829003018186803b1580156138f557600080fd5b505afa158015613909573d6000803e3d6000fd5b505050506040513d601f19601f8201168201806040525081019061392d9190614a1b565b608c80546001600160a01b0319166001600160a01b03928316179055608a546040805163c45a015560e01b81529051919092169163c45a0155916004808301926020929190829003018186803b15801561398657600080fd5b505afa15801561399a573d6000803e3d6000fd5b505050506040513d601f19601f820116820180604052508101906139be9190614a1b565b608c546040516364e329cb60e11b81526001600160a01b039283169263c9c65396926139f292309290911690600401614ccf565b602060405180830381600087803b158015613a0c57600080fd5b505af1158015613a20573d6000803e3d6000fd5b505050506040513d601f19601f82011682018060405250810190613a449190614a1b565b608b80546001600160a01b0319166001600160a01b0392909216919091179055600160686000613a72612006565b6001600160a01b0316815260208082019290925260409081016000908120805494151560ff199586161790553081526068909252902080549091166001179055613aba614049565b613ac2612a04565b6001600160a01b031660006001600160a01b0316600080516020615640833981519152606d54604051613af591906154b9565b60405180910390a380156113f7576000805461ff00191690555050565b600082613b2157506000610c71565b82820282848281613b2e57fe5b0414610fde5760405162461bcd60e51b8152600401610cb690615153565b608f805460ff60a01b1916600160a01b179055613b6881614176565b50608f805460ff60a01b19169055565b80613b8557613b856142d2565b6001600160a01b03851660009081526069602052604090205460ff16158015613bc757506001600160a01b03841660009081526069602052604090205460ff16155b15613bdd57613bd8858585856143d4565b6134c8565b6001600160a01b03851660009081526069602052604090205460ff168015613c1e57506001600160a01b03841660009081526069602052604090205460ff16155b15613c2f57613bd8858585856144be565b6001600160a01b03851660009081526069602052604090205460ff16158015613c7057506001600160a01b03841660009081526069602052604090205460ff165b15613c8157613bd885858585614529565b613c8d858585856145d4565b806134c8576134c861463f565b600080606e546096541180613cb25750606d54609754115b15613cc4575050606e54606d54613e41565b606e54606d54613cd48282612fd0565b821015613cec57606e54606d54935093505050613e41565b60005b606c54811015613e13578260656000606c8481548110613d0b57fe5b60009182526020808320909101546001600160a01b031683528201929092526040019020541180613d7057508160666000606c8481548110613d4957fe5b60009182526020808320909101546001600160a01b03168352820192909252604001902054115b15613d8757606e54606d5494509450505050613e41565b613dc760656000606c8481548110613d9b57fe5b60009182526020808320909101546001600160a01b03168352820192909252604001902054849061326e565b9250613e0960666000606c8481548110613ddd57fe5b60009182526020808320909101546001600160a01b03168352820192909252604001902054839061326e565b9150600101613cef565b50606d54606e54613e2391612fd0565b821015613e3b57606e54606d54935093505050613e41565b90925090505b9091565b613e4d61489b565b6000613e82836080015161303f856060015161303f876040015161303f89602001518a6000015161306f90919063ffffffff16565b9050607054811115613ea65760405162461bcd60e51b8152600401610cb6906153d9565b5090919050565b613eb5614936565b613ebd61489b565b60898381548110613eca57fe5b60009182526020918290206040805160e081018252600790930290910180548352600181015493830193909352600283015490820152600382015460608201526004820154608082015260058201546001600160a01b0390811660a083015260069092015490911660c08201529050613f41614936565b6040518060c0016040528060008152602001613f6187856000015161464f565b8152602001613f7487856020015161464f565b8152602001613f8787856040015161464f565b8152602001613f9a87856060015161464f565b8152602001613fad87856080015161464f565b8152509050613fe98160a0015161304583608001516130458560400151613045876060015161304589602001518e61326e90919063ffffffff16565b8152949350505050565b60008080806140028886613b12565b905060006140108887613b12565b9050600061401e8888613b12565b9050600061403082613045868661326e565b939b939a50919850919650505050505050565b3b151590565b600054610100900460ff168061406257506140626135e1565b80614070575060005460ff16155b61408c5760405162461bcd60e51b8152600401610cb69061509f565b600054610100900460ff161580156140b7576000805460ff1961ff0019909116610100171660011790555b6140cb60006101f480600080600080613094565b8051607455602081015160755560408101516076556060810151607755608081015160785560a0810151607980546001600160a01b03199081166001600160a01b039384161790915560c090920151607a8054909316911617905561413860328060646000808080613094565b5061414c6032806064806000806000613094565b506141616064607d8060966000806000613094565b508015611a63576000805461ff001916905550565b604080516002808252606080830184529260208301908036833701905050905030816000815181106141a457fe5b6001600160a01b03928316602091820292909201810191909152608a54604080516315ab88c960e31b81529051919093169263ad5c4648926004808301939192829003018186803b1580156141f857600080fd5b505afa15801561420c573d6000803e3d6000fd5b505050506040513d601f19601f820116820180604052508101906142309190614a1b565b8160018151811061423d57fe5b6001600160a01b039283166020918202929092010152608a546142639130911684612a08565b608a5460405163791ac94760e01b81526001600160a01b039091169063791ac9479061429c9085906000908690309042906004016154c2565b600060405180830381600087803b1580156142b657600080fd5b505af11580156142ca573d6000803e3d6000fd5b505050505050565b60896000815481106142e057fe5b6000918252602082206007909102018054607b556001810154607c556002810154607d556003810154607e556004810154607f556005810154608080546001600160a01b03199081166001600160a01b0393841617909155600690920154608180549093169116179055608980546082929061435857fe5b6000918252602090912082546007909202019081556001808301549082015560028083015490820155600380830154908201556004808301549082015560058083015490820180546001600160a01b03199081166001600160a01b03938416179091556006938401549390920180549092169216919091179055565b6143dc6148ea565b6143e6838361350f565b80516001600160a01b03871660009081526065602052604090205491925061440e919061326e565b6001600160a01b03808716600090815260656020908152604080832094909455840151918716815291909120546144449161306f565b6001600160a01b03851660009081526065602052604090205561446885828461466e565b61447a81604001518260c001516146fc565b836001600160a01b0316856001600160a01b031660008051602061564083398151915283606001516040516144af91906154b9565b60405180910390a35050505050565b6144c66148ea565b6144d0838361350f565b6001600160a01b0386166000908152606660205260409020549091506144f6908461326e565b6001600160a01b038616600090815260666020908152604080832093909355835160659091529190205461440e9161326e565b6145316148ea565b61453b838361350f565b80516001600160a01b038716600090815260656020526040902054919250614563919061326e565b6001600160a01b038087166000908152606560209081526040808320949094556060850151928816825260669052919091205461459f9161306f565b6001600160a01b038516600090815260666020908152604080832093909355838101516065909152919020546144449161306f565b6145dc6148ea565b6145e6838361350f565b6001600160a01b03861660009081526066602052604090205490915061460c908461326e565b6001600160a01b03861660009081526066602090815260408083209390935583516065909152919020546145639161326e565b607b608960008154811061435857fe5b60008161465e57506000610c71565b610fde61271061256f8585613b12565b61467d838360a0015130614720565b6146b58383608001516089848154811061469357fe5b60009182526020909120600560079092020101546001600160a01b0316614720565b6146ed838360e00151608984815481106146cb57fe5b60009182526020909120600660079092020101546001600160a01b0316614720565b611c6083836101000151614816565b606e54614709908361326e565b606e55606f54614719908261306f565b606f555050565b6001600160a01b03811661473357611c60565b8161473d57611c60565b6000614747612fad565b905060006147558483613b12565b6001600160a01b03841660009081526065602052604090205490915061477b908261306f565b6001600160a01b03841660009081526065602090815260408083209390935560699052205460ff16156147e5576001600160a01b0383166000908152606660205260409020546147cb908561306f565b6001600160a01b0384166000908152606660205260409020555b826001600160a01b0316856001600160a01b0316600080516020615640833981519152866040516144af91906154b9565b80614820576113f7565b608f546001600160a01b0316600090815260666020526040902054614845908261306f565b608f80546001600160a01b0390811660009081526066602052604090819020939093559054915191811691908416906000805160206156408339815191529061488f9085906154b9565b60405180910390a35050565b6040518060e00160405280600081526020016000815260200160008152602001600081526020016000815260200160006001600160a01b0316815260200160006001600160a01b031681525090565b6040518061012001604052806000815260200160008152602001600081526020016000815260200160008152602001600081526020016000815260200160008152602001600081525090565b6040518060c001604052806000815260200160008152602001600081526020016000815260200160008152602001600081525090565b828054600181600116156101000203166002900490600052602060002090601f016020900481019282601f106149ad57805160ff19168380011785556149da565b828001600101855582156149da579182015b828111156149da5782518255916020019190600101906149bf565b506149e69291506149ea565b5090565b5b808211156149e657600081556001016149eb565b600060208284031215614a10578081fd5b8135610fde8161555e565b600060208284031215614a2c578081fd5b8151610fde8161555e565b60008060408385031215614a49578081fd5b8235614a548161555e565b91506020830135614a648161555e565b809150509250929050565b600080600060608486031215614a83578081fd5b8335614a8e8161555e565b92506020840135614a9e8161555e565b929592945050506040919091013590565b60008060408385031215614ac1578182fd5b8235614acc8161555e565b946020939093013593505050565b600060208284031215614aeb578081fd5b8135610fde81615573565b600060208284031215614b07578081fd5b8151610fde81615573565b600060208284031215614b23578081fd5b5035919050565b600060208284031215614b3b578081fd5b5051919050565b60008060408385031215614b54578182fd5b823591506020830135614a648161555e565b60008060408385031215614b78578182fd5b823591506020830135614a6481615573565b60008060408385031215614b9c578182fd5b50508035926020909101359150565b600080600060608486031215614bbf578283fd5b83359250602084013591506040840135614bd881615573565b809150509250925092565b600080600060608486031215614bf7578283fd5b8351925060208401519150604084015190509250925092565b600080600080600080600060e0888a031215614c2a578283fd5b873596506020880135955060408801359450606088013593506080880135925060a0880135614c588161555e565b915060c0880135614c688161555e565b8091505092959891949750929550565b6000815180845260208085019450808401835b83811015614cb05781516001600160a01b031687529582019590820190600101614c8b565b509495945050505050565b6001600160a01b0391909116815260200190565b6001600160a01b0392831681529116602082015260400190565b6001600160a01b039384168152919092166020820152604081019190915260600190565b6001600160a01b03929092168252602082015260400190565b6001600160a01b039687168152602081019590955260408501939093526060840191909152909216608082015260a081019190915260c00190565b901515815260200190565b600085825260806020830152614d856080830186614c78565b6001600160a01b03949094166040830152506060015292915050565b6000602080835283518082850152825b81811015614dcd57858101830151858201604001528201614db1565b81811115614dde5783604083870101525b50601f01601f1916929092016040019392505050565b60208082526025908201527f42455032303a207472616e736665722066726f6d20746865207a65726f206164604082015264647265737360d81b606082015260800190565b60208082526024908201527f42455032303a20617070726f76652066726f6d20746865207a65726f206164646040820152637265737360e01b606082015260800190565b6020808252602a908201527f416d6f756e74206d757374206265206c657373207468616e20746f74616c207260408201526965666c656374696f6e7360b01b606082015260800190565b60208082526026908201527f4f776e61626c653a206e6577206f776e657220697320746865207a65726f206160408201526564647265737360d01b606082015260800190565b6020808252601b908201527f536166654d6174683a206164646974696f6e206f766572666c6f770000000000604082015260600190565b6020808252601b908201527f4163636f756e7420697320616c7265616479206578636c756465640000000000604082015260600190565b6020808252601e908201527f536166654d6174683a207375627472616374696f6e206f766572666c6f770000604082015260600190565b6020808252601b908201527f4163636f756e7420697320616c726561647920696e636c756465640000000000604082015260600190565b6020808252601a908201527f536166654d6174683a206469766973696f6e206279207a65726f000000000000604082015260600190565b6020808252601f908201527f416d6f756e74206d757374206265206c657373207468616e20737570706c7900604082015260600190565b60208082526028908201527f5472616e7366657220616d6f756e74206578636565647320746865206d6178546040820152673c20b6b7bab73a1760c11b606082015260800190565b6020808252602e908201527f496e697469616c697a61626c653a20636f6e747261637420697320616c72656160408201526d191e481a5b9a5d1a585b1a5e995960921b606082015260800190565b60208082526015908201527414d859995b5bdbdb8e88139bdd08105b1b1bddd959605a1b604082015260600190565b6020808252601c908201527f536166656d6f6f6e3a20496e76616c6964207469657220696e64657800000000604082015260600190565b60208082526021908201527f536166654d6174683a206d756c7469706c69636174696f6e206f766572666c6f6040820152607760f81b606082015260800190565b6020808252601f908201527f42455032303a206d696e7420746f20746865207a65726f206164647265737300604082015260600190565b6020808252818101527f4f776e61626c653a2063616c6c6572206973206e6f7420746865206f776e6572604082015260600190565b60208082526019908201527f536166656d6f6f6e3a20496e76616c6964206164647265737300000000000000604082015260600190565b60208082526029908201527f5472616e7366657220616d6f756e74206d7573742062652067726561746572206040820152687468616e207a65726f60b81b606082015260800190565b60208082526022908201527f536166656d6f6f6e3a204d6967726174696f6e206973206e6f74207374617274604082015261195960f21b606082015260800190565b60208082526025908201527f536166656d6f6f6e3a2041646472657373205a65726f206973206e6f7420616c6040820152641b1bddd95960da1b606082015260800190565b60208082526023908201527f42455032303a207472616e7366657220746f20746865207a65726f206164647260408201526265737360e81b606082015260800190565b6020808252602a908201527f424e422062616c616e6365206973206e6f7420726561636820666f722053264560408201526908151a1c995cda1bdb1960b21b606082015260800190565b60208082526025908201527f536166656d6f6f6e3a204163636f756e74206973206e6f7420696e2077686974604082015264195b1a5cdd60da1b606082015260800190565b60208082526026908201527f536166656d6f6f6e3a2046656573206578636565646564206d6178206c696d696040820152653a30ba34b7b760d11b606082015260800190565b60208082526022908201527f42455032303a20617070726f766520746f20746865207a65726f206164647265604082015261737360f01b606082015260800190565b815181526020808301519082015260408083015190820152606080830151908201526080808301519082015260a0808301516001600160a01b039081169183019190915260c092830151169181019190915260e00190565b90815260200190565b600086825285602083015260a060408301526154e160a0830186614c78565b6001600160a01b0394909416606083015250608001529392505050565b9283526020830191909152604082015260600190565b96875260208701959095526040860193909352606085019190915260808401526001600160a01b0390811660a08401521660c082015260e00190565b60ff91909116815260200190565b6001600160a01b0381168114611a6357600080fd5b8015158114611a6357600080fdfe536166656d6f6f6e3a2046726f6d206164647265737320697320626c61636b6c6973746564536166656d6f6f6e3a205370656e646572206164647265737320697320626c61636b6c697374656442455032303a207472616e7366657220616d6f756e74206578636565647320616c6c6f77616e6365536166656d6f6f6e3a20546f206164647265737320697320626c61636b6c6973746564536166656d6f6f6e3a204f776e6572206164647265737320697320626c61636b6c6973746564ddf252ad1be2c89b69c2b068fc378daa952ba7f163c4a11628f55a4df523b3ef42455032303a2064656372656173656420616c6c6f77616e63652062656c6f77207a65726f536166656d6f6f6e3a204d69677261746564206163636f756e7420697320626c61636b6c6973746564536166656d6f6f6e3a2053656c6563746564206163636f756e7420697320696e20626c61636b6c697374a2646970667358221220edad24afb2dc2cf27d72775204b61b4d7ab70b52667497fa33b6987ed394ae8164736f6c634300060c0033",
          "opcodes": "PUSH1 0x80 PUSH1 0x40 MSTORE CALLVALUE DUP1 ISZERO PUSH2 0x10 JUMPI PUSH1 0x0 DUP1 REVERT JUMPDEST POP PUSH2 0x570D DUP1 PUSH3 0x21 PUSH1 0x0 CODECOPY PUSH1 0x0 RETURN INVALID PUSH1 0x80 PUSH1 0x40 MSTORE PUSH1 0x4 CALLDATASIZE LT PUSH2 0x3E8 JUMPI PUSH1 0x0 CALLDATALOAD PUSH1 0xE0 SHR DUP1 PUSH4 0x674A3112 GT PUSH2 0x208 JUMPI DUP1 PUSH4 0xA9059CBB GT PUSH2 0x118 JUMPI DUP1 PUSH4 0xDD62ED3E GT PUSH2 0xAB JUMPI DUP1 PUSH4 0xF2FDE38B GT PUSH2 0x7A JUMPI DUP1 PUSH4 0xF2FDE38B EQ PUSH2 0xB2E JUMPI DUP1 PUSH4 0xF3290D75 EQ PUSH2 0xB4E JUMPI DUP1 PUSH4 0xF89879AA EQ PUSH2 0xB6E JUMPI DUP1 PUSH4 0xFE575A87 EQ PUSH2 0xB83 JUMPI DUP1 PUSH4 0xFFF3E1BA EQ PUSH2 0xBA3 JUMPI PUSH2 0x3EF JUMP JUMPDEST DUP1 PUSH4 0xDD62ED3E EQ PUSH2 0xAA6 JUMPI DUP1 PUSH4 0xDFD66CB3 EQ PUSH2 0xAC6 JUMPI DUP1 PUSH4 0xEA2F0B37 EQ PUSH2 0xAEE JUMPI DUP1 PUSH4 0xF2D58C23 EQ PUSH2 0xB0E JUMPI PUSH2 0x3EF JUMP JUMPDEST DUP1 PUSH4 0xC4D66DE8 GT PUSH2 0xE7 JUMPI DUP1 PUSH4 0xC4D66DE8 EQ PUSH2 0xA26 JUMPI DUP1 PUSH4 0xD40CF659 EQ PUSH2 0xA46 JUMPI DUP1 PUSH4 0xD543DBEB EQ PUSH2 0xA66 JUMPI DUP1 PUSH4 0xD66329B0 EQ PUSH2 0xA86 JUMPI PUSH2 0x3EF JUMP JUMPDEST DUP1 PUSH4 0xA9059CBB EQ PUSH2 0x9B1 JUMPI DUP1 PUSH4 0xAD68EBF7 EQ PUSH2 0x9D1 JUMPI DUP1 PUSH4 0xBD3900C0 EQ PUSH2 0x9F1 JUMPI DUP1 PUSH4 0xBF266469 EQ PUSH2 0xA06 JUMPI PUSH2 0x3EF JUMP JUMPDEST DUP1 PUSH4 0x8ABEC606 GT PUSH2 0x19B JUMPI DUP1 PUSH4 0x8DD95002 GT PUSH2 0x16A JUMPI DUP1 PUSH4 0x8DD95002 EQ PUSH2 0x927 JUMPI DUP1 PUSH4 0x8FC3D4B8 EQ PUSH2 0x93C JUMPI DUP1 PUSH4 0x95D89B41 EQ PUSH2 0x95C JUMPI DUP1 PUSH4 0x9E281A98 EQ PUSH2 0x971 JUMPI DUP1 PUSH4 0xA457C2D7 EQ PUSH2 0x991 JUMPI PUSH2 0x3EF JUMP JUMPDEST DUP1 PUSH4 0x8ABEC606 EQ PUSH2 0x8C8 JUMPI DUP1 PUSH4 0x8AF319C7 EQ PUSH2 0x8DD JUMPI DUP1 PUSH4 0x8D50D499 EQ PUSH2 0x8FD JUMPI DUP1 PUSH4 0x8DA5CB5B EQ PUSH2 0x912 JUMPI PUSH2 0x3EF JUMP JUMPDEST DUP1 PUSH4 0x715018A6 GT PUSH2 0x1D7 JUMPI DUP1 PUSH4 0x715018A6 EQ PUSH2 0x85E JUMPI DUP1 PUSH4 0x7D1DB4A5 EQ PUSH2 0x873 JUMPI DUP1 PUSH4 0x7ED948F7 EQ PUSH2 0x888 JUMPI DUP1 PUSH4 0x88F82020 EQ PUSH2 0x8A8 JUMPI PUSH2 0x3EF JUMP JUMPDEST DUP1 PUSH4 0x674A3112 EQ PUSH2 0x7E9 JUMPI DUP1 PUSH4 0x6BD89CDD EQ PUSH2 0x809 JUMPI DUP1 PUSH4 0x6F9FB98A EQ PUSH2 0x829 JUMPI DUP1 PUSH4 0x70A08231 EQ PUSH2 0x83E JUMPI PUSH2 0x3EF JUMP JUMPDEST DUP1 PUSH4 0x3685D419 GT PUSH2 0x303 JUMPI DUP1 PUSH4 0x4732A7DC GT PUSH2 0x296 JUMPI DUP1 PUSH4 0x52390C02 GT PUSH2 0x265 JUMPI DUP1 PUSH4 0x52390C02 EQ PUSH2 0x76A JUMPI DUP1 PUSH4 0x5342ACB4 EQ PUSH2 0x78A JUMPI DUP1 PUSH4 0x55724B3A EQ PUSH2 0x7AA JUMPI DUP1 PUSH4 0x60D0EB73 EQ PUSH2 0x7BF JUMPI DUP1 PUSH4 0x6531C58C EQ PUSH2 0x7D4 JUMPI PUSH2 0x3EF JUMP JUMPDEST DUP1 PUSH4 0x4732A7DC EQ PUSH2 0x700 JUMPI DUP1 PUSH4 0x49BD5A5E EQ PUSH2 0x720 JUMPI DUP1 PUSH4 0x4A74BB02 EQ PUSH2 0x735 JUMPI DUP1 PUSH4 0x4FFC1425 EQ PUSH2 0x74A JUMPI PUSH2 0x3EF JUMP JUMPDEST DUP1 PUSH4 0x40B28C2F GT PUSH2 0x2D2 JUMPI DUP1 PUSH4 0x40B28C2F EQ PUSH2 0x680 JUMPI DUP1 PUSH4 0x437823EC EQ PUSH2 0x6A0 JUMPI DUP1 PUSH4 0x4549B039 EQ PUSH2 0x6C0 JUMPI DUP1 PUSH4 0x459C979B EQ PUSH2 0x6E0 JUMPI PUSH2 0x3EF JUMP JUMPDEST DUP1 PUSH4 0x3685D419 EQ PUSH2 0x600 JUMPI DUP1 PUSH4 0x39509351 EQ PUSH2 0x620 JUMPI DUP1 PUSH4 0x39AA1BBA EQ PUSH2 0x640 JUMPI DUP1 PUSH4 0x3AF32ABF EQ PUSH2 0x660 JUMPI PUSH2 0x3EF JUMP JUMPDEST DUP1 PUSH4 0x18160DDD GT PUSH2 0x37B JUMPI DUP1 PUSH4 0x30127334 GT PUSH2 0x34A JUMPI DUP1 PUSH4 0x30127334 EQ PUSH2 0x57E JUMPI DUP1 PUSH4 0x30B263BA EQ PUSH2 0x59E JUMPI DUP1 PUSH4 0x313CE567 EQ PUSH2 0x5BE JUMPI DUP1 PUSH4 0x32C2D90C EQ PUSH2 0x5E0 JUMPI PUSH2 0x3EF JUMP JUMPDEST DUP1 PUSH4 0x18160DDD EQ PUSH2 0x509 JUMPI DUP1 PUSH4 0x200C7295 EQ PUSH2 0x51E JUMPI DUP1 PUSH4 0x23B872DD EQ PUSH2 0x53E JUMPI DUP1 PUSH4 0x2D838119 EQ PUSH2 0x55E JUMPI PUSH2 0x3EF JUMP JUMPDEST DUP1 PUSH4 0x13114A9D GT PUSH2 0x3B7 JUMPI DUP1 PUSH4 0x13114A9D EQ PUSH2 0x490 JUMPI DUP1 PUSH4 0x132AF75C EQ PUSH2 0x4A5 JUMPI DUP1 PUSH4 0x140C5759 EQ PUSH2 0x4BA JUMPI DUP1 PUSH4 0x1694505E EQ PUSH2 0x4E7 JUMPI PUSH2 0x3EF JUMP JUMPDEST DUP1 PUSH4 0x6FDDE03 EQ PUSH2 0x3F4 JUMPI DUP1 PUSH4 0x95EA7B3 EQ PUSH2 0x41F JUMPI DUP1 PUSH4 0x10844953 EQ PUSH2 0x44C JUMPI DUP1 PUSH4 0x11B32601 EQ PUSH2 0x46E JUMPI PUSH2 0x3EF JUMP JUMPDEST CALLDATASIZE PUSH2 0x3EF JUMPI STOP JUMPDEST PUSH1 0x0 DUP1 REVERT JUMPDEST CALLVALUE DUP1 ISZERO PUSH2 0x400 JUMPI PUSH1 0x0 DUP1 REVERT JUMPDEST POP PUSH2 0x409 PUSH2 0xBC3 JUMP JUMPDEST PUSH1 0x40 MLOAD PUSH2 0x416 SWAP2 SWAP1 PUSH2 0x4DA1 JUMP JUMPDEST PUSH1 0x40 MLOAD DUP1 SWAP2 SUB SWAP1 RETURN JUMPDEST CALLVALUE DUP1 ISZERO PUSH2 0x42B JUMPI PUSH1 0x0 DUP1 REVERT JUMPDEST POP PUSH2 0x43F PUSH2 0x43A CALLDATASIZE PUSH1 0x4 PUSH2 0x4AAF JUMP JUMPDEST PUSH2 0xC59 JUMP JUMPDEST PUSH1 0x40 MLOAD PUSH2 0x416 SWAP2 SWAP1 PUSH2 0x4D61 JUMP JUMPDEST CALLVALUE DUP1 ISZERO PUSH2 0x458 JUMPI PUSH1 0x0 DUP1 REVERT JUMPDEST POP PUSH2 0x46C PUSH2 0x467 CALLDATASIZE PUSH1 0x4 PUSH2 0x49FF JUMP JUMPDEST PUSH2 0xC77 JUMP JUMPDEST STOP JUMPDEST CALLVALUE DUP1 ISZERO PUSH2 0x47A JUMPI PUSH1 0x0 DUP1 REVERT JUMPDEST POP PUSH2 0x483 PUSH2 0xD34 JUMP JUMPDEST PUSH1 0x40 MLOAD PUSH2 0x416 SWAP2 SWAP1 PUSH2 0x54B9 JUMP JUMPDEST CALLVALUE DUP1 ISZERO PUSH2 0x49C JUMPI PUSH1 0x0 DUP1 REVERT JUMPDEST POP PUSH2 0x483 PUSH2 0xD3A JUMP JUMPDEST CALLVALUE DUP1 ISZERO PUSH2 0x4B1 JUMPI PUSH1 0x0 DUP1 REVERT JUMPDEST POP PUSH2 0x46C PUSH2 0xD40 JUMP JUMPDEST CALLVALUE DUP1 ISZERO PUSH2 0x4C6 JUMPI PUSH1 0x0 DUP1 REVERT JUMPDEST POP PUSH2 0x4DA PUSH2 0x4D5 CALLDATASIZE PUSH1 0x4 PUSH2 0x4B12 JUMP JUMPDEST PUSH2 0xD9D JUMP JUMPDEST PUSH1 0x40 MLOAD PUSH2 0x416 SWAP2 SWAP1 PUSH2 0x5461 JUMP JUMPDEST CALLVALUE DUP1 ISZERO PUSH2 0x4F3 JUMPI PUSH1 0x0 DUP1 REVERT JUMPDEST POP PUSH2 0x4FC PUSH2 0xE4A JUMP JUMPDEST PUSH1 0x40 MLOAD PUSH2 0x416 SWAP2 SWAP1 PUSH2 0x4CBB JUMP JUMPDEST CALLVALUE DUP1 ISZERO PUSH2 0x515 JUMPI PUSH1 0x0 DUP1 REVERT JUMPDEST POP PUSH2 0x483 PUSH2 0xE59 JUMP JUMPDEST CALLVALUE DUP1 ISZERO PUSH2 0x52A JUMPI PUSH1 0x0 DUP1 REVERT JUMPDEST POP PUSH2 0x46C PUSH2 0x539 CALLDATASIZE PUSH1 0x4 PUSH2 0x4AAF JUMP JUMPDEST PUSH2 0xE5F JUMP JUMPDEST CALLVALUE DUP1 ISZERO PUSH2 0x54A JUMPI PUSH1 0x0 DUP1 REVERT JUMPDEST POP PUSH2 0x43F PUSH2 0x559 CALLDATASIZE PUSH1 0x4 PUSH2 0x4A6F JUMP JUMPDEST PUSH2 0xF5D JUMP JUMPDEST CALLVALUE DUP1 ISZERO PUSH2 0x56A JUMPI PUSH1 0x0 DUP1 REVERT JUMPDEST POP PUSH2 0x483 PUSH2 0x579 CALLDATASIZE PUSH1 0x4 PUSH2 0x4B12 JUMP JUMPDEST PUSH2 0xFE5 JUMP JUMPDEST CALLVALUE DUP1 ISZERO PUSH2 0x58A JUMPI PUSH1 0x0 DUP1 REVERT JUMPDEST POP PUSH2 0x4DA PUSH2 0x599 CALLDATASIZE PUSH1 0x4 PUSH2 0x49FF JUMP JUMPDEST PUSH2 0x1028 JUMP JUMPDEST CALLVALUE DUP1 ISZERO PUSH2 0x5AA JUMPI PUSH1 0x0 DUP1 REVERT JUMPDEST POP PUSH2 0x46C PUSH2 0x5B9 CALLDATASIZE PUSH1 0x4 PUSH2 0x4B8A JUMP JUMPDEST PUSH2 0x10CC JUMP JUMPDEST CALLVALUE DUP1 ISZERO PUSH2 0x5CA JUMPI PUSH1 0x0 DUP1 REVERT JUMPDEST POP PUSH2 0x5D3 PUSH2 0x11F3 JUMP JUMPDEST PUSH1 0x40 MLOAD PUSH2 0x416 SWAP2 SWAP1 PUSH2 0x5550 JUMP JUMPDEST CALLVALUE DUP1 ISZERO PUSH2 0x5EC JUMPI PUSH1 0x0 DUP1 REVERT JUMPDEST POP PUSH2 0x46C PUSH2 0x5FB CALLDATASIZE PUSH1 0x4 PUSH2 0x4ADA JUMP JUMPDEST PUSH2 0x11FC JUMP JUMPDEST CALLVALUE DUP1 ISZERO PUSH2 0x60C JUMPI PUSH1 0x0 DUP1 REVERT JUMPDEST POP PUSH2 0x46C PUSH2 0x61B CALLDATASIZE PUSH1 0x4 PUSH2 0x49FF JUMP JUMPDEST PUSH2 0x1288 JUMP JUMPDEST CALLVALUE DUP1 ISZERO PUSH2 0x62C JUMPI PUSH1 0x0 DUP1 REVERT JUMPDEST POP PUSH2 0x43F PUSH2 0x63B CALLDATASIZE PUSH1 0x4 PUSH2 0x4AAF JUMP JUMPDEST PUSH2 0x13FB JUMP JUMPDEST CALLVALUE DUP1 ISZERO PUSH2 0x64C JUMPI PUSH1 0x0 DUP1 REVERT JUMPDEST POP PUSH2 0x46C PUSH2 0x65B CALLDATASIZE PUSH1 0x4 PUSH2 0x4B8A JUMP JUMPDEST PUSH2 0x1449 JUMP JUMPDEST CALLVALUE DUP1 ISZERO PUSH2 0x66C JUMPI PUSH1 0x0 DUP1 REVERT JUMPDEST POP PUSH2 0x43F PUSH2 0x67B CALLDATASIZE PUSH1 0x4 PUSH2 0x49FF JUMP JUMPDEST PUSH2 0x1569 JUMP JUMPDEST CALLVALUE DUP1 ISZERO PUSH2 0x68C JUMPI PUSH1 0x0 DUP1 REVERT JUMPDEST POP PUSH2 0x46C PUSH2 0x69B CALLDATASIZE PUSH1 0x4 PUSH2 0x4A37 JUMP JUMPDEST PUSH2 0x1586 JUMP JUMPDEST CALLVALUE DUP1 ISZERO PUSH2 0x6AC JUMPI PUSH1 0x0 DUP1 REVERT JUMPDEST POP PUSH2 0x46C PUSH2 0x6BB CALLDATASIZE PUSH1 0x4 PUSH2 0x49FF JUMP JUMPDEST PUSH2 0x168C JUMP JUMPDEST CALLVALUE DUP1 ISZERO PUSH2 0x6CC JUMPI PUSH1 0x0 DUP1 REVERT JUMPDEST POP PUSH2 0x483 PUSH2 0x6DB CALLDATASIZE PUSH1 0x4 PUSH2 0x4B66 JUMP JUMPDEST PUSH2 0x16EF JUMP JUMPDEST CALLVALUE DUP1 ISZERO PUSH2 0x6EC JUMPI PUSH1 0x0 DUP1 REVERT JUMPDEST POP PUSH2 0x46C PUSH2 0x6FB CALLDATASIZE PUSH1 0x4 PUSH2 0x4B12 JUMP JUMPDEST PUSH2 0x16FD JUMP JUMPDEST CALLVALUE DUP1 ISZERO PUSH2 0x70C JUMPI PUSH1 0x0 DUP1 REVERT JUMPDEST POP PUSH2 0x46C PUSH2 0x71B CALLDATASIZE PUSH1 0x4 PUSH2 0x49FF JUMP JUMPDEST PUSH2 0x1769 JUMP JUMPDEST CALLVALUE DUP1 ISZERO PUSH2 0x72C JUMPI PUSH1 0x0 DUP1 REVERT JUMPDEST POP PUSH2 0x4FC PUSH2 0x17CA JUMP JUMPDEST CALLVALUE DUP1 ISZERO PUSH2 0x741 JUMPI PUSH1 0x0 DUP1 REVERT JUMPDEST POP PUSH2 0x43F PUSH2 0x17D9 JUMP JUMPDEST CALLVALUE DUP1 ISZERO PUSH2 0x756 JUMPI PUSH1 0x0 DUP1 REVERT JUMPDEST POP PUSH2 0x46C PUSH2 0x765 CALLDATASIZE PUSH1 0x4 PUSH2 0x4C10 JUMP JUMPDEST PUSH2 0x17E9 JUMP JUMPDEST CALLVALUE DUP1 ISZERO PUSH2 0x776 JUMPI PUSH1 0x0 DUP1 REVERT JUMPDEST POP PUSH2 0x46C PUSH2 0x785 CALLDATASIZE PUSH1 0x4 PUSH2 0x49FF JUMP JUMPDEST PUSH2 0x1841 JUMP JUMPDEST CALLVALUE DUP1 ISZERO PUSH2 0x796 JUMPI PUSH1 0x0 DUP1 REVERT JUMPDEST POP PUSH2 0x43F PUSH2 0x7A5 CALLDATASIZE PUSH1 0x4 PUSH2 0x49FF JUMP JUMPDEST PUSH2 0x1979 JUMP JUMPDEST CALLVALUE DUP1 ISZERO PUSH2 0x7B6 JUMPI PUSH1 0x0 DUP1 REVERT JUMPDEST POP PUSH2 0x43F PUSH2 0x1997 JUMP JUMPDEST CALLVALUE DUP1 ISZERO PUSH2 0x7CB JUMPI PUSH1 0x0 DUP1 REVERT JUMPDEST POP PUSH2 0x43F PUSH2 0x19A5 JUMP JUMPDEST CALLVALUE DUP1 ISZERO PUSH2 0x7E0 JUMPI PUSH1 0x0 DUP1 REVERT JUMPDEST POP PUSH2 0x483 PUSH2 0x19B6 JUMP JUMPDEST CALLVALUE DUP1 ISZERO PUSH2 0x7F5 JUMPI PUSH1 0x0 DUP1 REVERT JUMPDEST POP PUSH2 0x46C PUSH2 0x804 CALLDATASIZE PUSH1 0x4 PUSH2 0x4B12 JUMP JUMPDEST PUSH2 0x19BC JUMP JUMPDEST CALLVALUE DUP1 ISZERO PUSH2 0x815 JUMPI PUSH1 0x0 DUP1 REVERT JUMPDEST POP PUSH2 0x46C PUSH2 0x824 CALLDATASIZE PUSH1 0x4 PUSH2 0x49FF JUMP JUMPDEST PUSH2 0x1A00 JUMP JUMPDEST CALLVALUE DUP1 ISZERO PUSH2 0x835 JUMPI PUSH1 0x0 DUP1 REVERT JUMPDEST POP PUSH2 0x483 PUSH2 0x1A66 JUMP JUMPDEST CALLVALUE DUP1 ISZERO PUSH2 0x84A JUMPI PUSH1 0x0 DUP1 REVERT JUMPDEST POP PUSH2 0x483 PUSH2 0x859 CALLDATASIZE PUSH1 0x4 PUSH2 0x49FF JUMP JUMPDEST PUSH2 0x1A76 JUMP JUMPDEST CALLVALUE DUP1 ISZERO PUSH2 0x86A JUMPI PUSH1 0x0 DUP1 REVERT JUMPDEST POP PUSH2 0x46C PUSH2 0x1AD8 JUMP JUMPDEST CALLVALUE DUP1 ISZERO PUSH2 0x87F JUMPI PUSH1 0x0 DUP1 REVERT JUMPDEST POP PUSH2 0x483 PUSH2 0x1B61 JUMP JUMPDEST CALLVALUE DUP1 ISZERO PUSH2 0x894 JUMPI PUSH1 0x0 DUP1 REVERT JUMPDEST POP PUSH2 0x46C PUSH2 0x8A3 CALLDATASIZE PUSH1 0x4 PUSH2 0x4B42 JUMP JUMPDEST PUSH2 0x1B67 JUMP JUMPDEST CALLVALUE DUP1 ISZERO PUSH2 0x8B4 JUMPI PUSH1 0x0 DUP1 REVERT JUMPDEST POP PUSH2 0x43F PUSH2 0x8C3 CALLDATASIZE PUSH1 0x4 PUSH2 0x49FF JUMP JUMPDEST PUSH2 0x1C65 JUMP JUMPDEST CALLVALUE DUP1 ISZERO PUSH2 0x8D4 JUMPI PUSH1 0x0 DUP1 REVERT JUMPDEST POP PUSH2 0x483 PUSH2 0x1C83 JUMP JUMPDEST CALLVALUE DUP1 ISZERO PUSH2 0x8E9 JUMPI PUSH1 0x0 DUP1 REVERT JUMPDEST POP PUSH2 0x46C PUSH2 0x8F8 CALLDATASIZE PUSH1 0x4 PUSH2 0x4B42 JUMP JUMPDEST PUSH2 0x1C89 JUMP JUMPDEST CALLVALUE DUP1 ISZERO PUSH2 0x909 JUMPI PUSH1 0x0 DUP1 REVERT JUMPDEST POP PUSH2 0x46C PUSH2 0x1D88 JUMP JUMPDEST CALLVALUE DUP1 ISZERO PUSH2 0x91E JUMPI PUSH1 0x0 DUP1 REVERT JUMPDEST POP PUSH2 0x4FC PUSH2 0x2006 JUMP JUMPDEST CALLVALUE DUP1 ISZERO PUSH2 0x933 JUMPI PUSH1 0x0 DUP1 REVERT JUMPDEST POP PUSH2 0x4FC PUSH2 0x2015 JUMP JUMPDEST CALLVALUE DUP1 ISZERO PUSH2 0x948 JUMPI PUSH1 0x0 DUP1 REVERT JUMPDEST POP PUSH2 0x46C PUSH2 0x957 CALLDATASIZE PUSH1 0x4 PUSH2 0x4B8A JUMP JUMPDEST PUSH2 0x2024 JUMP JUMPDEST CALLVALUE DUP1 ISZERO PUSH2 0x968 JUMPI PUSH1 0x0 DUP1 REVERT JUMPDEST POP PUSH2 0x409 PUSH2 0x2147 JUMP JUMPDEST CALLVALUE DUP1 ISZERO PUSH2 0x97D JUMPI PUSH1 0x0 DUP1 REVERT JUMPDEST POP PUSH2 0x46C PUSH2 0x98C CALLDATASIZE PUSH1 0x4 PUSH2 0x4AAF JUMP JUMPDEST PUSH2 0x21A8 JUMP JUMPDEST CALLVALUE DUP1 ISZERO PUSH2 0x99D JUMPI PUSH1 0x0 DUP1 REVERT JUMPDEST POP PUSH2 0x43F PUSH2 0x9AC CALLDATASIZE PUSH1 0x4 PUSH2 0x4AAF JUMP JUMPDEST PUSH2 0x2267 JUMP JUMPDEST CALLVALUE DUP1 ISZERO PUSH2 0x9BD JUMPI PUSH1 0x0 DUP1 REVERT JUMPDEST POP PUSH2 0x43F PUSH2 0x9CC CALLDATASIZE PUSH1 0x4 PUSH2 0x4AAF JUMP JUMPDEST PUSH2 0x22CF JUMP JUMPDEST CALLVALUE DUP1 ISZERO PUSH2 0x9DD JUMPI PUSH1 0x0 DUP1 REVERT JUMPDEST POP PUSH2 0x46C PUSH2 0x9EC CALLDATASIZE PUSH1 0x4 PUSH2 0x4AAF JUMP JUMPDEST PUSH2 0x22E3 JUMP JUMPDEST CALLVALUE DUP1 ISZERO PUSH2 0x9FD JUMPI PUSH1 0x0 DUP1 REVERT JUMPDEST POP PUSH2 0x4FC PUSH2 0x23A6 JUMP JUMPDEST CALLVALUE DUP1 ISZERO PUSH2 0xA12 JUMPI PUSH1 0x0 DUP1 REVERT JUMPDEST POP PUSH2 0x483 PUSH2 0xA21 CALLDATASIZE PUSH1 0x4 PUSH2 0x4BAB JUMP JUMPDEST PUSH2 0x23B5 JUMP JUMPDEST CALLVALUE DUP1 ISZERO PUSH2 0xA32 JUMPI PUSH1 0x0 DUP1 REVERT JUMPDEST POP PUSH2 0x46C PUSH2 0xA41 CALLDATASIZE PUSH1 0x4 PUSH2 0x49FF JUMP JUMPDEST PUSH2 0x2419 JUMP JUMPDEST CALLVALUE DUP1 ISZERO PUSH2 0xA52 JUMPI PUSH1 0x0 DUP1 REVERT JUMPDEST POP PUSH2 0x46C PUSH2 0xA61 CALLDATASIZE PUSH1 0x4 PUSH2 0x49FF JUMP JUMPDEST PUSH2 0x24B5 JUMP JUMPDEST CALLVALUE DUP1 ISZERO PUSH2 0xA72 JUMPI PUSH1 0x0 DUP1 REVERT JUMPDEST POP PUSH2 0x46C PUSH2 0xA81 CALLDATASIZE PUSH1 0x4 PUSH2 0x4B12 JUMP JUMPDEST PUSH2 0x2515 JUMP JUMPDEST CALLVALUE DUP1 ISZERO PUSH2 0xA92 JUMPI PUSH1 0x0 DUP1 REVERT JUMPDEST POP PUSH2 0x46C PUSH2 0xAA1 CALLDATASIZE PUSH1 0x4 PUSH2 0x4B8A JUMP JUMPDEST PUSH2 0x257B JUMP JUMPDEST CALLVALUE DUP1 ISZERO PUSH2 0xAB2 JUMPI PUSH1 0x0 DUP1 REVERT JUMPDEST POP PUSH2 0x483 PUSH2 0xAC1 CALLDATASIZE PUSH1 0x4 PUSH2 0x4A37 JUMP JUMPDEST PUSH2 0x269E JUMP JUMPDEST CALLVALUE DUP1 ISZERO PUSH2 0xAD2 JUMPI PUSH1 0x0 DUP1 REVERT JUMPDEST POP PUSH2 0xADB PUSH2 0x26C9 JUMP JUMPDEST PUSH1 0x40 MLOAD PUSH2 0x416 SWAP8 SWAP7 SWAP6 SWAP5 SWAP4 SWAP3 SWAP2 SWAP1 PUSH2 0x5514 JUMP JUMPDEST CALLVALUE DUP1 ISZERO PUSH2 0xAFA JUMPI PUSH1 0x0 DUP1 REVERT JUMPDEST POP PUSH2 0x46C PUSH2 0xB09 CALLDATASIZE PUSH1 0x4 PUSH2 0x49FF JUMP JUMPDEST PUSH2 0x26EE JUMP JUMPDEST CALLVALUE DUP1 ISZERO PUSH2 0xB1A JUMPI PUSH1 0x0 DUP1 REVERT JUMPDEST POP PUSH2 0x46C PUSH2 0xB29 CALLDATASIZE PUSH1 0x4 PUSH2 0x4B8A JUMP JUMPDEST PUSH2 0x274E JUMP JUMPDEST CALLVALUE DUP1 ISZERO PUSH2 0xB3A JUMPI PUSH1 0x0 DUP1 REVERT JUMPDEST POP PUSH2 0x46C PUSH2 0xB49 CALLDATASIZE PUSH1 0x4 PUSH2 0x49FF JUMP JUMPDEST PUSH2 0x286F JUMP JUMPDEST CALLVALUE DUP1 ISZERO PUSH2 0xB5A JUMPI PUSH1 0x0 DUP1 REVERT JUMPDEST POP PUSH2 0x46C PUSH2 0xB69 CALLDATASIZE PUSH1 0x4 PUSH2 0x49FF JUMP JUMPDEST PUSH2 0x2930 JUMP JUMPDEST CALLVALUE DUP1 ISZERO PUSH2 0xB7A JUMPI PUSH1 0x0 DUP1 REVERT JUMPDEST POP PUSH2 0x483 PUSH2 0x299E JUMP JUMPDEST CALLVALUE DUP1 ISZERO PUSH2 0xB8F JUMPI PUSH1 0x0 DUP1 REVERT JUMPDEST POP PUSH2 0x43F PUSH2 0xB9E CALLDATASIZE PUSH1 0x4 PUSH2 0x49FF JUMP JUMPDEST PUSH2 0x29A2 JUMP JUMPDEST CALLVALUE DUP1 ISZERO PUSH2 0xBAF JUMPI PUSH1 0x0 DUP1 REVERT JUMPDEST POP PUSH2 0x46C PUSH2 0xBBE CALLDATASIZE PUSH1 0x4 PUSH2 0x4B12 JUMP JUMPDEST PUSH2 0x29C0 JUMP JUMPDEST PUSH1 0x71 DUP1 SLOAD PUSH1 0x40 DUP1 MLOAD PUSH1 0x20 PUSH1 0x1F PUSH1 0x2 PUSH1 0x0 NOT PUSH2 0x100 PUSH1 0x1 DUP9 AND ISZERO MUL ADD SWAP1 SWAP6 AND SWAP5 SWAP1 SWAP5 DIV SWAP4 DUP5 ADD DUP2 SWAP1 DIV DUP2 MUL DUP3 ADD DUP2 ADD SWAP1 SWAP3 MSTORE DUP3 DUP2 MSTORE PUSH1 0x60 SWAP4 SWAP1 SWAP3 SWAP1 SWAP2 DUP4 ADD DUP3 DUP3 DUP1 ISZERO PUSH2 0xC4F JUMPI DUP1 PUSH1 0x1F LT PUSH2 0xC24 JUMPI PUSH2 0x100 DUP1 DUP4 SLOAD DIV MUL DUP4 MSTORE SWAP2 PUSH1 0x20 ADD SWAP2 PUSH2 0xC4F JUMP JUMPDEST DUP3 ADD SWAP2 SWAP1 PUSH1 0x0 MSTORE PUSH1 0x20 PUSH1 0x0 KECCAK256 SWAP1 JUMPDEST DUP2 SLOAD DUP2 MSTORE SWAP1 PUSH1 0x1 ADD SWAP1 PUSH1 0x20 ADD DUP1 DUP4 GT PUSH2 0xC32 JUMPI DUP3 SWAP1 SUB PUSH1 0x1F AND DUP3 ADD SWAP2 JUMPDEST POP POP POP POP POP SWAP1 POP SWAP1 JUMP JUMPDEST PUSH1 0x0 PUSH2 0xC6D PUSH2 0xC66 PUSH2 0x2A04 JUMP JUMPDEST DUP5 DUP5 PUSH2 0x2A08 JUMP JUMPDEST POP PUSH1 0x1 JUMPDEST SWAP3 SWAP2 POP POP JUMP JUMPDEST PUSH2 0xC7F PUSH2 0x2A04 JUMP JUMPDEST PUSH1 0x1 PUSH1 0x1 PUSH1 0xA0 SHL SUB AND PUSH2 0xC90 PUSH2 0x2006 JUMP JUMPDEST PUSH1 0x1 PUSH1 0x1 PUSH1 0xA0 SHL SUB AND EQ PUSH2 0xCBF JUMPI PUSH1 0x40 MLOAD PUSH3 0x461BCD PUSH1 0xE5 SHL DUP2 MSTORE PUSH1 0x4 ADD PUSH2 0xCB6 SWAP1 PUSH2 0x51CB JUMP JUMPDEST PUSH1 0x40 MLOAD DUP1 SWAP2 SUB SWAP1 REVERT JUMPDEST PUSH1 0x1 PUSH1 0x1 PUSH1 0xA0 SHL SUB DUP2 AND PUSH2 0xCE5 JUMPI PUSH1 0x40 MLOAD PUSH3 0x461BCD PUSH1 0xE5 SHL DUP2 MSTORE PUSH1 0x4 ADD PUSH2 0xCB6 SWAP1 PUSH2 0x5200 JUMP JUMPDEST PUSH1 0x1 PUSH1 0x1 PUSH1 0xA0 SHL SUB DUP2 AND PUSH1 0x0 SWAP1 DUP2 MSTORE PUSH1 0x6B PUSH1 0x20 MSTORE PUSH1 0x40 SWAP1 KECCAK256 SLOAD PUSH2 0xD1A JUMPI PUSH1 0x40 MLOAD PUSH3 0x461BCD PUSH1 0xE5 SHL DUP2 MSTORE PUSH1 0x4 ADD PUSH2 0xCB6 SWAP1 PUSH2 0x5394 JUMP JUMPDEST PUSH1 0x1 PUSH1 0x1 PUSH1 0xA0 SHL SUB AND PUSH1 0x0 SWAP1 DUP2 MSTORE PUSH1 0x6B PUSH1 0x20 MSTORE PUSH1 0x40 DUP2 KECCAK256 SSTORE JUMP JUMPDEST PUSH1 0x89 SLOAD SWAP1 JUMP JUMPDEST PUSH1 0x6F SLOAD SWAP1 JUMP JUMPDEST PUSH2 0xD48 PUSH2 0x2A04 JUMP JUMPDEST PUSH1 0x1 PUSH1 0x1 PUSH1 0xA0 SHL SUB AND PUSH2 0xD59 PUSH2 0x2006 JUMP JUMPDEST PUSH1 0x1 PUSH1 0x1 PUSH1 0xA0 SHL SUB AND EQ PUSH2 0xD7F JUMPI PUSH1 0x40 MLOAD PUSH3 0x461BCD PUSH1 0xE5 SHL DUP2 MSTORE PUSH1 0x4 ADD PUSH2 0xCB6 SWAP1 PUSH2 0x51CB JUMP JUMPDEST PUSH1 0x8F DUP1 SLOAD PUSH1 0xFF PUSH1 0xA8 SHL NOT AND SWAP1 SSTORE PUSH1 0x95 DUP1 SLOAD PUSH2 0xFF00 NOT AND PUSH2 0x100 OR SWAP1 SSTORE JUMP JUMPDEST PUSH2 0xDA5 PUSH2 0x489B JUMP JUMPDEST PUSH1 0x89 SLOAD DUP3 SWAP1 DUP2 LT PUSH2 0xDC8 JUMPI PUSH1 0x40 MLOAD PUSH3 0x461BCD PUSH1 0xE5 SHL DUP2 MSTORE PUSH1 0x4 ADD PUSH2 0xCB6 SWAP1 PUSH2 0x511C JUMP JUMPDEST PUSH1 0x89 DUP4 DUP2 SLOAD DUP2 LT PUSH2 0xDD5 JUMPI INVALID JUMPDEST PUSH1 0x0 SWAP2 DUP3 MSTORE PUSH1 0x20 SWAP2 DUP3 SWAP1 KECCAK256 PUSH1 0x40 DUP1 MLOAD PUSH1 0xE0 DUP2 ADD DUP3 MSTORE PUSH1 0x7 SWAP1 SWAP4 MUL SWAP1 SWAP2 ADD DUP1 SLOAD DUP4 MSTORE PUSH1 0x1 DUP2 ADD SLOAD SWAP4 DUP4 ADD SWAP4 SWAP1 SWAP4 MSTORE PUSH1 0x2 DUP4 ADD SLOAD SWAP1 DUP3 ADD MSTORE PUSH1 0x3 DUP3 ADD SLOAD PUSH1 0x60 DUP3 ADD MSTORE PUSH1 0x4 DUP3 ADD SLOAD PUSH1 0x80 DUP3 ADD MSTORE PUSH1 0x5 DUP3 ADD SLOAD PUSH1 0x1 PUSH1 0x1 PUSH1 0xA0 SHL SUB SWAP1 DUP2 AND PUSH1 0xA0 DUP4 ADD MSTORE PUSH1 0x6 SWAP1 SWAP3 ADD SLOAD SWAP1 SWAP2 AND PUSH1 0xC0 DUP3 ADD MSTORE SWAP2 POP POP SWAP2 SWAP1 POP JUMP JUMPDEST PUSH1 0x8A SLOAD PUSH1 0x1 PUSH1 0x1 PUSH1 0xA0 SHL SUB AND DUP2 JUMP JUMPDEST PUSH1 0x6D SLOAD SWAP1 JUMP JUMPDEST PUSH2 0xE67 PUSH2 0x2A04 JUMP JUMPDEST PUSH1 0x1 PUSH1 0x1 PUSH1 0xA0 SHL SUB AND PUSH2 0xE78 PUSH2 0x2006 JUMP JUMPDEST PUSH1 0x1 PUSH1 0x1 PUSH1 0xA0 SHL SUB AND EQ PUSH2 0xE9E JUMPI PUSH1 0x40 MLOAD PUSH3 0x461BCD PUSH1 0xE5 SHL DUP2 MSTORE PUSH1 0x4 ADD PUSH2 0xCB6 SWAP1 PUSH2 0x51CB JUMP JUMPDEST PUSH1 0x89 SLOAD DUP2 SWAP1 DUP2 LT PUSH2 0xEC1 JUMPI PUSH1 0x40 MLOAD PUSH3 0x461BCD PUSH1 0xE5 SHL DUP2 MSTORE PUSH1 0x4 ADD PUSH2 0xCB6 SWAP1 PUSH2 0x511C JUMP JUMPDEST DUP3 PUSH1 0x40 MLOAD DUP1 PUSH1 0x60 ADD PUSH1 0x40 MSTORE DUP1 PUSH1 0x2A DUP2 MSTORE PUSH1 0x20 ADD PUSH2 0x56AE PUSH1 0x2A SWAP2 CODECOPY PUSH1 0x1 PUSH1 0x1 PUSH1 0xA0 SHL SUB DUP3 AND PUSH1 0x0 SWAP1 DUP2 MSTORE PUSH1 0x6A PUSH1 0x20 MSTORE PUSH1 0x40 SWAP1 KECCAK256 SLOAD DUP2 SWAP1 PUSH1 0xFF AND ISZERO PUSH2 0xF17 JUMPI PUSH1 0x40 MLOAD PUSH3 0x461BCD PUSH1 0xE5 SHL DUP2 MSTORE PUSH1 0x4 ADD PUSH2 0xCB6 SWAP2 SWAP1 PUSH2 0x4DA1 JUMP JUMPDEST POP PUSH1 0x1 PUSH1 0x1 PUSH1 0xA0 SHL SUB DUP6 AND PUSH2 0xF3E JUMPI PUSH1 0x40 MLOAD PUSH3 0x461BCD PUSH1 0xE5 SHL DUP2 MSTORE PUSH1 0x4 ADD PUSH2 0xCB6 SWAP1 PUSH2 0x5200 JUMP JUMPDEST POP POP POP PUSH1 0x1 PUSH1 0x1 PUSH1 0xA0 SHL SUB SWAP1 SWAP2 AND PUSH1 0x0 SWAP1 DUP2 MSTORE PUSH1 0x6B PUSH1 0x20 MSTORE PUSH1 0x40 SWAP1 KECCAK256 SSTORE JUMP JUMPDEST PUSH1 0x0 PUSH2 0xF6A DUP5 DUP5 DUP5 PUSH2 0x2B6E JUMP JUMPDEST PUSH2 0xFDA DUP5 PUSH2 0xF76 PUSH2 0x2A04 JUMP JUMPDEST PUSH2 0xFD5 DUP6 PUSH1 0x40 MLOAD DUP1 PUSH1 0x60 ADD PUSH1 0x40 MSTORE DUP1 PUSH1 0x28 DUP2 MSTORE PUSH1 0x20 ADD PUSH2 0x55CF PUSH1 0x28 SWAP2 CODECOPY PUSH1 0x1 PUSH1 0x1 PUSH1 0xA0 SHL SUB DUP11 AND PUSH1 0x0 SWAP1 DUP2 MSTORE PUSH1 0x67 PUSH1 0x20 MSTORE PUSH1 0x40 DUP2 KECCAK256 SWAP1 PUSH2 0xFB4 PUSH2 0x2A04 JUMP JUMPDEST PUSH1 0x1 PUSH1 0x1 PUSH1 0xA0 SHL SUB AND DUP2 MSTORE PUSH1 0x20 DUP2 ADD SWAP2 SWAP1 SWAP2 MSTORE PUSH1 0x40 ADD PUSH1 0x0 KECCAK256 SLOAD SWAP2 SWAP1 PUSH2 0x2F81 JUMP JUMPDEST PUSH2 0x2A08 JUMP JUMPDEST POP PUSH1 0x1 JUMPDEST SWAP4 SWAP3 POP POP POP JUMP JUMPDEST PUSH1 0x0 PUSH1 0x6E SLOAD DUP3 GT ISZERO PUSH2 0x1009 JUMPI PUSH1 0x40 MLOAD PUSH3 0x461BCD PUSH1 0xE5 SHL DUP2 MSTORE PUSH1 0x4 ADD PUSH2 0xCB6 SWAP1 PUSH2 0x4E7D JUMP JUMPDEST PUSH1 0x0 PUSH2 0x1013 PUSH2 0x2FAD JUMP JUMPDEST SWAP1 POP PUSH2 0x101F DUP4 DUP3 PUSH2 0x2FD0 JUMP JUMPDEST SWAP2 POP POP JUMPDEST SWAP2 SWAP1 POP JUMP JUMPDEST PUSH2 0x1030 PUSH2 0x489B JUMP JUMPDEST PUSH1 0x1 PUSH1 0x1 PUSH1 0xA0 SHL SUB DUP3 AND PUSH1 0x0 SWAP1 DUP2 MSTORE PUSH1 0x6B PUSH1 0x20 MSTORE PUSH1 0x40 SWAP1 KECCAK256 SLOAD PUSH1 0x89 DUP1 SLOAD SWAP1 SWAP2 SWAP1 DUP2 LT PUSH2 0x1058 JUMPI INVALID JUMPDEST PUSH1 0x0 SWAP2 DUP3 MSTORE PUSH1 0x20 SWAP2 DUP3 SWAP1 KECCAK256 PUSH1 0x40 DUP1 MLOAD PUSH1 0xE0 DUP2 ADD DUP3 MSTORE PUSH1 0x7 SWAP1 SWAP4 MUL SWAP1 SWAP2 ADD DUP1 SLOAD DUP4 MSTORE PUSH1 0x1 DUP2 ADD SLOAD SWAP4 DUP4 ADD SWAP4 SWAP1 SWAP4 MSTORE PUSH1 0x2 DUP4 ADD SLOAD SWAP1 DUP3 ADD MSTORE PUSH1 0x3 DUP3 ADD SLOAD PUSH1 0x60 DUP3 ADD MSTORE PUSH1 0x4 DUP3 ADD SLOAD PUSH1 0x80 DUP3 ADD MSTORE PUSH1 0x5 DUP3 ADD SLOAD PUSH1 0x1 PUSH1 0x1 PUSH1 0xA0 SHL SUB SWAP1 DUP2 AND PUSH1 0xA0 DUP4 ADD MSTORE PUSH1 0x6 SWAP1 SWAP3 ADD SLOAD SWAP1 SWAP2 AND PUSH1 0xC0 DUP3 ADD MSTORE SWAP1 POP SWAP2 SWAP1 POP JUMP JUMPDEST PUSH2 0x10D4 PUSH2 0x2A04 JUMP JUMPDEST PUSH1 0x1 PUSH1 0x1 PUSH1 0xA0 SHL SUB AND PUSH2 0x10E5 PUSH2 0x2006 JUMP JUMPDEST PUSH1 0x1 PUSH1 0x1 PUSH1 0xA0 SHL SUB AND EQ PUSH2 0x110B JUMPI PUSH1 0x40 MLOAD PUSH3 0x461BCD PUSH1 0xE5 SHL DUP2 MSTORE PUSH1 0x4 ADD PUSH2 0xCB6 SWAP1 PUSH2 0x51CB JUMP JUMPDEST PUSH1 0x89 SLOAD DUP3 SWAP1 DUP2 LT PUSH2 0x112E JUMPI PUSH1 0x40 MLOAD PUSH3 0x461BCD PUSH1 0xE5 SHL DUP2 MSTORE PUSH1 0x4 ADD PUSH2 0xCB6 SWAP1 PUSH2 0x511C JUMP JUMPDEST PUSH2 0x1136 PUSH2 0x489B JUMP JUMPDEST PUSH1 0x89 DUP5 DUP2 SLOAD DUP2 LT PUSH2 0x1143 JUMPI INVALID JUMPDEST PUSH1 0x0 SWAP2 DUP3 MSTORE PUSH1 0x20 SWAP2 DUP3 SWAP1 KECCAK256 PUSH1 0x40 DUP1 MLOAD PUSH1 0xE0 DUP2 ADD DUP3 MSTORE PUSH1 0x7 SWAP1 SWAP4 MUL SWAP1 SWAP2 ADD DUP1 SLOAD DUP4 MSTORE PUSH1 0x1 DUP2 ADD SLOAD SWAP4 DUP4 ADD SWAP4 SWAP1 SWAP4 MSTORE PUSH1 0x2 DUP4 ADD SLOAD SWAP1 DUP3 ADD DUP2 SWAP1 MSTORE PUSH1 0x3 DUP4 ADD SLOAD PUSH1 0x60 DUP4 ADD MSTORE PUSH1 0x4 DUP4 ADD SLOAD PUSH1 0x80 DUP4 ADD MSTORE PUSH1 0x5 DUP4 ADD SLOAD PUSH1 0x1 PUSH1 0x1 PUSH1 0xA0 SHL SUB SWAP1 DUP2 AND PUSH1 0xA0 DUP5 ADD MSTORE PUSH1 0x6 SWAP1 SWAP4 ADD SLOAD SWAP1 SWAP3 AND PUSH1 0xC0 DUP3 ADD MSTORE SWAP2 POP PUSH2 0x11C0 SWAP1 DUP3 SWAP1 DUP6 PUSH2 0x3002 JUMP JUMPDEST DUP3 PUSH1 0x89 DUP6 DUP2 SLOAD DUP2 LT PUSH2 0x11CE JUMPI INVALID JUMPDEST PUSH1 0x0 SWAP2 DUP3 MSTORE PUSH1 0x20 SWAP1 SWAP2 KECCAK256 PUSH1 0x2 PUSH1 0x7 SWAP1 SWAP3 MUL ADD ADD SSTORE DUP4 PUSH2 0x11ED JUMPI PUSH1 0x76 DUP4 SWAP1 SSTORE JUMPDEST POP POP POP POP JUMP JUMPDEST PUSH1 0x73 SLOAD PUSH1 0xFF AND SWAP1 JUMP JUMPDEST PUSH2 0x1204 PUSH2 0x2A04 JUMP JUMPDEST PUSH1 0x1 PUSH1 0x1 PUSH1 0xA0 SHL SUB AND PUSH2 0x1215 PUSH2 0x2006 JUMP JUMPDEST PUSH1 0x1 PUSH1 0x1 PUSH1 0xA0 SHL SUB AND EQ PUSH2 0x123B JUMPI PUSH1 0x40 MLOAD PUSH3 0x461BCD PUSH1 0xE5 SHL DUP2 MSTORE PUSH1 0x4 ADD PUSH2 0xCB6 SWAP1 PUSH2 0x51CB JUMP JUMPDEST PUSH1 0x95 DUP1 SLOAD PUSH2 0xFF00 NOT AND PUSH2 0x100 DUP4 ISZERO ISZERO MUL OR SWAP1 SSTORE PUSH1 0x40 MLOAD PUSH31 0xF279EA7539CC7CC5311702E24242FE836F7F94E8E329BE09530ADE3DD254C3 SWAP1 PUSH2 0x127D SWAP1 DUP4 SWAP1 PUSH2 0x4D61 JUMP JUMPDEST PUSH1 0x40 MLOAD DUP1 SWAP2 SUB SWAP1 LOG1 POP JUMP JUMPDEST PUSH2 0x1290 PUSH2 0x2A04 JUMP JUMPDEST PUSH1 0x1 PUSH1 0x1 PUSH1 0xA0 SHL SUB AND PUSH2 0x12A1 PUSH2 0x2006 JUMP JUMPDEST PUSH1 0x1 PUSH1 0x1 PUSH1 0xA0 SHL SUB AND EQ PUSH2 0x12C7 JUMPI PUSH1 0x40 MLOAD PUSH3 0x461BCD PUSH1 0xE5 SHL DUP2 MSTORE PUSH1 0x4 ADD PUSH2 0xCB6 SWAP1 PUSH2 0x51CB JUMP JUMPDEST PUSH1 0x1 PUSH1 0x1 PUSH1 0xA0 SHL SUB DUP2 AND PUSH1 0x0 SWAP1 DUP2 MSTORE PUSH1 0x69 PUSH1 0x20 MSTORE PUSH1 0x40 SWAP1 KECCAK256 SLOAD PUSH1 0xFF AND PUSH2 0x12FF JUMPI PUSH1 0x40 MLOAD PUSH3 0x461BCD PUSH1 0xE5 SHL DUP2 MSTORE PUSH1 0x4 ADD PUSH2 0xCB6 SWAP1 PUSH2 0x4FB2 JUMP JUMPDEST PUSH1 0x0 JUMPDEST PUSH1 0x6C SLOAD DUP2 LT ISZERO PUSH2 0x13F7 JUMPI DUP2 PUSH1 0x1 PUSH1 0x1 PUSH1 0xA0 SHL SUB AND PUSH1 0x6C DUP3 DUP2 SLOAD DUP2 LT PUSH2 0x1323 JUMPI INVALID JUMPDEST PUSH1 0x0 SWAP2 DUP3 MSTORE PUSH1 0x20 SWAP1 SWAP2 KECCAK256 ADD SLOAD PUSH1 0x1 PUSH1 0x1 PUSH1 0xA0 SHL SUB AND EQ ISZERO PUSH2 0x13EF JUMPI PUSH1 0x6C DUP1 SLOAD PUSH1 0x0 NOT DUP2 ADD SWAP1 DUP2 LT PUSH2 0x1350 JUMPI INVALID JUMPDEST PUSH1 0x0 SWAP2 DUP3 MSTORE PUSH1 0x20 SWAP1 SWAP2 KECCAK256 ADD SLOAD PUSH1 0x6C DUP1 SLOAD PUSH1 0x1 PUSH1 0x1 PUSH1 0xA0 SHL SUB SWAP1 SWAP3 AND SWAP2 DUP4 SWAP1 DUP2 LT PUSH2 0x1376 JUMPI INVALID JUMPDEST PUSH1 0x0 SWAP2 DUP3 MSTORE PUSH1 0x20 DUP1 DUP4 KECCAK256 SWAP2 SWAP1 SWAP2 ADD DUP1 SLOAD PUSH1 0x1 PUSH1 0x1 PUSH1 0xA0 SHL SUB NOT AND PUSH1 0x1 PUSH1 0x1 PUSH1 0xA0 SHL SUB SWAP5 DUP6 AND OR SWAP1 SSTORE SWAP2 DUP5 AND DUP2 MSTORE PUSH1 0x66 DUP3 MSTORE PUSH1 0x40 DUP1 DUP3 KECCAK256 DUP3 SWAP1 SSTORE PUSH1 0x69 SWAP1 SWAP3 MSTORE KECCAK256 DUP1 SLOAD PUSH1 0xFF NOT AND SWAP1 SSTORE PUSH1 0x6C DUP1 SLOAD DUP1 PUSH2 0x13C8 JUMPI INVALID JUMPDEST PUSH1 0x0 DUP3 DUP2 MSTORE PUSH1 0x20 SWAP1 KECCAK256 DUP2 ADD PUSH1 0x0 NOT SWAP1 DUP2 ADD DUP1 SLOAD PUSH1 0x1 PUSH1 0x1 PUSH1 0xA0 SHL SUB NOT AND SWAP1 SSTORE ADD SWAP1 SSTORE PUSH2 0x13F7 JUMP JUMPDEST PUSH1 0x1 ADD PUSH2 0x1302 JUMP JUMPDEST POP POP JUMP JUMPDEST PUSH1 0x0 PUSH2 0xC6D PUSH2 0x1408 PUSH2 0x2A04 JUMP JUMPDEST DUP5 PUSH2 0xFD5 DUP6 PUSH1 0x67 PUSH1 0x0 PUSH2 0x1419 PUSH2 0x2A04 JUMP JUMPDEST PUSH1 0x1 PUSH1 0x1 PUSH1 0xA0 SHL SUB SWAP1 DUP2 AND DUP3 MSTORE PUSH1 0x20 DUP1 DUP4 ADD SWAP4 SWAP1 SWAP4 MSTORE PUSH1 0x40 SWAP2 DUP3 ADD PUSH1 0x0 SWAP1 DUP2 KECCAK256 SWAP2 DUP13 AND DUP2 MSTORE SWAP3 MSTORE SWAP1 KECCAK256 SLOAD SWAP1 PUSH2 0x306F JUMP JUMPDEST PUSH2 0x1451 PUSH2 0x2A04 JUMP JUMPDEST PUSH1 0x1 PUSH1 0x1 PUSH1 0xA0 SHL SUB AND PUSH2 0x1462 PUSH2 0x2006 JUMP JUMPDEST PUSH1 0x1 PUSH1 0x1 PUSH1 0xA0 SHL SUB AND EQ PUSH2 0x1488 JUMPI PUSH1 0x40 MLOAD PUSH3 0x461BCD PUSH1 0xE5 SHL DUP2 MSTORE PUSH1 0x4 ADD PUSH2 0xCB6 SWAP1 PUSH2 0x51CB JUMP JUMPDEST PUSH1 0x89 SLOAD DUP3 SWAP1 DUP2 LT PUSH2 0x14AB JUMPI PUSH1 0x40 MLOAD PUSH3 0x461BCD PUSH1 0xE5 SHL DUP2 MSTORE PUSH1 0x4 ADD PUSH2 0xCB6 SWAP1 PUSH2 0x511C JUMP JUMPDEST PUSH2 0x14B3 PUSH2 0x489B JUMP JUMPDEST PUSH1 0x89 DUP5 DUP2 SLOAD DUP2 LT PUSH2 0x14C0 JUMPI INVALID JUMPDEST PUSH1 0x0 SWAP2 DUP3 MSTORE PUSH1 0x20 SWAP2 DUP3 SWAP1 KECCAK256 PUSH1 0x40 DUP1 MLOAD PUSH1 0xE0 DUP2 ADD DUP3 MSTORE PUSH1 0x7 SWAP1 SWAP4 MUL SWAP1 SWAP2 ADD DUP1 SLOAD DUP1 DUP5 MSTORE PUSH1 0x1 DUP3 ADD SLOAD SWAP5 DUP5 ADD SWAP5 SWAP1 SWAP5 MSTORE PUSH1 0x2 DUP2 ADD SLOAD SWAP2 DUP4 ADD SWAP2 SWAP1 SWAP2 MSTORE PUSH1 0x3 DUP2 ADD SLOAD PUSH1 0x60 DUP4 ADD MSTORE PUSH1 0x4 DUP2 ADD SLOAD PUSH1 0x80 DUP4 ADD MSTORE PUSH1 0x5 DUP2 ADD SLOAD PUSH1 0x1 PUSH1 0x1 PUSH1 0xA0 SHL SUB SWAP1 DUP2 AND PUSH1 0xA0 DUP5 ADD MSTORE PUSH1 0x6 SWAP1 SWAP2 ADD SLOAD AND PUSH1 0xC0 DUP3 ADD MSTORE SWAP2 POP PUSH2 0x153D SWAP1 DUP3 SWAP1 DUP6 PUSH2 0x3002 JUMP JUMPDEST DUP3 PUSH1 0x89 DUP6 DUP2 SLOAD DUP2 LT PUSH2 0x154B JUMPI INVALID JUMPDEST PUSH1 0x0 SWAP2 DUP3 MSTORE PUSH1 0x20 SWAP1 SWAP2 KECCAK256 PUSH1 0x7 SWAP1 SWAP2 MUL ADD SSTORE DUP4 PUSH2 0x11ED JUMPI POP POP PUSH1 0x74 SSTORE POP JUMP JUMPDEST PUSH1 0x1 PUSH1 0x1 PUSH1 0xA0 SHL SUB AND PUSH1 0x0 SWAP1 DUP2 MSTORE PUSH1 0x6B PUSH1 0x20 MSTORE PUSH1 0x40 SWAP1 KECCAK256 SLOAD ISZERO ISZERO SWAP1 JUMP JUMPDEST PUSH2 0x158E PUSH2 0x2A04 JUMP JUMPDEST PUSH1 0x1 PUSH1 0x1 PUSH1 0xA0 SHL SUB AND PUSH2 0x159F PUSH2 0x2006 JUMP JUMPDEST PUSH1 0x1 PUSH1 0x1 PUSH1 0xA0 SHL SUB AND EQ PUSH2 0x15C5 JUMPI PUSH1 0x40 MLOAD PUSH3 0x461BCD PUSH1 0xE5 SHL DUP2 MSTORE PUSH1 0x4 ADD PUSH2 0xCB6 SWAP1 PUSH2 0x51CB JUMP JUMPDEST PUSH1 0x8A DUP1 SLOAD PUSH1 0x1 PUSH1 0x1 PUSH1 0xA0 SHL SUB DUP1 DUP6 AND PUSH1 0x1 PUSH1 0x1 PUSH1 0xA0 SHL SUB NOT SWAP3 DUP4 AND OR SWAP3 DUP4 SWAP1 SSTORE PUSH1 0x8B DUP1 SLOAD DUP6 DUP4 AND SWAP4 AND SWAP3 SWAP1 SWAP3 OR SWAP1 SWAP2 SSTORE PUSH1 0x40 DUP1 MLOAD PUSH4 0x15AB88C9 PUSH1 0xE3 SHL DUP2 MSTORE SWAP1 MLOAD SWAP3 SWAP1 SWAP2 AND SWAP2 PUSH4 0xAD5C4648 SWAP2 PUSH1 0x4 DUP1 DUP3 ADD SWAP3 PUSH1 0x20 SWAP3 SWAP1 SWAP2 SWAP1 DUP3 SWAP1 SUB ADD DUP2 DUP7 DUP1 EXTCODESIZE ISZERO DUP1 ISZERO PUSH2 0x1630 JUMPI PUSH1 0x0 DUP1 REVERT JUMPDEST POP GAS STATICCALL ISZERO DUP1 ISZERO PUSH2 0x1644 JUMPI RETURNDATASIZE PUSH1 0x0 DUP1 RETURNDATACOPY RETURNDATASIZE PUSH1 0x0 REVERT JUMPDEST POP POP POP POP PUSH1 0x40 MLOAD RETURNDATASIZE PUSH1 0x1F NOT PUSH1 0x1F DUP3 ADD AND DUP3 ADD DUP1 PUSH1 0x40 MSTORE POP DUP2 ADD SWAP1 PUSH2 0x1668 SWAP2 SWAP1 PUSH2 0x4A1B JUMP JUMPDEST PUSH1 0x8C DUP1 SLOAD PUSH1 0x1 PUSH1 0x1 PUSH1 0xA0 SHL SUB NOT AND PUSH1 0x1 PUSH1 0x1 PUSH1 0xA0 SHL SUB SWAP3 SWAP1 SWAP3 AND SWAP2 SWAP1 SWAP2 OR SWAP1 SSTORE POP POP JUMP JUMPDEST PUSH2 0x1694 PUSH2 0x2A04 JUMP JUMPDEST PUSH1 0x1 PUSH1 0x1 PUSH1 0xA0 SHL SUB AND PUSH2 0x16A5 PUSH2 0x2006 JUMP JUMPDEST PUSH1 0x1 PUSH1 0x1 PUSH1 0xA0 SHL SUB AND EQ PUSH2 0x16CB JUMPI PUSH1 0x40 MLOAD PUSH3 0x461BCD PUSH1 0xE5 SHL DUP2 MSTORE PUSH1 0x4 ADD PUSH2 0xCB6 SWAP1 PUSH2 0x51CB JUMP JUMPDEST PUSH1 0x1 PUSH1 0x1 PUSH1 0xA0 SHL SUB AND PUSH1 0x0 SWAP1 DUP2 MSTORE PUSH1 0x68 PUSH1 0x20 MSTORE PUSH1 0x40 SWAP1 KECCAK256 DUP1 SLOAD PUSH1 0xFF NOT AND PUSH1 0x1 OR SWAP1 SSTORE JUMP JUMPDEST PUSH1 0x0 PUSH2 0xFDE DUP4 PUSH1 0x0 DUP5 PUSH2 0x23B5 JUMP JUMPDEST PUSH2 0x1705 PUSH2 0x2A04 JUMP JUMPDEST PUSH1 0x1 PUSH1 0x1 PUSH1 0xA0 SHL SUB AND PUSH2 0x1716 PUSH2 0x2006 JUMP JUMPDEST PUSH1 0x1 PUSH1 0x1 PUSH1 0xA0 SHL SUB AND EQ PUSH2 0x173C JUMPI PUSH1 0x40 MLOAD PUSH3 0x461BCD PUSH1 0xE5 SHL DUP2 MSTORE PUSH1 0x4 ADD PUSH2 0xCB6 SWAP1 PUSH2 0x51CB JUMP JUMPDEST PUSH1 0x40 MLOAD CALLER SWAP1 DUP3 ISZERO PUSH2 0x8FC MUL SWAP1 DUP4 SWAP1 PUSH1 0x0 DUP2 DUP2 DUP2 DUP6 DUP9 DUP9 CALL SWAP4 POP POP POP POP ISZERO DUP1 ISZERO PUSH2 0x13F7 JUMPI RETURNDATASIZE PUSH1 0x0 DUP1 RETURNDATACOPY RETURNDATASIZE PUSH1 0x0 REVERT JUMPDEST PUSH2 0x1771 PUSH2 0x2A04 JUMP JUMPDEST PUSH1 0x1 PUSH1 0x1 PUSH1 0xA0 SHL SUB AND PUSH2 0x1782 PUSH2 0x2006 JUMP JUMPDEST PUSH1 0x1 PUSH1 0x1 PUSH1 0xA0 SHL SUB AND EQ PUSH2 0x17A8 JUMPI PUSH1 0x40 MLOAD PUSH3 0x461BCD PUSH1 0xE5 SHL DUP2 MSTORE PUSH1 0x4 ADD PUSH2 0xCB6 SWAP1 PUSH2 0x51CB JUMP JUMPDEST PUSH1 0x8D DUP1 SLOAD PUSH1 0x1 PUSH1 0x1 PUSH1 0xA0 SHL SUB NOT AND PUSH1 0x1 PUSH1 0x1 PUSH1 0xA0 SHL SUB SWAP3 SWAP1 SWAP3 AND SWAP2 SWAP1 SWAP2 OR SWAP1 SSTORE JUMP JUMPDEST PUSH1 0x8B SLOAD PUSH1 0x1 PUSH1 0x1 PUSH1 0xA0 SHL SUB AND DUP2 JUMP JUMPDEST PUSH1 0x8F SLOAD PUSH1 0x1 PUSH1 0xA8 SHL SWAP1 DIV PUSH1 0xFF AND DUP2 JUMP JUMPDEST PUSH2 0x17F1 PUSH2 0x2A04 JUMP JUMPDEST PUSH1 0x1 PUSH1 0x1 PUSH1 0xA0 SHL SUB AND PUSH2 0x1802 PUSH2 0x2006 JUMP JUMPDEST PUSH1 0x1 PUSH1 0x1 PUSH1 0xA0 SHL SUB AND EQ PUSH2 0x1828 JUMPI PUSH1 0x40 MLOAD PUSH3 0x461BCD PUSH1 0xE5 SHL DUP2 MSTORE PUSH1 0x4 ADD PUSH2 0xCB6 SWAP1 PUSH2 0x51CB JUMP JUMPDEST PUSH2 0x1837 DUP8 DUP8 DUP8 DUP8 DUP8 DUP8 DUP8 PUSH2 0x3094 JUMP JUMPDEST POP POP POP POP POP POP POP POP JUMP JUMPDEST PUSH2 0x1849 PUSH2 0x2A04 JUMP JUMPDEST PUSH1 0x1 PUSH1 0x1 PUSH1 0xA0 SHL SUB AND PUSH2 0x185A PUSH2 0x2006 JUMP JUMPDEST PUSH1 0x1 PUSH1 0x1 PUSH1 0xA0 SHL SUB AND EQ PUSH2 0x1880 JUMPI PUSH1 0x40 MLOAD PUSH3 0x461BCD PUSH1 0xE5 SHL DUP2 MSTORE PUSH1 0x4 ADD PUSH2 0xCB6 SWAP1 PUSH2 0x51CB JUMP JUMPDEST PUSH1 0x1 PUSH1 0x1 PUSH1 0xA0 SHL SUB DUP2 AND PUSH1 0x0 SWAP1 DUP2 MSTORE PUSH1 0x69 PUSH1 0x20 MSTORE PUSH1 0x40 SWAP1 KECCAK256 SLOAD PUSH1 0xFF AND ISZERO PUSH2 0x18B9 JUMPI PUSH1 0x40 MLOAD PUSH3 0x461BCD PUSH1 0xE5 SHL DUP2 MSTORE PUSH1 0x4 ADD PUSH2 0xCB6 SWAP1 PUSH2 0x4F44 JUMP JUMPDEST PUSH1 0x1 PUSH1 0x1 PUSH1 0xA0 SHL SUB DUP2 AND PUSH1 0x0 SWAP1 DUP2 MSTORE PUSH1 0x65 PUSH1 0x20 MSTORE PUSH1 0x40 SWAP1 KECCAK256 SLOAD ISZERO PUSH2 0x1913 JUMPI PUSH1 0x1 PUSH1 0x1 PUSH1 0xA0 SHL SUB DUP2 AND PUSH1 0x0 SWAP1 DUP2 MSTORE PUSH1 0x65 PUSH1 0x20 MSTORE PUSH1 0x40 SWAP1 KECCAK256 SLOAD PUSH2 0x18F9 SWAP1 PUSH2 0xFE5 JUMP JUMPDEST PUSH1 0x1 PUSH1 0x1 PUSH1 0xA0 SHL SUB DUP3 AND PUSH1 0x0 SWAP1 DUP2 MSTORE PUSH1 0x66 PUSH1 0x20 MSTORE PUSH1 0x40 SWAP1 KECCAK256 SSTORE JUMPDEST PUSH1 0x1 PUSH1 0x1 PUSH1 0xA0 SHL SUB AND PUSH1 0x0 DUP2 DUP2 MSTORE PUSH1 0x69 PUSH1 0x20 MSTORE PUSH1 0x40 DUP2 KECCAK256 DUP1 SLOAD PUSH1 0xFF NOT AND PUSH1 0x1 SWAP1 DUP2 OR SWAP1 SWAP2 SSTORE PUSH1 0x6C DUP1 SLOAD SWAP2 DUP3 ADD DUP2 SSTORE SWAP1 SWAP2 MSTORE PUSH32 0x2B4A51AB505FC96A0952EFDA2BA61BCD3078D4C02C39A186EC16F21883FBE016 ADD DUP1 SLOAD PUSH1 0x1 PUSH1 0x1 PUSH1 0xA0 SHL SUB NOT AND SWAP1 SWAP2 OR SWAP1 SSTORE JUMP JUMPDEST PUSH1 0x1 PUSH1 0x1 PUSH1 0xA0 SHL SUB AND PUSH1 0x0 SWAP1 DUP2 MSTORE PUSH1 0x68 PUSH1 0x20 MSTORE PUSH1 0x40 SWAP1 KECCAK256 SLOAD PUSH1 0xFF AND SWAP1 JUMP JUMPDEST PUSH1 0x95 SLOAD PUSH2 0x100 SWAP1 DIV PUSH1 0xFF AND DUP2 JUMP JUMPDEST PUSH1 0x8D SLOAD PUSH1 0x1 PUSH1 0x1 PUSH1 0xA0 SHL SUB AND ISZERO ISZERO SWAP1 JUMP JUMPDEST PUSH1 0x93 SLOAD DUP2 JUMP JUMPDEST PUSH2 0x19C4 PUSH2 0x2A04 JUMP JUMPDEST PUSH1 0x1 PUSH1 0x1 PUSH1 0xA0 SHL SUB AND PUSH2 0x19D5 PUSH2 0x2006 JUMP JUMPDEST PUSH1 0x1 PUSH1 0x1 PUSH1 0xA0 SHL SUB AND EQ PUSH2 0x19FB JUMPI PUSH1 0x40 MLOAD PUSH3 0x461BCD PUSH1 0xE5 SHL DUP2 MSTORE PUSH1 0x4 ADD PUSH2 0xCB6 SWAP1 PUSH2 0x51CB JUMP JUMPDEST PUSH1 0x93 SSTORE JUMP JUMPDEST PUSH2 0x1A08 PUSH2 0x2A04 JUMP JUMPDEST PUSH1 0x1 PUSH1 0x1 PUSH1 0xA0 SHL SUB AND PUSH2 0x1A19 PUSH2 0x2006 JUMP JUMPDEST PUSH1 0x1 PUSH1 0x1 PUSH1 0xA0 SHL SUB AND EQ PUSH2 0x1A3F JUMPI PUSH1 0x40 MLOAD PUSH3 0x461BCD PUSH1 0xE5 SHL DUP2 MSTORE PUSH1 0x4 ADD PUSH2 0xCB6 SWAP1 PUSH2 0x51CB JUMP JUMPDEST PUSH1 0x8F DUP1 SLOAD PUSH1 0x1 PUSH1 0x1 PUSH1 0xA0 SHL SUB NOT AND PUSH1 0x1 PUSH1 0x1 PUSH1 0xA0 SHL SUB DUP4 AND OR SWAP1 SSTORE PUSH2 0x1A63 DUP2 PUSH2 0x1841 JUMP JUMPDEST POP JUMP JUMPDEST PUSH1 0x0 PUSH2 0x1A71 ADDRESS PUSH2 0x1A76 JUMP JUMPDEST SWAP1 POP SWAP1 JUMP JUMPDEST PUSH1 0x1 PUSH1 0x1 PUSH1 0xA0 SHL SUB DUP2 AND PUSH1 0x0 SWAP1 DUP2 MSTORE PUSH1 0x69 PUSH1 0x20 MSTORE PUSH1 0x40 DUP2 KECCAK256 SLOAD PUSH1 0xFF AND ISZERO PUSH2 0x1AB6 JUMPI POP PUSH1 0x1 PUSH1 0x1 PUSH1 0xA0 SHL SUB DUP2 AND PUSH1 0x0 SWAP1 DUP2 MSTORE PUSH1 0x66 PUSH1 0x20 MSTORE PUSH1 0x40 SWAP1 KECCAK256 SLOAD PUSH2 0x1023 JUMP JUMPDEST PUSH1 0x1 PUSH1 0x1 PUSH1 0xA0 SHL SUB DUP3 AND PUSH1 0x0 SWAP1 DUP2 MSTORE PUSH1 0x65 PUSH1 0x20 MSTORE PUSH1 0x40 SWAP1 KECCAK256 SLOAD PUSH2 0xC71 SWAP1 PUSH2 0xFE5 JUMP JUMPDEST PUSH2 0x1AE0 PUSH2 0x2A04 JUMP JUMPDEST PUSH1 0x1 PUSH1 0x1 PUSH1 0xA0 SHL SUB AND PUSH2 0x1AF1 PUSH2 0x2006 JUMP JUMPDEST PUSH1 0x1 PUSH1 0x1 PUSH1 0xA0 SHL SUB AND EQ PUSH2 0x1B17 JUMPI PUSH1 0x40 MLOAD PUSH3 0x461BCD PUSH1 0xE5 SHL DUP2 MSTORE PUSH1 0x4 ADD PUSH2 0xCB6 SWAP1 PUSH2 0x51CB JUMP JUMPDEST PUSH1 0x33 SLOAD PUSH1 0x40 MLOAD PUSH1 0x0 SWAP2 PUSH1 0x1 PUSH1 0x1 PUSH1 0xA0 SHL SUB AND SWAP1 PUSH32 0x8BE0079C531659141344CD1FD0A4F28419497F9722A3DAAFE3B4186F6B6457E0 SWAP1 DUP4 SWAP1 LOG3 PUSH1 0x33 DUP1 SLOAD PUSH1 0x1 PUSH1 0x1 PUSH1 0xA0 SHL SUB NOT AND SWAP1 SSTORE JUMP JUMPDEST PUSH1 0x90 SLOAD DUP2 JUMP JUMPDEST PUSH2 0x1B6F PUSH2 0x2A04 JUMP JUMPDEST PUSH1 0x1 PUSH1 0x1 PUSH1 0xA0 SHL SUB AND PUSH2 0x1B80 PUSH2 0x2006 JUMP JUMPDEST PUSH1 0x1 PUSH1 0x1 PUSH1 0xA0 SHL SUB AND EQ PUSH2 0x1BA6 JUMPI PUSH1 0x40 MLOAD PUSH3 0x461BCD PUSH1 0xE5 SHL DUP2 MSTORE PUSH1 0x4 ADD PUSH2 0xCB6 SWAP1 PUSH2 0x51CB JUMP JUMPDEST PUSH1 0x89 SLOAD DUP3 SWAP1 DUP2 LT PUSH2 0x1BC9 JUMPI PUSH1 0x40 MLOAD PUSH3 0x461BCD PUSH1 0xE5 SHL DUP2 MSTORE PUSH1 0x4 ADD PUSH2 0xCB6 SWAP1 PUSH2 0x511C JUMP JUMPDEST PUSH1 0x1 PUSH1 0x1 PUSH1 0xA0 SHL SUB DUP3 AND PUSH2 0x1BEF JUMPI PUSH1 0x40 MLOAD PUSH3 0x461BCD PUSH1 0xE5 SHL DUP2 MSTORE PUSH1 0x4 ADD PUSH2 0xCB6 SWAP1 PUSH2 0x52C2 JUMP JUMPDEST PUSH2 0x1BF8 DUP3 PUSH2 0x1841 JUMP JUMPDEST DUP2 PUSH1 0x89 DUP5 DUP2 SLOAD DUP2 LT PUSH2 0x1C06 JUMPI INVALID JUMPDEST SWAP1 PUSH1 0x0 MSTORE PUSH1 0x20 PUSH1 0x0 KECCAK256 SWAP1 PUSH1 0x7 MUL ADD PUSH1 0x5 ADD PUSH1 0x0 PUSH2 0x100 EXP DUP2 SLOAD DUP2 PUSH1 0x1 PUSH1 0x1 PUSH1 0xA0 SHL SUB MUL NOT AND SWAP1 DUP4 PUSH1 0x1 PUSH1 0x1 PUSH1 0xA0 SHL SUB AND MUL OR SWAP1 SSTORE POP DUP3 PUSH1 0x0 EQ ISZERO PUSH2 0x1C60 JUMPI PUSH1 0x79 DUP1 SLOAD PUSH1 0x1 PUSH1 0x1 PUSH1 0xA0 SHL SUB NOT AND PUSH1 0x1 PUSH1 0x1 PUSH1 0xA0 SHL SUB DUP5 AND OR SWAP1 SSTORE JUMPDEST POP POP POP JUMP JUMPDEST PUSH1 0x1 PUSH1 0x1 PUSH1 0xA0 SHL SUB AND PUSH1 0x0 SWAP1 DUP2 MSTORE PUSH1 0x69 PUSH1 0x20 MSTORE PUSH1 0x40 SWAP1 KECCAK256 SLOAD PUSH1 0xFF AND SWAP1 JUMP JUMPDEST PUSH1 0x94 SLOAD DUP2 JUMP JUMPDEST PUSH2 0x1C91 PUSH2 0x2A04 JUMP JUMPDEST PUSH1 0x1 PUSH1 0x1 PUSH1 0xA0 SHL SUB AND PUSH2 0x1CA2 PUSH2 0x2006 JUMP JUMPDEST PUSH1 0x1 PUSH1 0x1 PUSH1 0xA0 SHL SUB AND EQ PUSH2 0x1CC8 JUMPI PUSH1 0x40 MLOAD PUSH3 0x461BCD PUSH1 0xE5 SHL DUP2 MSTORE PUSH1 0x4 ADD PUSH2 0xCB6 SWAP1 PUSH2 0x51CB JUMP JUMPDEST PUSH1 0x89 SLOAD DUP3 SWAP1 DUP2 LT PUSH2 0x1CEB JUMPI PUSH1 0x40 MLOAD PUSH3 0x461BCD PUSH1 0xE5 SHL DUP2 MSTORE PUSH1 0x4 ADD PUSH2 0xCB6 SWAP1 PUSH2 0x511C JUMP JUMPDEST PUSH1 0x1 PUSH1 0x1 PUSH1 0xA0 SHL SUB DUP3 AND PUSH2 0x1D11 JUMPI PUSH1 0x40 MLOAD PUSH3 0x461BCD PUSH1 0xE5 SHL DUP2 MSTORE PUSH1 0x4 ADD PUSH2 0xCB6 SWAP1 PUSH2 0x52C2 JUMP JUMPDEST PUSH2 0x1D1A DUP3 PUSH2 0x1841 JUMP JUMPDEST DUP2 PUSH1 0x89 DUP5 DUP2 SLOAD DUP2 LT PUSH2 0x1D28 JUMPI INVALID JUMPDEST SWAP1 PUSH1 0x0 MSTORE PUSH1 0x20 PUSH1 0x0 KECCAK256 SWAP1 PUSH1 0x7 MUL ADD PUSH1 0x6 ADD PUSH1 0x0 PUSH2 0x100 EXP DUP2 SLOAD DUP2 PUSH1 0x1 PUSH1 0x1 PUSH1 0xA0 SHL SUB MUL NOT AND SWAP1 DUP4 PUSH1 0x1 PUSH1 0x1 PUSH1 0xA0 SHL SUB AND MUL OR SWAP1 SSTORE POP DUP3 PUSH1 0x0 EQ ISZERO PUSH2 0x1C60 JUMPI PUSH1 0x7A DUP1 SLOAD PUSH1 0x1 PUSH1 0x1 PUSH1 0xA0 SHL SUB DUP5 AND PUSH1 0x1 PUSH1 0x1 PUSH1 0xA0 SHL SUB NOT SWAP1 SWAP2 AND OR SWAP1 SSTORE POP POP POP JUMP JUMPDEST PUSH2 0x1D90 PUSH2 0x2A04 JUMP JUMPDEST PUSH1 0x1 PUSH1 0x1 PUSH1 0xA0 SHL SUB AND PUSH2 0x1DA1 PUSH2 0x2006 JUMP JUMPDEST PUSH1 0x1 PUSH1 0x1 PUSH1 0xA0 SHL SUB AND EQ PUSH2 0x1DC7 JUMPI PUSH1 0x40 MLOAD PUSH3 0x461BCD PUSH1 0xE5 SHL DUP2 MSTORE PUSH1 0x4 ADD PUSH2 0xCB6 SWAP1 PUSH2 0x51CB JUMP JUMPDEST PUSH1 0x8F DUP1 SLOAD PUSH1 0xFF PUSH1 0xA0 SHL NOT AND PUSH1 0x1 PUSH1 0xA0 SHL OR SWAP1 SSTORE PUSH1 0x94 SLOAD SELFBALANCE SWAP1 DUP2 LT ISZERO PUSH2 0x1DFE JUMPI PUSH1 0x40 MLOAD PUSH3 0x461BCD PUSH1 0xE5 SHL DUP2 MSTORE PUSH1 0x4 ADD PUSH2 0xCB6 SWAP1 PUSH2 0x534A JUMP JUMPDEST POP PUSH1 0x94 SLOAD PUSH1 0x0 PUSH2 0x1E0F DUP3 PUSH1 0x2 PUSH2 0x2FD0 JUMP JUMPDEST SWAP1 POP PUSH1 0x0 PUSH2 0x1E1D DUP4 DUP4 PUSH2 0x326E JUMP JUMPDEST PUSH1 0x40 MLOAD PUSH4 0x70A08231 PUSH1 0xE0 SHL DUP2 MSTORE SWAP1 SWAP2 POP PUSH1 0x0 SWAP1 ADDRESS SWAP1 PUSH4 0x70A08231 SWAP1 PUSH2 0x1E46 SWAP1 CALLER SWAP1 PUSH1 0x4 ADD PUSH2 0x4CBB JUMP JUMPDEST PUSH1 0x20 PUSH1 0x40 MLOAD DUP1 DUP4 SUB DUP2 DUP7 DUP1 EXTCODESIZE ISZERO DUP1 ISZERO PUSH2 0x1E5E JUMPI PUSH1 0x0 DUP1 REVERT JUMPDEST POP GAS STATICCALL ISZERO DUP1 ISZERO PUSH2 0x1E72 JUMPI RETURNDATASIZE PUSH1 0x0 DUP1 RETURNDATACOPY RETURNDATASIZE PUSH1 0x0 REVERT JUMPDEST POP POP POP POP PUSH1 0x40 MLOAD RETURNDATASIZE PUSH1 0x1F NOT PUSH1 0x1F DUP3 ADD AND DUP3 ADD DUP1 PUSH1 0x40 MSTORE POP DUP2 ADD SWAP1 PUSH2 0x1E96 SWAP2 SWAP1 PUSH2 0x4B2A JUMP JUMPDEST SWAP1 POP PUSH2 0x1EA1 DUP4 PUSH2 0x3296 JUMP JUMPDEST PUSH1 0x40 MLOAD PUSH4 0x70A08231 PUSH1 0xE0 SHL DUP2 MSTORE PUSH1 0x0 SWAP1 ADDRESS SWAP1 PUSH4 0x70A08231 SWAP1 PUSH2 0x1EC7 SWAP1 CALLER SWAP1 PUSH1 0x4 ADD PUSH2 0x4CBB JUMP JUMPDEST PUSH1 0x20 PUSH1 0x40 MLOAD DUP1 DUP4 SUB DUP2 DUP7 DUP1 EXTCODESIZE ISZERO DUP1 ISZERO PUSH2 0x1EDF JUMPI PUSH1 0x0 DUP1 REVERT JUMPDEST POP GAS STATICCALL ISZERO DUP1 ISZERO PUSH2 0x1EF3 JUMPI RETURNDATASIZE PUSH1 0x0 DUP1 RETURNDATACOPY RETURNDATASIZE PUSH1 0x0 REVERT JUMPDEST POP POP POP POP PUSH1 0x40 MLOAD RETURNDATASIZE PUSH1 0x1F NOT PUSH1 0x1F DUP3 ADD AND DUP3 ADD DUP1 PUSH1 0x40 MSTORE POP DUP2 ADD SWAP1 PUSH2 0x1F17 SWAP2 SWAP1 PUSH2 0x4B2A JUMP JUMPDEST SWAP1 POP PUSH1 0x0 PUSH2 0x1F25 DUP3 DUP5 PUSH2 0x326E JUMP JUMPDEST SWAP1 POP PUSH2 0x1F32 CALLER ADDRESS DUP4 PUSH2 0x2A08 JUMP JUMPDEST PUSH1 0x40 MLOAD PUSH4 0x23B872DD PUSH1 0xE0 SHL DUP2 MSTORE ADDRESS SWAP1 PUSH4 0x23B872DD SWAP1 PUSH2 0x1F59 SWAP1 CALLER SWAP1 DUP5 SWAP1 DUP7 SWAP1 PUSH1 0x4 ADD PUSH2 0x4CE9 JUMP JUMPDEST PUSH1 0x20 PUSH1 0x40 MLOAD DUP1 DUP4 SUB DUP2 PUSH1 0x0 DUP8 DUP1 EXTCODESIZE ISZERO DUP1 ISZERO PUSH2 0x1F73 JUMPI PUSH1 0x0 DUP1 REVERT JUMPDEST POP GAS CALL ISZERO DUP1 ISZERO PUSH2 0x1F87 JUMPI RETURNDATASIZE PUSH1 0x0 DUP1 RETURNDATACOPY RETURNDATASIZE PUSH1 0x0 REVERT JUMPDEST POP POP POP POP PUSH1 0x40 MLOAD RETURNDATASIZE PUSH1 0x1F NOT PUSH1 0x1F DUP3 ADD AND DUP3 ADD DUP1 PUSH1 0x40 MSTORE POP DUP2 ADD SWAP1 PUSH2 0x1FAB SWAP2 SWAP1 PUSH2 0x4AF6 JUMP JUMPDEST POP PUSH2 0x1FB6 DUP2 DUP6 PUSH2 0x341D JUMP JUMPDEST PUSH32 0x8261EDC7B257DA79C22AFDC1C7064B198C7ABE8FDD21070AC0B55E0351804A3 DUP6 DUP3 DUP7 PUSH1 0x40 MLOAD PUSH2 0x1FE9 SWAP4 SWAP3 SWAP2 SWAP1 PUSH2 0x54FE JUMP JUMPDEST PUSH1 0x40 MLOAD DUP1 SWAP2 SUB SWAP1 LOG1 POP POP PUSH1 0x8F DUP1 SLOAD PUSH1 0xFF PUSH1 0xA0 SHL NOT AND SWAP1 SSTORE POP POP POP POP JUMP JUMPDEST PUSH1 0x33 SLOAD PUSH1 0x1 PUSH1 0x1 PUSH1 0xA0 SHL SUB AND SWAP1 JUMP JUMPDEST PUSH1 0x8C SLOAD PUSH1 0x1 PUSH1 0x1 PUSH1 0xA0 SHL SUB AND DUP2 JUMP JUMPDEST PUSH2 0x202C PUSH2 0x2A04 JUMP JUMPDEST PUSH1 0x1 PUSH1 0x1 PUSH1 0xA0 SHL SUB AND PUSH2 0x203D PUSH2 0x2006 JUMP JUMPDEST PUSH1 0x1 PUSH1 0x1 PUSH1 0xA0 SHL SUB AND EQ PUSH2 0x2063 JUMPI PUSH1 0x40 MLOAD PUSH3 0x461BCD PUSH1 0xE5 SHL DUP2 MSTORE PUSH1 0x4 ADD PUSH2 0xCB6 SWAP1 PUSH2 0x51CB JUMP JUMPDEST PUSH1 0x89 SLOAD DUP3 SWAP1 DUP2 LT PUSH2 0x2086 JUMPI PUSH1 0x40 MLOAD PUSH3 0x461BCD PUSH1 0xE5 SHL DUP2 MSTORE PUSH1 0x4 ADD PUSH2 0xCB6 SWAP1 PUSH2 0x511C JUMP JUMPDEST PUSH2 0x208E PUSH2 0x489B JUMP JUMPDEST PUSH1 0x89 DUP5 DUP2 SLOAD DUP2 LT PUSH2 0x209B JUMPI INVALID JUMPDEST PUSH1 0x0 SWAP2 DUP3 MSTORE PUSH1 0x20 SWAP2 DUP3 SWAP1 KECCAK256 PUSH1 0x40 DUP1 MLOAD PUSH1 0xE0 DUP2 ADD DUP3 MSTORE PUSH1 0x7 SWAP1 SWAP4 MUL SWAP1 SWAP2 ADD DUP1 SLOAD DUP4 MSTORE PUSH1 0x1 DUP2 ADD SLOAD SWAP4 DUP4 ADD SWAP4 SWAP1 SWAP4 MSTORE PUSH1 0x2 DUP4 ADD SLOAD SWAP1 DUP3 ADD MSTORE PUSH1 0x3 DUP3 ADD SLOAD PUSH1 0x60 DUP3 ADD MSTORE PUSH1 0x4 DUP3 ADD SLOAD PUSH1 0x80 DUP3 ADD DUP2 SWAP1 MSTORE PUSH1 0x5 DUP4 ADD SLOAD PUSH1 0x1 PUSH1 0x1 PUSH1 0xA0 SHL SUB SWAP1 DUP2 AND PUSH1 0xA0 DUP5 ADD MSTORE PUSH1 0x6 SWAP1 SWAP4 ADD SLOAD SWAP1 SWAP3 AND PUSH1 0xC0 DUP3 ADD MSTORE SWAP2 POP PUSH2 0x2118 SWAP1 DUP3 SWAP1 DUP6 PUSH2 0x3002 JUMP JUMPDEST DUP3 PUSH1 0x89 DUP6 DUP2 SLOAD DUP2 LT PUSH2 0x2126 JUMPI INVALID JUMPDEST PUSH1 0x0 SWAP2 DUP3 MSTORE PUSH1 0x20 SWAP1 SWAP2 KECCAK256 PUSH1 0x4 PUSH1 0x7 SWAP1 SWAP3 MUL ADD ADD SSTORE DUP4 PUSH2 0x11ED JUMPI POP POP PUSH1 0x78 SSTORE POP JUMP JUMPDEST PUSH1 0x72 DUP1 SLOAD PUSH1 0x40 DUP1 MLOAD PUSH1 0x20 PUSH1 0x1F PUSH1 0x2 PUSH1 0x0 NOT PUSH2 0x100 PUSH1 0x1 DUP9 AND ISZERO MUL ADD SWAP1 SWAP6 AND SWAP5 SWAP1 SWAP5 DIV SWAP4 DUP5 ADD DUP2 SWAP1 DIV DUP2 MUL DUP3 ADD DUP2 ADD SWAP1 SWAP3 MSTORE DUP3 DUP2 MSTORE PUSH1 0x60 SWAP4 SWAP1 SWAP3 SWAP1 SWAP2 DUP4 ADD DUP3 DUP3 DUP1 ISZERO PUSH2 0xC4F JUMPI DUP1 PUSH1 0x1F LT PUSH2 0xC24 JUMPI PUSH2 0x100 DUP1 DUP4 SLOAD DIV MUL DUP4 MSTORE SWAP2 PUSH1 0x20 ADD SWAP2 PUSH2 0xC4F JUMP JUMPDEST PUSH2 0x21B0 PUSH2 0x2A04 JUMP JUMPDEST PUSH1 0x1 PUSH1 0x1 PUSH1 0xA0 SHL SUB AND PUSH2 0x21C1 PUSH2 0x2006 JUMP JUMPDEST PUSH1 0x1 PUSH1 0x1 PUSH1 0xA0 SHL SUB AND EQ PUSH2 0x21E7 JUMPI PUSH1 0x40 MLOAD PUSH3 0x461BCD PUSH1 0xE5 SHL DUP2 MSTORE PUSH1 0x4 ADD PUSH2 0xCB6 SWAP1 PUSH2 0x51CB JUMP JUMPDEST PUSH1 0x40 MLOAD PUSH4 0xA9059CBB PUSH1 0xE0 SHL DUP2 MSTORE PUSH1 0x1 PUSH1 0x1 PUSH1 0xA0 SHL SUB DUP4 AND SWAP1 PUSH4 0xA9059CBB SWAP1 PUSH2 0x2215 SWAP1 CALLER SWAP1 DUP6 SWAP1 PUSH1 0x4 ADD PUSH2 0x4D0D JUMP JUMPDEST PUSH1 0x20 PUSH1 0x40 MLOAD DUP1 DUP4 SUB DUP2 PUSH1 0x0 DUP8 DUP1 EXTCODESIZE ISZERO DUP1 ISZERO PUSH2 0x222F JUMPI PUSH1 0x0 DUP1 REVERT JUMPDEST POP GAS CALL ISZERO DUP1 ISZERO PUSH2 0x2243 JUMPI RETURNDATASIZE PUSH1 0x0 DUP1 RETURNDATACOPY RETURNDATASIZE PUSH1 0x0 REVERT JUMPDEST POP POP POP POP PUSH1 0x40 MLOAD RETURNDATASIZE PUSH1 0x1F NOT PUSH1 0x1F DUP3 ADD AND DUP3 ADD DUP1 PUSH1 0x40 MSTORE POP DUP2 ADD SWAP1 PUSH2 0x1C60 SWAP2 SWAP1 PUSH2 0x4AF6 JUMP JUMPDEST PUSH1 0x0 PUSH2 0xC6D PUSH2 0x2274 PUSH2 0x2A04 JUMP JUMPDEST DUP5 PUSH2 0xFD5 DUP6 PUSH1 0x40 MLOAD DUP1 PUSH1 0x60 ADD PUSH1 0x40 MSTORE DUP1 PUSH1 0x25 DUP2 MSTORE PUSH1 0x20 ADD PUSH2 0x5660 PUSH1 0x25 SWAP2 CODECOPY PUSH1 0x67 PUSH1 0x0 PUSH2 0x229E PUSH2 0x2A04 JUMP JUMPDEST PUSH1 0x1 PUSH1 0x1 PUSH1 0xA0 SHL SUB SWAP1 DUP2 AND DUP3 MSTORE PUSH1 0x20 DUP1 DUP4 ADD SWAP4 SWAP1 SWAP4 MSTORE PUSH1 0x40 SWAP2 DUP3 ADD PUSH1 0x0 SWAP1 DUP2 KECCAK256 SWAP2 DUP14 AND DUP2 MSTORE SWAP3 MSTORE SWAP1 KECCAK256 SLOAD SWAP2 SWAP1 PUSH2 0x2F81 JUMP JUMPDEST PUSH1 0x0 PUSH2 0xC6D PUSH2 0x22DC PUSH2 0x2A04 JUMP JUMPDEST DUP5 DUP5 PUSH2 0x2B6E JUMP JUMPDEST DUP2 PUSH1 0x40 MLOAD DUP1 PUSH1 0x60 ADD PUSH1 0x40 MSTORE DUP1 PUSH1 0x29 DUP2 MSTORE PUSH1 0x20 ADD PUSH2 0x5685 PUSH1 0x29 SWAP2 CODECOPY PUSH1 0x1 PUSH1 0x1 PUSH1 0xA0 SHL SUB DUP3 AND PUSH1 0x0 SWAP1 DUP2 MSTORE PUSH1 0x6A PUSH1 0x20 MSTORE PUSH1 0x40 SWAP1 KECCAK256 SLOAD DUP2 SWAP1 PUSH1 0xFF AND ISZERO PUSH2 0x2339 JUMPI PUSH1 0x40 MLOAD PUSH3 0x461BCD PUSH1 0xE5 SHL DUP2 MSTORE PUSH1 0x4 ADD PUSH2 0xCB6 SWAP2 SWAP1 PUSH2 0x4DA1 JUMP JUMPDEST POP PUSH1 0x8D SLOAD PUSH1 0x1 PUSH1 0x1 PUSH1 0xA0 SHL SUB AND PUSH2 0x2362 JUMPI PUSH1 0x40 MLOAD PUSH3 0x461BCD PUSH1 0xE5 SHL DUP2 MSTORE PUSH1 0x4 ADD PUSH2 0xCB6 SWAP1 PUSH2 0x5280 JUMP JUMPDEST PUSH1 0x8D SLOAD PUSH1 0x1 PUSH1 0x1 PUSH1 0xA0 SHL SUB AND PUSH2 0x2376 PUSH2 0x2A04 JUMP JUMPDEST PUSH1 0x1 PUSH1 0x1 PUSH1 0xA0 SHL SUB AND EQ PUSH2 0x239C JUMPI PUSH1 0x40 MLOAD PUSH3 0x461BCD PUSH1 0xE5 SHL DUP2 MSTORE PUSH1 0x4 ADD PUSH2 0xCB6 SWAP1 PUSH2 0x50ED JUMP JUMPDEST PUSH2 0x11ED DUP5 DUP5 PUSH2 0x34CF JUMP JUMPDEST PUSH1 0x8F SLOAD PUSH1 0x1 PUSH1 0x1 PUSH1 0xA0 SHL SUB AND DUP2 JUMP JUMPDEST PUSH1 0x0 PUSH1 0x6D SLOAD DUP5 GT ISZERO PUSH2 0x23D9 JUMPI PUSH1 0x40 MLOAD PUSH3 0x461BCD PUSH1 0xE5 SHL DUP2 MSTORE PUSH1 0x4 ADD PUSH2 0xCB6 SWAP1 PUSH2 0x5020 JUMP JUMPDEST DUP2 PUSH2 0x23FA JUMPI PUSH2 0x23E6 PUSH2 0x48EA JUMP JUMPDEST PUSH2 0x23F0 DUP6 DUP6 PUSH2 0x350F JUMP JUMPDEST MLOAD SWAP2 POP PUSH2 0xFDE SWAP1 POP JUMP JUMPDEST PUSH2 0x2402 PUSH2 0x48EA JUMP JUMPDEST PUSH2 0x240C DUP6 DUP6 PUSH2 0x350F JUMP JUMPDEST PUSH1 0x20 ADD MLOAD SWAP2 POP PUSH2 0xFDE SWAP1 POP JUMP JUMPDEST PUSH1 0x0 SLOAD PUSH2 0x100 SWAP1 DIV PUSH1 0xFF AND DUP1 PUSH2 0x2432 JUMPI POP PUSH2 0x2432 PUSH2 0x35E1 JUMP JUMPDEST DUP1 PUSH2 0x2440 JUMPI POP PUSH1 0x0 SLOAD PUSH1 0xFF AND ISZERO JUMPDEST PUSH2 0x245C JUMPI PUSH1 0x40 MLOAD PUSH3 0x461BCD PUSH1 0xE5 SHL DUP2 MSTORE PUSH1 0x4 ADD PUSH2 0xCB6 SWAP1 PUSH2 0x509F JUMP JUMPDEST PUSH1 0x0 SLOAD PUSH2 0x100 SWAP1 DIV PUSH1 0xFF AND ISZERO DUP1 ISZERO PUSH2 0x2487 JUMPI PUSH1 0x0 DUP1 SLOAD PUSH1 0xFF NOT PUSH2 0xFF00 NOT SWAP1 SWAP2 AND PUSH2 0x100 OR AND PUSH1 0x1 OR SWAP1 SSTORE JUMPDEST PUSH2 0x248F PUSH2 0x35F2 JUMP JUMPDEST PUSH2 0x2497 PUSH2 0x3674 JUMP JUMPDEST PUSH2 0x24A0 DUP3 PUSH2 0x374E JUMP JUMPDEST DUP1 ISZERO PUSH2 0x13F7 JUMPI PUSH1 0x0 DUP1 SLOAD PUSH2 0xFF00 NOT AND SWAP1 SSTORE POP POP JUMP JUMPDEST PUSH2 0x24BD PUSH2 0x2A04 JUMP JUMPDEST PUSH1 0x1 PUSH1 0x1 PUSH1 0xA0 SHL SUB AND PUSH2 0x24CE PUSH2 0x2006 JUMP JUMPDEST PUSH1 0x1 PUSH1 0x1 PUSH1 0xA0 SHL SUB AND EQ PUSH2 0x24F4 JUMPI PUSH1 0x40 MLOAD PUSH3 0x461BCD PUSH1 0xE5 SHL DUP2 MSTORE PUSH1 0x4 ADD PUSH2 0xCB6 SWAP1 PUSH2 0x51CB JUMP JUMPDEST PUSH1 0x1 PUSH1 0x1 PUSH1 0xA0 SHL SUB AND PUSH1 0x0 SWAP1 DUP2 MSTORE PUSH1 0x6A PUSH1 0x20 MSTORE PUSH1 0x40 SWAP1 KECCAK256 DUP1 SLOAD PUSH1 0xFF NOT AND SWAP1 SSTORE JUMP JUMPDEST PUSH2 0x251D PUSH2 0x2A04 JUMP JUMPDEST PUSH1 0x1 PUSH1 0x1 PUSH1 0xA0 SHL SUB AND PUSH2 0x252E PUSH2 0x2006 JUMP JUMPDEST PUSH1 0x1 PUSH1 0x1 PUSH1 0xA0 SHL SUB AND EQ PUSH2 0x2554 JUMPI PUSH1 0x40 MLOAD PUSH3 0x461BCD PUSH1 0xE5 SHL DUP2 MSTORE PUSH1 0x4 ADD PUSH2 0xCB6 SWAP1 PUSH2 0x51CB JUMP JUMPDEST PUSH2 0x2575 PUSH2 0x2710 PUSH2 0x256F DUP4 PUSH1 0x6D SLOAD PUSH2 0x3B12 SWAP1 SWAP2 SWAP1 PUSH4 0xFFFFFFFF AND JUMP JUMPDEST SWAP1 PUSH2 0x2FD0 JUMP JUMPDEST PUSH1 0x90 SSTORE POP JUMP JUMPDEST PUSH2 0x2583 PUSH2 0x2A04 JUMP JUMPDEST PUSH1 0x1 PUSH1 0x1 PUSH1 0xA0 SHL SUB AND PUSH2 0x2594 PUSH2 0x2006 JUMP JUMPDEST PUSH1 0x1 PUSH1 0x1 PUSH1 0xA0 SHL SUB AND EQ PUSH2 0x25BA JUMPI PUSH1 0x40 MLOAD PUSH3 0x461BCD PUSH1 0xE5 SHL DUP2 MSTORE PUSH1 0x4 ADD PUSH2 0xCB6 SWAP1 PUSH2 0x51CB JUMP JUMPDEST PUSH1 0x89 SLOAD DUP3 SWAP1 DUP2 LT PUSH2 0x25DD JUMPI PUSH1 0x40 MLOAD PUSH3 0x461BCD PUSH1 0xE5 SHL DUP2 MSTORE PUSH1 0x4 ADD PUSH2 0xCB6 SWAP1 PUSH2 0x511C JUMP JUMPDEST PUSH2 0x25E5 PUSH2 0x489B JUMP JUMPDEST PUSH1 0x89 DUP5 DUP2 SLOAD DUP2 LT PUSH2 0x25F2 JUMPI INVALID JUMPDEST PUSH1 0x0 SWAP2 DUP3 MSTORE PUSH1 0x20 SWAP2 DUP3 SWAP1 KECCAK256 PUSH1 0x40 DUP1 MLOAD PUSH1 0xE0 DUP2 ADD DUP3 MSTORE PUSH1 0x7 SWAP1 SWAP4 MUL SWAP1 SWAP2 ADD DUP1 SLOAD DUP4 MSTORE PUSH1 0x1 DUP2 ADD SLOAD SWAP4 DUP4 ADD SWAP4 SWAP1 SWAP4 MSTORE PUSH1 0x2 DUP4 ADD SLOAD SWAP1 DUP3 ADD MSTORE PUSH1 0x3 DUP3 ADD SLOAD PUSH1 0x60 DUP3 ADD DUP2 SWAP1 MSTORE PUSH1 0x4 DUP4 ADD SLOAD PUSH1 0x80 DUP4 ADD MSTORE PUSH1 0x5 DUP4 ADD SLOAD PUSH1 0x1 PUSH1 0x1 PUSH1 0xA0 SHL SUB SWAP1 DUP2 AND PUSH1 0xA0 DUP5 ADD MSTORE PUSH1 0x6 SWAP1 SWAP4 ADD SLOAD SWAP1 SWAP3 AND PUSH1 0xC0 DUP3 ADD MSTORE SWAP2 POP PUSH2 0x266F SWAP1 DUP3 SWAP1 DUP6 PUSH2 0x3002 JUMP JUMPDEST DUP3 PUSH1 0x89 DUP6 DUP2 SLOAD DUP2 LT PUSH2 0x267D JUMPI INVALID JUMPDEST PUSH1 0x0 SWAP2 DUP3 MSTORE PUSH1 0x20 SWAP1 SWAP2 KECCAK256 PUSH1 0x3 PUSH1 0x7 SWAP1 SWAP3 MUL ADD ADD SSTORE DUP4 PUSH2 0x11ED JUMPI POP POP PUSH1 0x77 SSTORE POP JUMP JUMPDEST PUSH1 0x1 PUSH1 0x1 PUSH1 0xA0 SHL SUB SWAP2 DUP3 AND PUSH1 0x0 SWAP1 DUP2 MSTORE PUSH1 0x67 PUSH1 0x20 SWAP1 DUP2 MSTORE PUSH1 0x40 DUP1 DUP4 KECCAK256 SWAP4 SWAP1 SWAP5 AND DUP3 MSTORE SWAP2 SWAP1 SWAP2 MSTORE KECCAK256 SLOAD SWAP1 JUMP JUMPDEST PUSH1 0x74 SLOAD PUSH1 0x75 SLOAD PUSH1 0x76 SLOAD PUSH1 0x77 SLOAD PUSH1 0x78 SLOAD PUSH1 0x79 SLOAD PUSH1 0x7A SLOAD PUSH1 0x1 PUSH1 0x1 PUSH1 0xA0 SHL SUB SWAP2 DUP3 AND SWAP2 AND DUP8 JUMP JUMPDEST PUSH2 0x26F6 PUSH2 0x2A04 JUMP JUMPDEST PUSH1 0x1 PUSH1 0x1 PUSH1 0xA0 SHL SUB AND PUSH2 0x2707 PUSH2 0x2006 JUMP JUMPDEST PUSH1 0x1 PUSH1 0x1 PUSH1 0xA0 SHL SUB AND EQ PUSH2 0x272D JUMPI PUSH1 0x40 MLOAD PUSH3 0x461BCD PUSH1 0xE5 SHL DUP2 MSTORE PUSH1 0x4 ADD PUSH2 0xCB6 SWAP1 PUSH2 0x51CB JUMP JUMPDEST PUSH1 0x1 PUSH1 0x1 PUSH1 0xA0 SHL SUB AND PUSH1 0x0 SWAP1 DUP2 MSTORE PUSH1 0x68 PUSH1 0x20 MSTORE PUSH1 0x40 SWAP1 KECCAK256 DUP1 SLOAD PUSH1 0xFF NOT AND SWAP1 SSTORE JUMP JUMPDEST PUSH2 0x2756 PUSH2 0x2A04 JUMP JUMPDEST PUSH1 0x1 PUSH1 0x1 PUSH1 0xA0 SHL SUB AND PUSH2 0x2767 PUSH2 0x2006 JUMP JUMPDEST PUSH1 0x1 PUSH1 0x1 PUSH1 0xA0 SHL SUB AND EQ PUSH2 0x278D JUMPI PUSH1 0x40 MLOAD PUSH3 0x461BCD PUSH1 0xE5 SHL DUP2 MSTORE PUSH1 0x4 ADD PUSH2 0xCB6 SWAP1 PUSH2 0x51CB JUMP JUMPDEST PUSH1 0x89 SLOAD DUP3 SWAP1 DUP2 LT PUSH2 0x27B0 JUMPI PUSH1 0x40 MLOAD PUSH3 0x461BCD PUSH1 0xE5 SHL DUP2 MSTORE PUSH1 0x4 ADD PUSH2 0xCB6 SWAP1 PUSH2 0x511C JUMP JUMPDEST PUSH2 0x27B8 PUSH2 0x489B JUMP JUMPDEST PUSH1 0x89 DUP5 DUP2 SLOAD DUP2 LT PUSH2 0x27C5 JUMPI INVALID JUMPDEST PUSH1 0x0 SWAP2 DUP3 MSTORE PUSH1 0x20 SWAP2 DUP3 SWAP1 KECCAK256 PUSH1 0x40 DUP1 MLOAD PUSH1 0xE0 DUP2 ADD DUP3 MSTORE PUSH1 0x7 SWAP1 SWAP4 MUL SWAP1 SWAP2 ADD DUP1 SLOAD DUP4 MSTORE PUSH1 0x1 DUP2 ADD SLOAD SWAP4 DUP4 ADD DUP5 SWAP1 MSTORE PUSH1 0x2 DUP2 ADD SLOAD SWAP2 DUP4 ADD SWAP2 SWAP1 SWAP2 MSTORE PUSH1 0x3 DUP2 ADD SLOAD PUSH1 0x60 DUP4 ADD MSTORE PUSH1 0x4 DUP2 ADD SLOAD PUSH1 0x80 DUP4 ADD MSTORE PUSH1 0x5 DUP2 ADD SLOAD PUSH1 0x1 PUSH1 0x1 PUSH1 0xA0 SHL SUB SWAP1 DUP2 AND PUSH1 0xA0 DUP5 ADD MSTORE PUSH1 0x6 SWAP1 SWAP2 ADD SLOAD AND PUSH1 0xC0 DUP3 ADD MSTORE SWAP2 POP PUSH2 0x2840 SWAP1 DUP3 SWAP1 DUP6 PUSH2 0x3002 JUMP JUMPDEST DUP3 PUSH1 0x89 DUP6 DUP2 SLOAD DUP2 LT PUSH2 0x284E JUMPI INVALID JUMPDEST PUSH1 0x0 SWAP2 DUP3 MSTORE PUSH1 0x20 SWAP1 SWAP2 KECCAK256 PUSH1 0x1 PUSH1 0x7 SWAP1 SWAP3 MUL ADD ADD SSTORE DUP4 PUSH2 0x11ED JUMPI POP POP PUSH1 0x75 SSTORE POP JUMP JUMPDEST PUSH2 0x2877 PUSH2 0x2A04 JUMP JUMPDEST PUSH1 0x1 PUSH1 0x1 PUSH1 0xA0 SHL SUB AND PUSH2 0x2888 PUSH2 0x2006 JUMP JUMPDEST PUSH1 0x1 PUSH1 0x1 PUSH1 0xA0 SHL SUB AND EQ PUSH2 0x28AE JUMPI PUSH1 0x40 MLOAD PUSH3 0x461BCD PUSH1 0xE5 SHL DUP2 MSTORE PUSH1 0x4 ADD PUSH2 0xCB6 SWAP1 PUSH2 0x51CB JUMP JUMPDEST PUSH1 0x1 PUSH1 0x1 PUSH1 0xA0 SHL SUB DUP2 AND PUSH2 0x28D4 JUMPI PUSH1 0x40 MLOAD PUSH3 0x461BCD PUSH1 0xE5 SHL DUP2 MSTORE PUSH1 0x4 ADD PUSH2 0xCB6 SWAP1 PUSH2 0x4EC7 JUMP JUMPDEST PUSH1 0x33 SLOAD PUSH1 0x40 MLOAD PUSH1 0x1 PUSH1 0x1 PUSH1 0xA0 SHL SUB DUP1 DUP5 AND SWAP3 AND SWAP1 PUSH32 0x8BE0079C531659141344CD1FD0A4F28419497F9722A3DAAFE3B4186F6B6457E0 SWAP1 PUSH1 0x0 SWAP1 LOG3 PUSH1 0x33 DUP1 SLOAD PUSH1 0x1 PUSH1 0x1 PUSH1 0xA0 SHL SUB NOT AND PUSH1 0x1 PUSH1 0x1 PUSH1 0xA0 SHL SUB SWAP3 SWAP1 SWAP3 AND SWAP2 SWAP1 SWAP2 OR SWAP1 SSTORE JUMP JUMPDEST PUSH2 0x2938 PUSH2 0x2A04 JUMP JUMPDEST PUSH1 0x1 PUSH1 0x1 PUSH1 0xA0 SHL SUB AND PUSH2 0x2949 PUSH2 0x2006 JUMP JUMPDEST PUSH1 0x1 PUSH1 0x1 PUSH1 0xA0 SHL SUB AND EQ PUSH2 0x296F JUMPI PUSH1 0x40 MLOAD PUSH3 0x461BCD PUSH1 0xE5 SHL DUP2 MSTORE PUSH1 0x4 ADD PUSH2 0xCB6 SWAP1 PUSH2 0x51CB JUMP JUMPDEST PUSH1 0x1 PUSH1 0x1 PUSH1 0xA0 SHL SUB AND PUSH1 0x0 SWAP1 DUP2 MSTORE PUSH1 0x6A PUSH1 0x20 SWAP1 DUP2 MSTORE PUSH1 0x40 DUP1 DUP4 KECCAK256 DUP1 SLOAD PUSH1 0xFF NOT AND PUSH1 0x1 OR SWAP1 SSTORE PUSH1 0x6B SWAP1 SWAP2 MSTORE DUP2 KECCAK256 SSTORE JUMP JUMPDEST SELFBALANCE SWAP1 JUMP JUMPDEST PUSH1 0x1 PUSH1 0x1 PUSH1 0xA0 SHL SUB AND PUSH1 0x0 SWAP1 DUP2 MSTORE PUSH1 0x6A PUSH1 0x20 MSTORE PUSH1 0x40 SWAP1 KECCAK256 SLOAD PUSH1 0xFF AND SWAP1 JUMP JUMPDEST PUSH2 0x29C8 PUSH2 0x2A04 JUMP JUMPDEST PUSH1 0x1 PUSH1 0x1 PUSH1 0xA0 SHL SUB AND PUSH2 0x29D9 PUSH2 0x2006 JUMP JUMPDEST PUSH1 0x1 PUSH1 0x1 PUSH1 0xA0 SHL SUB AND EQ PUSH2 0x29FF JUMPI PUSH1 0x40 MLOAD PUSH3 0x461BCD PUSH1 0xE5 SHL DUP2 MSTORE PUSH1 0x4 ADD PUSH2 0xCB6 SWAP1 PUSH2 0x51CB JUMP JUMPDEST PUSH1 0x94 SSTORE JUMP JUMPDEST CALLER SWAP1 JUMP JUMPDEST DUP3 PUSH1 0x40 MLOAD DUP1 PUSH1 0x60 ADD PUSH1 0x40 MSTORE DUP1 PUSH1 0x26 DUP2 MSTORE PUSH1 0x20 ADD PUSH2 0x561A PUSH1 0x26 SWAP2 CODECOPY PUSH1 0x1 PUSH1 0x1 PUSH1 0xA0 SHL SUB DUP3 AND PUSH1 0x0 SWAP1 DUP2 MSTORE PUSH1 0x6A PUSH1 0x20 MSTORE PUSH1 0x40 SWAP1 KECCAK256 SLOAD DUP2 SWAP1 PUSH1 0xFF AND ISZERO PUSH2 0x2A5E JUMPI PUSH1 0x40 MLOAD PUSH3 0x461BCD PUSH1 0xE5 SHL DUP2 MSTORE PUSH1 0x4 ADD PUSH2 0xCB6 SWAP2 SWAP1 PUSH2 0x4DA1 JUMP JUMPDEST POP DUP4 PUSH1 0x40 MLOAD DUP1 PUSH1 0x60 ADD PUSH1 0x40 MSTORE DUP1 PUSH1 0x28 DUP2 MSTORE PUSH1 0x20 ADD PUSH2 0x55A7 PUSH1 0x28 SWAP2 CODECOPY PUSH1 0x1 PUSH1 0x1 PUSH1 0xA0 SHL SUB DUP3 AND PUSH1 0x0 SWAP1 DUP2 MSTORE PUSH1 0x6A PUSH1 0x20 MSTORE PUSH1 0x40 SWAP1 KECCAK256 SLOAD DUP2 SWAP1 PUSH1 0xFF AND ISZERO PUSH2 0x2AB5 JUMPI PUSH1 0x40 MLOAD PUSH3 0x461BCD PUSH1 0xE5 SHL DUP2 MSTORE PUSH1 0x4 ADD PUSH2 0xCB6 SWAP2 SWAP1 PUSH2 0x4DA1 JUMP JUMPDEST POP PUSH1 0x1 PUSH1 0x1 PUSH1 0xA0 SHL SUB DUP8 AND PUSH2 0x2ADC JUMPI PUSH1 0x40 MLOAD PUSH3 0x461BCD PUSH1 0xE5 SHL DUP2 MSTORE PUSH1 0x4 ADD PUSH2 0xCB6 SWAP1 PUSH2 0x4E39 JUMP JUMPDEST PUSH1 0x1 PUSH1 0x1 PUSH1 0xA0 SHL SUB DUP7 AND PUSH2 0x2B02 JUMPI PUSH1 0x40 MLOAD PUSH3 0x461BCD PUSH1 0xE5 SHL DUP2 MSTORE PUSH1 0x4 ADD PUSH2 0xCB6 SWAP1 PUSH2 0x541F JUMP JUMPDEST PUSH1 0x1 PUSH1 0x1 PUSH1 0xA0 SHL SUB DUP1 DUP9 AND PUSH1 0x0 DUP2 DUP2 MSTORE PUSH1 0x67 PUSH1 0x20 SWAP1 DUP2 MSTORE PUSH1 0x40 DUP1 DUP4 KECCAK256 SWAP5 DUP12 AND DUP1 DUP5 MSTORE SWAP5 SWAP1 SWAP2 MSTORE SWAP1 DUP2 SWAP1 KECCAK256 DUP9 SWAP1 SSTORE MLOAD PUSH32 0x8C5BE1E5EBEC7D5BD14F71427D1E84F3DD0314C0F7B2291E5B200AC8C7C3B925 SWAP1 PUSH2 0x2B5D SWAP1 DUP10 SWAP1 PUSH2 0x54B9 JUMP JUMPDEST PUSH1 0x40 MLOAD DUP1 SWAP2 SUB SWAP1 LOG3 POP POP POP POP POP POP POP JUMP JUMPDEST PUSH2 0x2B76 PUSH2 0x2A04 JUMP JUMPDEST PUSH1 0x40 DUP1 MLOAD DUP1 DUP3 ADD DUP3 MSTORE PUSH1 0x20 DUP1 DUP3 MSTORE PUSH32 0x536166656D6F6F6E3A204164647265737320697320626C61636B6C6973746564 DUP2 DUP4 ADD MSTORE PUSH1 0x1 PUSH1 0x1 PUSH1 0xA0 SHL SUB DUP5 AND PUSH1 0x0 SWAP1 DUP2 MSTORE PUSH1 0x6A SWAP1 SWAP2 MSTORE SWAP2 SWAP1 SWAP2 KECCAK256 SLOAD DUP2 SWAP1 PUSH1 0xFF AND ISZERO PUSH2 0x2BE5 JUMPI PUSH1 0x40 MLOAD PUSH3 0x461BCD PUSH1 0xE5 SHL DUP2 MSTORE PUSH1 0x4 ADD PUSH2 0xCB6 SWAP2 SWAP1 PUSH2 0x4DA1 JUMP JUMPDEST POP DUP5 PUSH1 0x40 MLOAD DUP1 PUSH1 0x60 ADD PUSH1 0x40 MSTORE DUP1 PUSH1 0x25 DUP2 MSTORE PUSH1 0x20 ADD PUSH2 0x5582 PUSH1 0x25 SWAP2 CODECOPY PUSH1 0x1 PUSH1 0x1 PUSH1 0xA0 SHL SUB DUP3 AND PUSH1 0x0 SWAP1 DUP2 MSTORE PUSH1 0x6A PUSH1 0x20 MSTORE PUSH1 0x40 SWAP1 KECCAK256 SLOAD DUP2 SWAP1 PUSH1 0xFF AND ISZERO PUSH2 0x2C3C JUMPI PUSH1 0x40 MLOAD PUSH3 0x461BCD PUSH1 0xE5 SHL DUP2 MSTORE PUSH1 0x4 ADD PUSH2 0xCB6 SWAP2 SWAP1 PUSH2 0x4DA1 JUMP JUMPDEST POP DUP6 PUSH1 0x40 MLOAD DUP1 PUSH1 0x60 ADD PUSH1 0x40 MSTORE DUP1 PUSH1 0x23 DUP2 MSTORE PUSH1 0x20 ADD PUSH2 0x55F7 PUSH1 0x23 SWAP2 CODECOPY PUSH1 0x1 PUSH1 0x1 PUSH1 0xA0 SHL SUB DUP3 AND PUSH1 0x0 SWAP1 DUP2 MSTORE PUSH1 0x6A PUSH1 0x20 MSTORE PUSH1 0x40 SWAP1 KECCAK256 SLOAD DUP2 SWAP1 PUSH1 0xFF AND ISZERO PUSH2 0x2C93 JUMPI PUSH1 0x40 MLOAD PUSH3 0x461BCD PUSH1 0xE5 SHL DUP2 MSTORE PUSH1 0x4 ADD PUSH2 0xCB6 SWAP2 SWAP1 PUSH2 0x4DA1 JUMP JUMPDEST POP PUSH2 0x2C9C PUSH2 0x2A04 JUMP JUMPDEST DUP1 EXTCODESIZE PUSH4 0xFFFFFFFF DUP2 AND ISZERO PUSH2 0x2D61 JUMPI PUSH1 0x1 PUSH1 0x1 PUSH1 0xA0 SHL SUB DUP3 AND PUSH1 0x0 SWAP1 DUP2 MSTORE PUSH1 0x6B PUSH1 0x20 MSTORE PUSH1 0x40 SWAP1 KECCAK256 SLOAD DUP1 PUSH2 0x2D5F JUMPI PUSH1 0x0 DUP4 SWAP1 POP DUP1 PUSH1 0x1 PUSH1 0x1 PUSH1 0xA0 SHL SUB AND PUSH4 0xC45A0155 PUSH1 0x40 MLOAD DUP2 PUSH4 0xFFFFFFFF AND PUSH1 0xE0 SHL DUP2 MSTORE PUSH1 0x4 ADD PUSH1 0x20 PUSH1 0x40 MLOAD DUP1 DUP4 SUB DUP2 DUP7 DUP1 EXTCODESIZE ISZERO DUP1 ISZERO PUSH2 0x2D06 JUMPI PUSH1 0x0 DUP1 REVERT JUMPDEST POP GAS STATICCALL SWAP3 POP POP POP DUP1 ISZERO PUSH2 0x2D36 JUMPI POP PUSH1 0x40 DUP1 MLOAD PUSH1 0x1F RETURNDATASIZE SWAP1 DUP2 ADD PUSH1 0x1F NOT AND DUP3 ADD SWAP1 SWAP3 MSTORE PUSH2 0x2D33 SWAP2 DUP2 ADD SWAP1 PUSH2 0x4A1B JUMP JUMPDEST PUSH1 0x1 JUMPDEST PUSH2 0x2D3F JUMPI PUSH2 0x2D5D JUMP JUMPDEST POP PUSH1 0x1 PUSH1 0x1 PUSH1 0xA0 SHL SUB DUP5 AND PUSH1 0x0 SWAP1 DUP2 MSTORE PUSH1 0x6B PUSH1 0x20 MSTORE PUSH1 0x40 SWAP1 KECCAK256 PUSH1 0x1 SWAP1 SSTORE JUMPDEST POP JUMPDEST POP JUMPDEST POP PUSH1 0x1 PUSH1 0x1 PUSH1 0xA0 SHL SUB DUP11 AND PUSH2 0x2D88 JUMPI PUSH1 0x40 MLOAD PUSH3 0x461BCD PUSH1 0xE5 SHL DUP2 MSTORE PUSH1 0x4 ADD PUSH2 0xCB6 SWAP1 PUSH2 0x4DF4 JUMP JUMPDEST PUSH1 0x1 PUSH1 0x1 PUSH1 0xA0 SHL SUB DUP10 AND PUSH2 0x2DAE JUMPI PUSH1 0x40 MLOAD PUSH3 0x461BCD PUSH1 0xE5 SHL DUP2 MSTORE PUSH1 0x4 ADD PUSH2 0xCB6 SWAP1 PUSH2 0x5307 JUMP JUMPDEST PUSH1 0x0 DUP9 GT PUSH2 0x2DCE JUMPI PUSH1 0x40 MLOAD PUSH3 0x461BCD PUSH1 0xE5 SHL DUP2 MSTORE PUSH1 0x4 ADD PUSH2 0xCB6 SWAP1 PUSH2 0x5237 JUMP JUMPDEST PUSH2 0x2DD6 PUSH2 0x2006 JUMP JUMPDEST PUSH1 0x1 PUSH1 0x1 PUSH1 0xA0 SHL SUB AND DUP11 PUSH1 0x1 PUSH1 0x1 PUSH1 0xA0 SHL SUB AND EQ ISZERO DUP1 ISZERO PUSH2 0x2E10 JUMPI POP PUSH2 0x2DFA PUSH2 0x2006 JUMP JUMPDEST PUSH1 0x1 PUSH1 0x1 PUSH1 0xA0 SHL SUB AND DUP10 PUSH1 0x1 PUSH1 0x1 PUSH1 0xA0 SHL SUB AND EQ ISZERO JUMPDEST ISZERO PUSH2 0x2E37 JUMPI PUSH1 0x90 SLOAD DUP9 GT ISZERO PUSH2 0x2E37 JUMPI PUSH1 0x40 MLOAD PUSH3 0x461BCD PUSH1 0xE5 SHL DUP2 MSTORE PUSH1 0x4 ADD PUSH2 0xCB6 SWAP1 PUSH2 0x5057 JUMP JUMPDEST PUSH1 0x0 PUSH2 0x2E42 ADDRESS PUSH2 0x1A76 JUMP JUMPDEST SWAP1 POP PUSH1 0x90 SLOAD DUP2 LT PUSH2 0x2E52 JUMPI POP PUSH1 0x90 SLOAD JUMPDEST PUSH1 0x93 SLOAD DUP2 LT DUP1 ISZERO SWAP1 DUP2 SWAP1 PUSH2 0x2E70 JUMPI POP PUSH1 0x8F SLOAD PUSH1 0x1 PUSH1 0xA0 SHL SWAP1 DIV PUSH1 0xFF AND ISZERO JUMPDEST DUP1 ISZERO PUSH2 0x2E8A JUMPI POP PUSH1 0x8B SLOAD PUSH1 0x1 PUSH1 0x1 PUSH1 0xA0 SHL SUB DUP14 DUP2 AND SWAP2 AND EQ ISZERO JUMPDEST DUP1 ISZERO PUSH2 0x2E9D JUMPI POP PUSH1 0x95 SLOAD PUSH2 0x100 SWAP1 DIV PUSH1 0xFF AND JUMPDEST ISZERO PUSH2 0x2EB0 JUMPI PUSH1 0x93 SLOAD SWAP2 POP PUSH2 0x2EB0 DUP3 PUSH2 0x3B4C JUMP JUMPDEST PUSH1 0x1 PUSH1 0x1 PUSH1 0xA0 SHL SUB DUP13 AND PUSH1 0x0 SWAP1 DUP2 MSTORE PUSH1 0x68 PUSH1 0x20 MSTORE PUSH1 0x40 SWAP1 KECCAK256 SLOAD PUSH1 0x1 SWAP1 PUSH1 0xFF AND DUP1 PUSH2 0x2EF2 JUMPI POP PUSH1 0x1 PUSH1 0x1 PUSH1 0xA0 SHL SUB DUP13 AND PUSH1 0x0 SWAP1 DUP2 MSTORE PUSH1 0x68 PUSH1 0x20 MSTORE PUSH1 0x40 SWAP1 KECCAK256 SLOAD PUSH1 0xFF AND JUMPDEST ISZERO PUSH2 0x2EFB JUMPI POP PUSH1 0x0 JUMPDEST PUSH1 0x0 DUP2 ISZERO PUSH2 0x2F64 JUMPI POP PUSH1 0x1 PUSH1 0x1 PUSH1 0xA0 SHL SUB DUP14 AND PUSH1 0x0 DUP2 DUP2 MSTORE PUSH1 0x6B PUSH1 0x20 MSTORE PUSH1 0x40 SWAP1 KECCAK256 SLOAD SWAP1 PUSH2 0x2F26 PUSH2 0x2A04 JUMP JUMPDEST PUSH1 0x1 PUSH1 0x1 PUSH1 0xA0 SHL SUB AND EQ PUSH2 0x2F64 JUMPI PUSH1 0x6B PUSH1 0x0 PUSH2 0x2F40 PUSH2 0x2A04 JUMP JUMPDEST PUSH1 0x1 PUSH1 0x1 PUSH1 0xA0 SHL SUB AND PUSH1 0x1 PUSH1 0x1 PUSH1 0xA0 SHL SUB AND DUP2 MSTORE PUSH1 0x20 ADD SWAP1 DUP2 MSTORE PUSH1 0x20 ADD PUSH1 0x0 KECCAK256 SLOAD SWAP1 POP JUMPDEST PUSH2 0x2F71 DUP15 DUP15 DUP15 DUP5 DUP7 PUSH2 0x3B78 JUMP JUMPDEST POP POP POP POP POP POP POP POP POP POP POP POP POP POP JUMP JUMPDEST PUSH1 0x0 DUP2 DUP5 DUP5 GT ISZERO PUSH2 0x2FA5 JUMPI PUSH1 0x40 MLOAD PUSH3 0x461BCD PUSH1 0xE5 SHL DUP2 MSTORE PUSH1 0x4 ADD PUSH2 0xCB6 SWAP2 SWAP1 PUSH2 0x4DA1 JUMP JUMPDEST POP POP POP SWAP1 SUB SWAP1 JUMP JUMPDEST PUSH1 0x0 DUP1 PUSH1 0x0 PUSH2 0x2FBA PUSH2 0x3C9A JUMP JUMPDEST SWAP1 SWAP3 POP SWAP1 POP PUSH2 0x2FC9 DUP3 DUP3 PUSH2 0x2FD0 JUMP JUMPDEST SWAP3 POP POP POP SWAP1 JUMP JUMPDEST PUSH1 0x0 DUP1 DUP3 GT PUSH2 0x2FF1 JUMPI PUSH1 0x40 MLOAD PUSH3 0x461BCD PUSH1 0xE5 SHL DUP2 MSTORE PUSH1 0x4 ADD PUSH2 0xCB6 SWAP1 PUSH2 0x4FE9 JUMP JUMPDEST DUP2 DUP4 DUP2 PUSH2 0x2FFA JUMPI INVALID JUMPDEST DIV SWAP4 SWAP3 POP POP POP JUMP JUMPDEST PUSH1 0x0 PUSH2 0x304B DUP3 PUSH2 0x303F DUP6 PUSH2 0x3045 DUP9 PUSH1 0x80 ADD MLOAD PUSH2 0x303F DUP11 PUSH1 0x60 ADD MLOAD PUSH2 0x303F DUP13 PUSH1 0x40 ADD MLOAD PUSH2 0x303F DUP15 PUSH1 0x20 ADD MLOAD DUP16 PUSH1 0x0 ADD MLOAD PUSH2 0x306F SWAP1 SWAP2 SWAP1 PUSH4 0xFFFFFFFF AND JUMP JUMPDEST SWAP1 PUSH2 0x306F JUMP JUMPDEST SWAP1 PUSH2 0x326E JUMP JUMPDEST SWAP1 POP PUSH1 0x70 SLOAD DUP2 GT ISZERO PUSH2 0x11ED JUMPI PUSH1 0x40 MLOAD PUSH3 0x461BCD PUSH1 0xE5 SHL DUP2 MSTORE PUSH1 0x4 ADD PUSH2 0xCB6 SWAP1 PUSH2 0x53D9 JUMP JUMPDEST PUSH1 0x0 DUP3 DUP3 ADD DUP4 DUP2 LT ISZERO PUSH2 0xFDE JUMPI PUSH1 0x40 MLOAD PUSH3 0x461BCD PUSH1 0xE5 SHL DUP2 MSTORE PUSH1 0x4 ADD PUSH2 0xCB6 SWAP1 PUSH2 0x4F0D JUMP JUMPDEST PUSH2 0x309C PUSH2 0x489B JUMP JUMPDEST PUSH2 0x30A4 PUSH2 0x489B JUMP JUMPDEST PUSH2 0x30F1 PUSH1 0x40 MLOAD DUP1 PUSH1 0xE0 ADD PUSH1 0x40 MSTORE DUP1 DUP12 DUP2 MSTORE PUSH1 0x20 ADD DUP11 DUP2 MSTORE PUSH1 0x20 ADD DUP10 DUP2 MSTORE PUSH1 0x20 ADD DUP9 DUP2 MSTORE PUSH1 0x20 ADD DUP8 DUP2 MSTORE PUSH1 0x20 ADD DUP7 PUSH1 0x1 PUSH1 0x1 PUSH1 0xA0 SHL SUB AND DUP2 MSTORE PUSH1 0x20 ADD DUP6 PUSH1 0x1 PUSH1 0x1 PUSH1 0xA0 SHL SUB AND DUP2 MSTORE POP PUSH2 0x3E45 JUMP JUMPDEST SWAP1 POP PUSH2 0x30FC DUP5 PUSH2 0x1841 JUMP JUMPDEST PUSH2 0x3105 DUP4 PUSH2 0x1841 JUMP JUMPDEST PUSH1 0x89 DUP1 SLOAD PUSH1 0x1 DUP2 ADD DUP3 SSTORE PUSH1 0x0 SWAP2 SWAP1 SWAP2 MSTORE DUP2 MLOAD PUSH32 0x5BFA74C743914028161AE645D300D90BBDC659F169CA1469EC86B4960F7266CB PUSH1 0x7 SWAP1 SWAP3 MUL SWAP2 DUP3 ADD SSTORE PUSH1 0x20 DUP3 ADD MLOAD PUSH32 0x5BFA74C743914028161AE645D300D90BBDC659F169CA1469EC86B4960F7266CC DUP3 ADD SSTORE PUSH1 0x40 DUP3 ADD MLOAD PUSH32 0x5BFA74C743914028161AE645D300D90BBDC659F169CA1469EC86B4960F7266CD DUP3 ADD SSTORE PUSH1 0x60 DUP3 ADD MLOAD PUSH32 0x5BFA74C743914028161AE645D300D90BBDC659F169CA1469EC86B4960F7266CE DUP3 ADD SSTORE PUSH1 0x80 DUP3 ADD MLOAD PUSH32 0x5BFA74C743914028161AE645D300D90BBDC659F169CA1469EC86B4960F7266CF DUP3 ADD SSTORE PUSH1 0xA0 DUP3 ADD MLOAD PUSH32 0x5BFA74C743914028161AE645D300D90BBDC659F169CA1469EC86B4960F7266D0 DUP3 ADD DUP1 SLOAD PUSH1 0x1 PUSH1 0x1 PUSH1 0xA0 SHL SUB NOT SWAP1 DUP2 AND PUSH1 0x1 PUSH1 0x1 PUSH1 0xA0 SHL SUB SWAP4 DUP5 AND OR SWAP1 SWAP2 SSTORE PUSH1 0xC0 DUP5 ADD MLOAD PUSH32 0x5BFA74C743914028161AE645D300D90BBDC659F169CA1469EC86B4960F7266D1 SWAP1 SWAP4 ADD DUP1 SLOAD SWAP1 SWAP2 AND SWAP3 SWAP1 SWAP2 AND SWAP2 SWAP1 SWAP2 OR SWAP1 SSTORE SWAP9 SWAP8 POP POP POP POP POP POP POP POP JUMP JUMPDEST PUSH1 0x0 DUP3 DUP3 GT ISZERO PUSH2 0x3290 JUMPI PUSH1 0x40 MLOAD PUSH3 0x461BCD PUSH1 0xE5 SHL DUP2 MSTORE PUSH1 0x4 ADD PUSH2 0xCB6 SWAP1 PUSH2 0x4F7B JUMP JUMPDEST POP SWAP1 SUB SWAP1 JUMP JUMPDEST PUSH1 0x40 DUP1 MLOAD PUSH1 0x2 DUP1 DUP3 MSTORE PUSH1 0x60 DUP1 DUP4 ADD DUP5 MSTORE SWAP3 PUSH1 0x20 DUP4 ADD SWAP1 DUP1 CALLDATASIZE DUP4 CALLDATACOPY POP POP PUSH1 0x8A SLOAD PUSH1 0x40 DUP1 MLOAD PUSH4 0x15AB88C9 PUSH1 0xE3 SHL DUP2 MSTORE SWAP1 MLOAD SWAP4 SWAP5 POP PUSH1 0x1 PUSH1 0x1 PUSH1 0xA0 SHL SUB SWAP1 SWAP2 AND SWAP3 PUSH4 0xAD5C4648 SWAP3 POP PUSH1 0x4 DUP1 DUP4 ADD SWAP3 PUSH1 0x20 SWAP3 SWAP2 SWAP1 DUP3 SWAP1 SUB ADD DUP2 DUP7 DUP1 EXTCODESIZE ISZERO DUP1 ISZERO PUSH2 0x32FA JUMPI PUSH1 0x0 DUP1 REVERT JUMPDEST POP GAS STATICCALL ISZERO DUP1 ISZERO PUSH2 0x330E JUMPI RETURNDATASIZE PUSH1 0x0 DUP1 RETURNDATACOPY RETURNDATASIZE PUSH1 0x0 REVERT JUMPDEST POP POP POP POP PUSH1 0x40 MLOAD RETURNDATASIZE PUSH1 0x1F NOT PUSH1 0x1F DUP3 ADD AND DUP3 ADD DUP1 PUSH1 0x40 MSTORE POP DUP2 ADD SWAP1 PUSH2 0x3332 SWAP2 SWAP1 PUSH2 0x4A1B JUMP JUMPDEST DUP2 PUSH1 0x0 DUP2 MLOAD DUP2 LT PUSH2 0x333F JUMPI INVALID JUMPDEST PUSH1 0x20 MUL PUSH1 0x20 ADD ADD SWAP1 PUSH1 0x1 PUSH1 0x1 PUSH1 0xA0 SHL SUB AND SWAP1 DUP2 PUSH1 0x1 PUSH1 0x1 PUSH1 0xA0 SHL SUB AND DUP2 MSTORE POP POP ADDRESS DUP2 PUSH1 0x1 DUP2 MLOAD DUP2 LT PUSH2 0x336D JUMPI INVALID JUMPDEST PUSH1 0x20 MUL PUSH1 0x20 ADD ADD SWAP1 PUSH1 0x1 PUSH1 0x1 PUSH1 0xA0 SHL SUB AND SWAP1 DUP2 PUSH1 0x1 PUSH1 0x1 PUSH1 0xA0 SHL SUB AND DUP2 MSTORE POP POP PUSH2 0x33AA PUSH2 0x3398 PUSH2 0x2006 JUMP JUMPDEST PUSH1 0x8A SLOAD PUSH1 0x1 PUSH1 0x1 PUSH1 0xA0 SHL SUB AND DUP5 PUSH2 0x2A08 JUMP JUMPDEST PUSH1 0x8A SLOAD PUSH1 0x1 PUSH1 0x1 PUSH1 0xA0 SHL SUB AND PUSH4 0xB6F9DE95 DUP4 PUSH1 0x0 DUP5 PUSH2 0x33C7 PUSH2 0x2006 JUMP JUMPDEST TIMESTAMP PUSH1 0x40 MLOAD DUP7 PUSH4 0xFFFFFFFF AND PUSH1 0xE0 SHL DUP2 MSTORE PUSH1 0x4 ADD PUSH2 0x33E7 SWAP5 SWAP4 SWAP3 SWAP2 SWAP1 PUSH2 0x4D6C JUMP JUMPDEST PUSH1 0x0 PUSH1 0x40 MLOAD DUP1 DUP4 SUB DUP2 DUP6 DUP9 DUP1 EXTCODESIZE ISZERO DUP1 ISZERO PUSH2 0x3400 JUMPI PUSH1 0x0 DUP1 REVERT JUMPDEST POP GAS CALL ISZERO DUP1 ISZERO PUSH2 0x3414 JUMPI RETURNDATASIZE PUSH1 0x0 DUP1 RETURNDATACOPY RETURNDATASIZE PUSH1 0x0 REVERT JUMPDEST POP POP POP POP POP POP POP JUMP JUMPDEST PUSH1 0x8A SLOAD PUSH2 0x3435 SWAP1 ADDRESS SWAP1 PUSH1 0x1 PUSH1 0x1 PUSH1 0xA0 SHL SUB AND DUP5 PUSH2 0x2A08 JUMP JUMPDEST PUSH1 0x8A SLOAD PUSH1 0x1 PUSH1 0x1 PUSH1 0xA0 SHL SUB AND PUSH4 0xF305D719 DUP3 ADDRESS DUP6 PUSH1 0x0 DUP1 PUSH2 0x3454 PUSH2 0x2006 JUMP JUMPDEST TIMESTAMP PUSH1 0x40 MLOAD DUP9 PUSH4 0xFFFFFFFF AND PUSH1 0xE0 SHL DUP2 MSTORE PUSH1 0x4 ADD PUSH2 0x3476 SWAP7 SWAP6 SWAP5 SWAP4 SWAP3 SWAP2 SWAP1 PUSH2 0x4D26 JUMP JUMPDEST PUSH1 0x60 PUSH1 0x40 MLOAD DUP1 DUP4 SUB DUP2 DUP6 DUP9 DUP1 EXTCODESIZE ISZERO DUP1 ISZERO PUSH2 0x348F JUMPI PUSH1 0x0 DUP1 REVERT JUMPDEST POP GAS CALL ISZERO DUP1 ISZERO PUSH2 0x34A3 JUMPI RETURNDATASIZE PUSH1 0x0 DUP1 RETURNDATACOPY RETURNDATASIZE PUSH1 0x0 REVERT JUMPDEST POP POP POP POP POP PUSH1 0x40 MLOAD RETURNDATASIZE PUSH1 0x1F NOT PUSH1 0x1F DUP3 ADD AND DUP3 ADD DUP1 PUSH1 0x40 MSTORE POP DUP2 ADD SWAP1 PUSH2 0x34C8 SWAP2 SWAP1 PUSH2 0x4BE3 JUMP JUMPDEST POP POP POP POP POP JUMP JUMPDEST PUSH1 0x1 PUSH1 0x1 PUSH1 0xA0 SHL SUB DUP3 AND PUSH2 0x34F5 JUMPI PUSH1 0x40 MLOAD PUSH3 0x461BCD PUSH1 0xE5 SHL DUP2 MSTORE PUSH1 0x4 ADD PUSH2 0xCB6 SWAP1 PUSH2 0x5194 JUMP JUMPDEST PUSH1 0x8E SLOAD PUSH2 0x13F7 SWAP1 PUSH1 0x1 PUSH1 0x1 PUSH1 0xA0 SHL SUB AND DUP4 DUP4 PUSH1 0x0 DUP1 PUSH2 0x3B78 JUMP JUMPDEST PUSH2 0x3517 PUSH2 0x48EA JUMP JUMPDEST PUSH2 0x351F PUSH2 0x4936 JUMP JUMPDEST PUSH2 0x3529 DUP5 DUP5 PUSH2 0x3EAD JUMP JUMPDEST SWAP1 POP PUSH1 0x0 PUSH2 0x3558 DUP3 PUSH1 0xA0 ADD MLOAD PUSH2 0x303F DUP5 PUSH1 0x80 ADD MLOAD PUSH2 0x303F DUP7 PUSH1 0x20 ADD MLOAD DUP8 PUSH1 0x40 ADD MLOAD PUSH2 0x306F SWAP1 SWAP2 SWAP1 PUSH4 0xFFFFFFFF AND JUMP JUMPDEST SWAP1 POP PUSH1 0x0 DUP1 PUSH1 0x0 PUSH2 0x3576 DUP9 DUP7 PUSH1 0x60 ADD MLOAD DUP7 PUSH2 0x3571 PUSH2 0x2FAD JUMP JUMPDEST PUSH2 0x3FF3 JUMP JUMPDEST SWAP3 POP SWAP3 POP SWAP3 POP PUSH1 0x40 MLOAD DUP1 PUSH2 0x120 ADD PUSH1 0x40 MSTORE DUP1 DUP5 DUP2 MSTORE PUSH1 0x20 ADD DUP4 DUP2 MSTORE PUSH1 0x20 ADD DUP3 DUP2 MSTORE PUSH1 0x20 ADD DUP7 PUSH1 0x0 ADD MLOAD DUP2 MSTORE PUSH1 0x20 ADD DUP7 PUSH1 0x20 ADD MLOAD DUP2 MSTORE PUSH1 0x20 ADD DUP7 PUSH1 0x40 ADD MLOAD DUP2 MSTORE PUSH1 0x20 ADD DUP7 PUSH1 0x60 ADD MLOAD DUP2 MSTORE PUSH1 0x20 ADD DUP7 PUSH1 0x80 ADD MLOAD DUP2 MSTORE PUSH1 0x20 ADD DUP7 PUSH1 0xA0 ADD MLOAD DUP2 MSTORE POP SWAP6 POP POP POP POP POP POP SWAP3 SWAP2 POP POP JUMP JUMPDEST PUSH1 0x0 PUSH2 0x35EC ADDRESS PUSH2 0x4043 JUMP JUMPDEST ISZERO SWAP1 POP SWAP1 JUMP JUMPDEST PUSH1 0x0 SLOAD PUSH2 0x100 SWAP1 DIV PUSH1 0xFF AND DUP1 PUSH2 0x360B JUMPI POP PUSH2 0x360B PUSH2 0x35E1 JUMP JUMPDEST DUP1 PUSH2 0x3619 JUMPI POP PUSH1 0x0 SLOAD PUSH1 0xFF AND ISZERO JUMPDEST PUSH2 0x3635 JUMPI PUSH1 0x40 MLOAD PUSH3 0x461BCD PUSH1 0xE5 SHL DUP2 MSTORE PUSH1 0x4 ADD PUSH2 0xCB6 SWAP1 PUSH2 0x509F JUMP JUMPDEST PUSH1 0x0 SLOAD PUSH2 0x100 SWAP1 DIV PUSH1 0xFF AND ISZERO DUP1 ISZERO PUSH2 0x3660 JUMPI PUSH1 0x0 DUP1 SLOAD PUSH1 0xFF NOT PUSH2 0xFF00 NOT SWAP1 SWAP2 AND PUSH2 0x100 OR AND PUSH1 0x1 OR SWAP1 SSTORE JUMPDEST DUP1 ISZERO PUSH2 0x1A63 JUMPI PUSH1 0x0 DUP1 SLOAD PUSH2 0xFF00 NOT AND SWAP1 SSTORE POP JUMP JUMPDEST PUSH1 0x0 SLOAD PUSH2 0x100 SWAP1 DIV PUSH1 0xFF AND DUP1 PUSH2 0x368D JUMPI POP PUSH2 0x368D PUSH2 0x35E1 JUMP JUMPDEST DUP1 PUSH2 0x369B JUMPI POP PUSH1 0x0 SLOAD PUSH1 0xFF AND ISZERO JUMPDEST PUSH2 0x36B7 JUMPI PUSH1 0x40 MLOAD PUSH3 0x461BCD PUSH1 0xE5 SHL DUP2 MSTORE PUSH1 0x4 ADD PUSH2 0xCB6 SWAP1 PUSH2 0x509F JUMP JUMPDEST PUSH1 0x0 SLOAD PUSH2 0x100 SWAP1 DIV PUSH1 0xFF AND ISZERO DUP1 ISZERO PUSH2 0x36E2 JUMPI PUSH1 0x0 DUP1 SLOAD PUSH1 0xFF NOT PUSH2 0xFF00 NOT SWAP1 SWAP2 AND PUSH2 0x100 OR AND PUSH1 0x1 OR SWAP1 SSTORE JUMPDEST PUSH1 0x0 PUSH2 0x36EC PUSH2 0x2A04 JUMP JUMPDEST PUSH1 0x33 DUP1 SLOAD PUSH1 0x1 PUSH1 0x1 PUSH1 0xA0 SHL SUB NOT AND PUSH1 0x1 PUSH1 0x1 PUSH1 0xA0 SHL SUB DUP4 AND SWAP1 DUP2 OR SWAP1 SWAP2 SSTORE PUSH1 0x40 MLOAD SWAP2 SWAP3 POP SWAP1 PUSH1 0x0 SWAP1 PUSH32 0x8BE0079C531659141344CD1FD0A4F28419497F9722A3DAAFE3B4186F6B6457E0 SWAP1 DUP3 SWAP1 LOG3 POP DUP1 ISZERO PUSH2 0x1A63 JUMPI PUSH1 0x0 DUP1 SLOAD PUSH2 0xFF00 NOT AND SWAP1 SSTORE POP JUMP JUMPDEST PUSH1 0x0 SLOAD PUSH2 0x100 SWAP1 DIV PUSH1 0xFF AND DUP1 PUSH2 0x3767 JUMPI POP PUSH2 0x3767 PUSH2 0x35E1 JUMP JUMPDEST DUP1 PUSH2 0x3775 JUMPI POP PUSH1 0x0 SLOAD PUSH1 0xFF AND ISZERO JUMPDEST PUSH2 0x3791 JUMPI PUSH1 0x40 MLOAD PUSH3 0x461BCD PUSH1 0xE5 SHL DUP2 MSTORE PUSH1 0x4 ADD PUSH2 0xCB6 SWAP1 PUSH2 0x509F JUMP JUMPDEST PUSH1 0x0 SLOAD PUSH2 0x100 SWAP1 DIV PUSH1 0xFF AND ISZERO DUP1 ISZERO PUSH2 0x37BC JUMPI PUSH1 0x0 DUP1 SLOAD PUSH1 0xFF NOT PUSH2 0xFF00 NOT SWAP1 SWAP2 AND PUSH2 0x100 OR AND PUSH1 0x1 OR SWAP1 SSTORE JUMPDEST PUSH1 0x40 DUP1 MLOAD DUP1 DUP3 ADD SWAP1 SWAP2 MSTORE PUSH1 0x8 DUP1 DUP3 MSTORE PUSH8 0x29B0B332A6B7B7B7 PUSH1 0xC1 SHL PUSH1 0x20 SWAP1 SWAP3 ADD SWAP2 DUP3 MSTORE PUSH2 0x37EB SWAP2 PUSH1 0x71 SWAP2 PUSH2 0x496C JUMP JUMPDEST POP PUSH1 0x40 DUP1 MLOAD DUP1 DUP3 ADD SWAP1 SWAP2 MSTORE PUSH1 0x3 DUP1 DUP3 MSTORE PUSH3 0x53464D PUSH1 0xE8 SHL PUSH1 0x20 SWAP1 SWAP3 ADD SWAP2 DUP3 MSTORE PUSH2 0x3816 SWAP2 PUSH1 0x72 SWAP2 PUSH2 0x496C JUMP JUMPDEST POP PUSH1 0x73 DUP1 SLOAD PUSH1 0xFF NOT AND PUSH1 0x9 OR SWAP1 SSTORE PUSH9 0x3635C9ADC5DEA00000 PUSH1 0x6D DUP2 SWAP1 SSTORE PUSH1 0x0 NOT MOD NOT PUSH1 0x6E SSTORE PUSH2 0x3E8 PUSH1 0x70 SSTORE PUSH8 0x4563918244F40000 PUSH1 0x90 SSTORE PUSH8 0x6F05B59D3B20000 PUSH1 0x91 SSTORE PUSH1 0x8F DUP1 SLOAD PUSH1 0x1 PUSH1 0x1 PUSH1 0xA0 SHL SUB NOT AND PUSH2 0xDEAD OR SWAP1 SSTORE PUSH2 0x3875 PUSH2 0x2A04 JUMP JUMPDEST PUSH1 0x8E DUP1 SLOAD PUSH1 0x1 PUSH1 0x1 PUSH1 0xA0 SHL SUB NOT SWAP1 DUP2 AND PUSH1 0x1 PUSH1 0x1 PUSH1 0xA0 SHL SUB SWAP4 DUP5 AND OR SWAP2 DUP3 SWAP1 SSTORE PUSH1 0x6E SLOAD SWAP2 DUP4 AND PUSH1 0x0 SWAP1 DUP2 MSTORE PUSH1 0x65 PUSH1 0x20 SWAP1 DUP2 MSTORE PUSH1 0x40 SWAP2 DUP3 SWAP1 KECCAK256 SWAP4 SWAP1 SWAP4 SSTORE PUSH1 0x8A DUP1 SLOAD SWAP1 SWAP3 AND DUP7 DUP6 AND OR SWAP2 DUP3 SWAP1 SSTORE DUP1 MLOAD PUSH4 0x15AB88C9 PUSH1 0xE3 SHL DUP2 MSTORE SWAP1 MLOAD SWAP2 SWAP1 SWAP4 AND SWAP3 PUSH4 0xAD5C4648 SWAP3 PUSH1 0x4 DUP1 DUP4 ADD SWAP4 SWAP2 SWAP3 DUP3 SWAP1 SUB ADD DUP2 DUP7 DUP1 EXTCODESIZE ISZERO DUP1 ISZERO PUSH2 0x38F5 JUMPI PUSH1 0x0 DUP1 REVERT JUMPDEST POP GAS STATICCALL ISZERO DUP1 ISZERO PUSH2 0x3909 JUMPI RETURNDATASIZE PUSH1 0x0 DUP1 RETURNDATACOPY RETURNDATASIZE PUSH1 0x0 REVERT JUMPDEST POP POP POP POP PUSH1 0x40 MLOAD RETURNDATASIZE PUSH1 0x1F NOT PUSH1 0x1F DUP3 ADD AND DUP3 ADD DUP1 PUSH1 0x40 MSTORE POP DUP2 ADD SWAP1 PUSH2 0x392D SWAP2 SWAP1 PUSH2 0x4A1B JUMP JUMPDEST PUSH1 0x8C DUP1 SLOAD PUSH1 0x1 PUSH1 0x1 PUSH1 0xA0 SHL SUB NOT AND PUSH1 0x1 PUSH1 0x1 PUSH1 0xA0 SHL SUB SWAP3 DUP4 AND OR SWAP1 SSTORE PUSH1 0x8A SLOAD PUSH1 0x40 DUP1 MLOAD PUSH4 0xC45A0155 PUSH1 0xE0 SHL DUP2 MSTORE SWAP1 MLOAD SWAP2 SWAP1 SWAP3 AND SWAP2 PUSH4 0xC45A0155 SWAP2 PUSH1 0x4 DUP1 DUP4 ADD SWAP3 PUSH1 0x20 SWAP3 SWAP2 SWAP1 DUP3 SWAP1 SUB ADD DUP2 DUP7 DUP1 EXTCODESIZE ISZERO DUP1 ISZERO PUSH2 0x3986 JUMPI PUSH1 0x0 DUP1 REVERT JUMPDEST POP GAS STATICCALL ISZERO DUP1 ISZERO PUSH2 0x399A JUMPI RETURNDATASIZE PUSH1 0x0 DUP1 RETURNDATACOPY RETURNDATASIZE PUSH1 0x0 REVERT JUMPDEST POP POP POP POP PUSH1 0x40 MLOAD RETURNDATASIZE PUSH1 0x1F NOT PUSH1 0x1F DUP3 ADD AND DUP3 ADD DUP1 PUSH1 0x40 MSTORE POP DUP2 ADD SWAP1 PUSH2 0x39BE SWAP2 SWAP1 PUSH2 0x4A1B JUMP JUMPDEST PUSH1 0x8C SLOAD PUSH1 0x40 MLOAD PUSH4 0x64E329CB PUSH1 0xE1 SHL DUP2 MSTORE PUSH1 0x1 PUSH1 0x1 PUSH1 0xA0 SHL SUB SWAP3 DUP4 AND SWAP3 PUSH4 0xC9C65396 SWAP3 PUSH2 0x39F2 SWAP3 ADDRESS SWAP3 SWAP1 SWAP2 AND SWAP1 PUSH1 0x4 ADD PUSH2 0x4CCF JUMP JUMPDEST PUSH1 0x20 PUSH1 0x40 MLOAD DUP1 DUP4 SUB DUP2 PUSH1 0x0 DUP8 DUP1 EXTCODESIZE ISZERO DUP1 ISZERO PUSH2 0x3A0C JUMPI PUSH1 0x0 DUP1 REVERT JUMPDEST POP GAS CALL ISZERO DUP1 ISZERO PUSH2 0x3A20 JUMPI RETURNDATASIZE PUSH1 0x0 DUP1 RETURNDATACOPY RETURNDATASIZE PUSH1 0x0 REVERT JUMPDEST POP POP POP POP PUSH1 0x40 MLOAD RETURNDATASIZE PUSH1 0x1F NOT PUSH1 0x1F DUP3 ADD AND DUP3 ADD DUP1 PUSH1 0x40 MSTORE POP DUP2 ADD SWAP1 PUSH2 0x3A44 SWAP2 SWAP1 PUSH2 0x4A1B JUMP JUMPDEST PUSH1 0x8B DUP1 SLOAD PUSH1 0x1 PUSH1 0x1 PUSH1 0xA0 SHL SUB NOT AND PUSH1 0x1 PUSH1 0x1 PUSH1 0xA0 SHL SUB SWAP3 SWAP1 SWAP3 AND SWAP2 SWAP1 SWAP2 OR SWAP1 SSTORE PUSH1 0x1 PUSH1 0x68 PUSH1 0x0 PUSH2 0x3A72 PUSH2 0x2006 JUMP JUMPDEST PUSH1 0x1 PUSH1 0x1 PUSH1 0xA0 SHL SUB AND DUP2 MSTORE PUSH1 0x20 DUP1 DUP3 ADD SWAP3 SWAP1 SWAP3 MSTORE PUSH1 0x40 SWAP1 DUP2 ADD PUSH1 0x0 SWAP1 DUP2 KECCAK256 DUP1 SLOAD SWAP5 ISZERO ISZERO PUSH1 0xFF NOT SWAP6 DUP7 AND OR SWAP1 SSTORE ADDRESS DUP2 MSTORE PUSH1 0x68 SWAP1 SWAP3 MSTORE SWAP1 KECCAK256 DUP1 SLOAD SWAP1 SWAP2 AND PUSH1 0x1 OR SWAP1 SSTORE PUSH2 0x3ABA PUSH2 0x4049 JUMP JUMPDEST PUSH2 0x3AC2 PUSH2 0x2A04 JUMP JUMPDEST PUSH1 0x1 PUSH1 0x1 PUSH1 0xA0 SHL SUB AND PUSH1 0x0 PUSH1 0x1 PUSH1 0x1 PUSH1 0xA0 SHL SUB AND PUSH1 0x0 DUP1 MLOAD PUSH1 0x20 PUSH2 0x5640 DUP4 CODECOPY DUP2 MLOAD SWAP2 MSTORE PUSH1 0x6D SLOAD PUSH1 0x40 MLOAD PUSH2 0x3AF5 SWAP2 SWAP1 PUSH2 0x54B9 JUMP JUMPDEST PUSH1 0x40 MLOAD DUP1 SWAP2 SUB SWAP1 LOG3 DUP1 ISZERO PUSH2 0x13F7 JUMPI PUSH1 0x0 DUP1 SLOAD PUSH2 0xFF00 NOT AND SWAP1 SSTORE POP POP JUMP JUMPDEST PUSH1 0x0 DUP3 PUSH2 0x3B21 JUMPI POP PUSH1 0x0 PUSH2 0xC71 JUMP JUMPDEST DUP3 DUP3 MUL DUP3 DUP5 DUP3 DUP2 PUSH2 0x3B2E JUMPI INVALID JUMPDEST DIV EQ PUSH2 0xFDE JUMPI PUSH1 0x40 MLOAD PUSH3 0x461BCD PUSH1 0xE5 SHL DUP2 MSTORE PUSH1 0x4 ADD PUSH2 0xCB6 SWAP1 PUSH2 0x5153 JUMP JUMPDEST PUSH1 0x8F DUP1 SLOAD PUSH1 0xFF PUSH1 0xA0 SHL NOT AND PUSH1 0x1 PUSH1 0xA0 SHL OR SWAP1 SSTORE PUSH2 0x3B68 DUP2 PUSH2 0x4176 JUMP JUMPDEST POP PUSH1 0x8F DUP1 SLOAD PUSH1 0xFF PUSH1 0xA0 SHL NOT AND SWAP1 SSTORE JUMP JUMPDEST DUP1 PUSH2 0x3B85 JUMPI PUSH2 0x3B85 PUSH2 0x42D2 JUMP JUMPDEST PUSH1 0x1 PUSH1 0x1 PUSH1 0xA0 SHL SUB DUP6 AND PUSH1 0x0 SWAP1 DUP2 MSTORE PUSH1 0x69 PUSH1 0x20 MSTORE PUSH1 0x40 SWAP1 KECCAK256 SLOAD PUSH1 0xFF AND ISZERO DUP1 ISZERO PUSH2 0x3BC7 JUMPI POP PUSH1 0x1 PUSH1 0x1 PUSH1 0xA0 SHL SUB DUP5 AND PUSH1 0x0 SWAP1 DUP2 MSTORE PUSH1 0x69 PUSH1 0x20 MSTORE PUSH1 0x40 SWAP1 KECCAK256 SLOAD PUSH1 0xFF AND ISZERO JUMPDEST ISZERO PUSH2 0x3BDD JUMPI PUSH2 0x3BD8 DUP6 DUP6 DUP6 DUP6 PUSH2 0x43D4 JUMP JUMPDEST PUSH2 0x34C8 JUMP JUMPDEST PUSH1 0x1 PUSH1 0x1 PUSH1 0xA0 SHL SUB DUP6 AND PUSH1 0x0 SWAP1 DUP2 MSTORE PUSH1 0x69 PUSH1 0x20 MSTORE PUSH1 0x40 SWAP1 KECCAK256 SLOAD PUSH1 0xFF AND DUP1 ISZERO PUSH2 0x3C1E JUMPI POP PUSH1 0x1 PUSH1 0x1 PUSH1 0xA0 SHL SUB DUP5 AND PUSH1 0x0 SWAP1 DUP2 MSTORE PUSH1 0x69 PUSH1 0x20 MSTORE PUSH1 0x40 SWAP1 KECCAK256 SLOAD PUSH1 0xFF AND ISZERO JUMPDEST ISZERO PUSH2 0x3C2F JUMPI PUSH2 0x3BD8 DUP6 DUP6 DUP6 DUP6 PUSH2 0x44BE JUMP JUMPDEST PUSH1 0x1 PUSH1 0x1 PUSH1 0xA0 SHL SUB DUP6 AND PUSH1 0x0 SWAP1 DUP2 MSTORE PUSH1 0x69 PUSH1 0x20 MSTORE PUSH1 0x40 SWAP1 KECCAK256 SLOAD PUSH1 0xFF AND ISZERO DUP1 ISZERO PUSH2 0x3C70 JUMPI POP PUSH1 0x1 PUSH1 0x1 PUSH1 0xA0 SHL SUB DUP5 AND PUSH1 0x0 SWAP1 DUP2 MSTORE PUSH1 0x69 PUSH1 0x20 MSTORE PUSH1 0x40 SWAP1 KECCAK256 SLOAD PUSH1 0xFF AND JUMPDEST ISZERO PUSH2 0x3C81 JUMPI PUSH2 0x3BD8 DUP6 DUP6 DUP6 DUP6 PUSH2 0x4529 JUMP JUMPDEST PUSH2 0x3C8D DUP6 DUP6 DUP6 DUP6 PUSH2 0x45D4 JUMP JUMPDEST DUP1 PUSH2 0x34C8 JUMPI PUSH2 0x34C8 PUSH2 0x463F JUMP JUMPDEST PUSH1 0x0 DUP1 PUSH1 0x6E SLOAD PUSH1 0x96 SLOAD GT DUP1 PUSH2 0x3CB2 JUMPI POP PUSH1 0x6D SLOAD PUSH1 0x97 SLOAD GT JUMPDEST ISZERO PUSH2 0x3CC4 JUMPI POP POP PUSH1 0x6E SLOAD PUSH1 0x6D SLOAD PUSH2 0x3E41 JUMP JUMPDEST PUSH1 0x6E SLOAD PUSH1 0x6D SLOAD PUSH2 0x3CD4 DUP3 DUP3 PUSH2 0x2FD0 JUMP JUMPDEST DUP3 LT ISZERO PUSH2 0x3CEC JUMPI PUSH1 0x6E SLOAD PUSH1 0x6D SLOAD SWAP4 POP SWAP4 POP POP POP PUSH2 0x3E41 JUMP JUMPDEST PUSH1 0x0 JUMPDEST PUSH1 0x6C SLOAD DUP2 LT ISZERO PUSH2 0x3E13 JUMPI DUP3 PUSH1 0x65 PUSH1 0x0 PUSH1 0x6C DUP5 DUP2 SLOAD DUP2 LT PUSH2 0x3D0B JUMPI INVALID JUMPDEST PUSH1 0x0 SWAP2 DUP3 MSTORE PUSH1 0x20 DUP1 DUP4 KECCAK256 SWAP1 SWAP2 ADD SLOAD PUSH1 0x1 PUSH1 0x1 PUSH1 0xA0 SHL SUB AND DUP4 MSTORE DUP3 ADD SWAP3 SWAP1 SWAP3 MSTORE PUSH1 0x40 ADD SWAP1 KECCAK256 SLOAD GT DUP1 PUSH2 0x3D70 JUMPI POP DUP2 PUSH1 0x66 PUSH1 0x0 PUSH1 0x6C DUP5 DUP2 SLOAD DUP2 LT PUSH2 0x3D49 JUMPI INVALID JUMPDEST PUSH1 0x0 SWAP2 DUP3 MSTORE PUSH1 0x20 DUP1 DUP4 KECCAK256 SWAP1 SWAP2 ADD SLOAD PUSH1 0x1 PUSH1 0x1 PUSH1 0xA0 SHL SUB AND DUP4 MSTORE DUP3 ADD SWAP3 SWAP1 SWAP3 MSTORE PUSH1 0x40 ADD SWAP1 KECCAK256 SLOAD GT JUMPDEST ISZERO PUSH2 0x3D87 JUMPI PUSH1 0x6E SLOAD PUSH1 0x6D SLOAD SWAP5 POP SWAP5 POP POP POP POP PUSH2 0x3E41 JUMP JUMPDEST PUSH2 0x3DC7 PUSH1 0x65 PUSH1 0x0 PUSH1 0x6C DUP5 DUP2 SLOAD DUP2 LT PUSH2 0x3D9B JUMPI INVALID JUMPDEST PUSH1 0x0 SWAP2 DUP3 MSTORE PUSH1 0x20 DUP1 DUP4 KECCAK256 SWAP1 SWAP2 ADD SLOAD PUSH1 0x1 PUSH1 0x1 PUSH1 0xA0 SHL SUB AND DUP4 MSTORE DUP3 ADD SWAP3 SWAP1 SWAP3 MSTORE PUSH1 0x40 ADD SWAP1 KECCAK256 SLOAD DUP5 SWAP1 PUSH2 0x326E JUMP JUMPDEST SWAP3 POP PUSH2 0x3E09 PUSH1 0x66 PUSH1 0x0 PUSH1 0x6C DUP5 DUP2 SLOAD DUP2 LT PUSH2 0x3DDD JUMPI INVALID JUMPDEST PUSH1 0x0 SWAP2 DUP3 MSTORE PUSH1 0x20 DUP1 DUP4 KECCAK256 SWAP1 SWAP2 ADD SLOAD PUSH1 0x1 PUSH1 0x1 PUSH1 0xA0 SHL SUB AND DUP4 MSTORE DUP3 ADD SWAP3 SWAP1 SWAP3 MSTORE PUSH1 0x40 ADD SWAP1 KECCAK256 SLOAD DUP4 SWAP1 PUSH2 0x326E JUMP JUMPDEST SWAP2 POP PUSH1 0x1 ADD PUSH2 0x3CEF JUMP JUMPDEST POP PUSH1 0x6D SLOAD PUSH1 0x6E SLOAD PUSH2 0x3E23 SWAP2 PUSH2 0x2FD0 JUMP JUMPDEST DUP3 LT ISZERO PUSH2 0x3E3B JUMPI PUSH1 0x6E SLOAD PUSH1 0x6D SLOAD SWAP4 POP SWAP4 POP POP POP PUSH2 0x3E41 JUMP JUMPDEST SWAP1 SWAP3 POP SWAP1 POP JUMPDEST SWAP1 SWAP2 JUMP JUMPDEST PUSH2 0x3E4D PUSH2 0x489B JUMP JUMPDEST PUSH1 0x0 PUSH2 0x3E82 DUP4 PUSH1 0x80 ADD MLOAD PUSH2 0x303F DUP6 PUSH1 0x60 ADD MLOAD PUSH2 0x303F DUP8 PUSH1 0x40 ADD MLOAD PUSH2 0x303F DUP10 PUSH1 0x20 ADD MLOAD DUP11 PUSH1 0x0 ADD MLOAD PUSH2 0x306F SWAP1 SWAP2 SWAP1 PUSH4 0xFFFFFFFF AND JUMP JUMPDEST SWAP1 POP PUSH1 0x70 SLOAD DUP2 GT ISZERO PUSH2 0x3EA6 JUMPI PUSH1 0x40 MLOAD PUSH3 0x461BCD PUSH1 0xE5 SHL DUP2 MSTORE PUSH1 0x4 ADD PUSH2 0xCB6 SWAP1 PUSH2 0x53D9 JUMP JUMPDEST POP SWAP1 SWAP2 SWAP1 POP JUMP JUMPDEST PUSH2 0x3EB5 PUSH2 0x4936 JUMP JUMPDEST PUSH2 0x3EBD PUSH2 0x489B JUMP JUMPDEST PUSH1 0x89 DUP4 DUP2 SLOAD DUP2 LT PUSH2 0x3ECA JUMPI INVALID JUMPDEST PUSH1 0x0 SWAP2 DUP3 MSTORE PUSH1 0x20 SWAP2 DUP3 SWAP1 KECCAK256 PUSH1 0x40 DUP1 MLOAD PUSH1 0xE0 DUP2 ADD DUP3 MSTORE PUSH1 0x7 SWAP1 SWAP4 MUL SWAP1 SWAP2 ADD DUP1 SLOAD DUP4 MSTORE PUSH1 0x1 DUP2 ADD SLOAD SWAP4 DUP4 ADD SWAP4 SWAP1 SWAP4 MSTORE PUSH1 0x2 DUP4 ADD SLOAD SWAP1 DUP3 ADD MSTORE PUSH1 0x3 DUP3 ADD SLOAD PUSH1 0x60 DUP3 ADD MSTORE PUSH1 0x4 DUP3 ADD SLOAD PUSH1 0x80 DUP3 ADD MSTORE PUSH1 0x5 DUP3 ADD SLOAD PUSH1 0x1 PUSH1 0x1 PUSH1 0xA0 SHL SUB SWAP1 DUP2 AND PUSH1 0xA0 DUP4 ADD MSTORE PUSH1 0x6 SWAP1 SWAP3 ADD SLOAD SWAP1 SWAP2 AND PUSH1 0xC0 DUP3 ADD MSTORE SWAP1 POP PUSH2 0x3F41 PUSH2 0x4936 JUMP JUMPDEST PUSH1 0x40 MLOAD DUP1 PUSH1 0xC0 ADD PUSH1 0x40 MSTORE DUP1 PUSH1 0x0 DUP2 MSTORE PUSH1 0x20 ADD PUSH2 0x3F61 DUP8 DUP6 PUSH1 0x0 ADD MLOAD PUSH2 0x464F JUMP JUMPDEST DUP2 MSTORE PUSH1 0x20 ADD PUSH2 0x3F74 DUP8 DUP6 PUSH1 0x20 ADD MLOAD PUSH2 0x464F JUMP JUMPDEST DUP2 MSTORE PUSH1 0x20 ADD PUSH2 0x3F87 DUP8 DUP6 PUSH1 0x40 ADD MLOAD PUSH2 0x464F JUMP JUMPDEST DUP2 MSTORE PUSH1 0x20 ADD PUSH2 0x3F9A DUP8 DUP6 PUSH1 0x60 ADD MLOAD PUSH2 0x464F JUMP JUMPDEST DUP2 MSTORE PUSH1 0x20 ADD PUSH2 0x3FAD DUP8 DUP6 PUSH1 0x80 ADD MLOAD PUSH2 0x464F JUMP JUMPDEST DUP2 MSTORE POP SWAP1 POP PUSH2 0x3FE9 DUP2 PUSH1 0xA0 ADD MLOAD PUSH2 0x3045 DUP4 PUSH1 0x80 ADD MLOAD PUSH2 0x3045 DUP6 PUSH1 0x40 ADD MLOAD PUSH2 0x3045 DUP8 PUSH1 0x60 ADD MLOAD PUSH2 0x3045 DUP10 PUSH1 0x20 ADD MLOAD DUP15 PUSH2 0x326E SWAP1 SWAP2 SWAP1 PUSH4 0xFFFFFFFF AND JUMP JUMPDEST DUP2 MSTORE SWAP5 SWAP4 POP POP POP POP JUMP JUMPDEST PUSH1 0x0 DUP1 DUP1 DUP1 PUSH2 0x4002 DUP9 DUP7 PUSH2 0x3B12 JUMP JUMPDEST SWAP1 POP PUSH1 0x0 PUSH2 0x4010 DUP9 DUP8 PUSH2 0x3B12 JUMP JUMPDEST SWAP1 POP PUSH1 0x0 PUSH2 0x401E DUP9 DUP9 PUSH2 0x3B12 JUMP JUMPDEST SWAP1 POP PUSH1 0x0 PUSH2 0x4030 DUP3 PUSH2 0x3045 DUP7 DUP7 PUSH2 0x326E JUMP JUMPDEST SWAP4 SWAP12 SWAP4 SWAP11 POP SWAP2 SWAP9 POP SWAP2 SWAP7 POP POP POP POP POP POP POP JUMP JUMPDEST EXTCODESIZE ISZERO ISZERO SWAP1 JUMP JUMPDEST PUSH1 0x0 SLOAD PUSH2 0x100 SWAP1 DIV PUSH1 0xFF AND DUP1 PUSH2 0x4062 JUMPI POP PUSH2 0x4062 PUSH2 0x35E1 JUMP JUMPDEST DUP1 PUSH2 0x4070 JUMPI POP PUSH1 0x0 SLOAD PUSH1 0xFF AND ISZERO JUMPDEST PUSH2 0x408C JUMPI PUSH1 0x40 MLOAD PUSH3 0x461BCD PUSH1 0xE5 SHL DUP2 MSTORE PUSH1 0x4 ADD PUSH2 0xCB6 SWAP1 PUSH2 0x509F JUMP JUMPDEST PUSH1 0x0 SLOAD PUSH2 0x100 SWAP1 DIV PUSH1 0xFF AND ISZERO DUP1 ISZERO PUSH2 0x40B7 JUMPI PUSH1 0x0 DUP1 SLOAD PUSH1 0xFF NOT PUSH2 0xFF00 NOT SWAP1 SWAP2 AND PUSH2 0x100 OR AND PUSH1 0x1 OR SWAP1 SSTORE JUMPDEST PUSH2 0x40CB PUSH1 0x0 PUSH2 0x1F4 DUP1 PUSH1 0x0 DUP1 PUSH1 0x0 DUP1 PUSH2 0x3094 JUMP JUMPDEST DUP1 MLOAD PUSH1 0x74 SSTORE PUSH1 0x20 DUP2 ADD MLOAD PUSH1 0x75 SSTORE PUSH1 0x40 DUP2 ADD MLOAD PUSH1 0x76 SSTORE PUSH1 0x60 DUP2 ADD MLOAD PUSH1 0x77 SSTORE PUSH1 0x80 DUP2 ADD MLOAD PUSH1 0x78 SSTORE PUSH1 0xA0 DUP2 ADD MLOAD PUSH1 0x79 DUP1 SLOAD PUSH1 0x1 PUSH1 0x1 PUSH1 0xA0 SHL SUB NOT SWAP1 DUP2 AND PUSH1 0x1 PUSH1 0x1 PUSH1 0xA0 SHL SUB SWAP4 DUP5 AND OR SWAP1 SWAP2 SSTORE PUSH1 0xC0 SWAP1 SWAP3 ADD MLOAD PUSH1 0x7A DUP1 SLOAD SWAP1 SWAP4 AND SWAP2 AND OR SWAP1 SSTORE PUSH2 0x4138 PUSH1 0x32 DUP1 PUSH1 0x64 PUSH1 0x0 DUP1 DUP1 DUP1 PUSH2 0x3094 JUMP JUMPDEST POP PUSH2 0x414C PUSH1 0x32 DUP1 PUSH1 0x64 DUP1 PUSH1 0x0 DUP1 PUSH1 0x0 PUSH2 0x3094 JUMP JUMPDEST POP PUSH2 0x4161 PUSH1 0x64 PUSH1 0x7D DUP1 PUSH1 0x96 PUSH1 0x0 DUP1 PUSH1 0x0 PUSH2 0x3094 JUMP JUMPDEST POP DUP1 ISZERO PUSH2 0x1A63 JUMPI PUSH1 0x0 DUP1 SLOAD PUSH2 0xFF00 NOT AND SWAP1 SSTORE POP JUMP JUMPDEST PUSH1 0x40 DUP1 MLOAD PUSH1 0x2 DUP1 DUP3 MSTORE PUSH1 0x60 DUP1 DUP4 ADD DUP5 MSTORE SWAP3 PUSH1 0x20 DUP4 ADD SWAP1 DUP1 CALLDATASIZE DUP4 CALLDATACOPY ADD SWAP1 POP POP SWAP1 POP ADDRESS DUP2 PUSH1 0x0 DUP2 MLOAD DUP2 LT PUSH2 0x41A4 JUMPI INVALID JUMPDEST PUSH1 0x1 PUSH1 0x1 PUSH1 0xA0 SHL SUB SWAP3 DUP4 AND PUSH1 0x20 SWAP2 DUP3 MUL SWAP3 SWAP1 SWAP3 ADD DUP2 ADD SWAP2 SWAP1 SWAP2 MSTORE PUSH1 0x8A SLOAD PUSH1 0x40 DUP1 MLOAD PUSH4 0x15AB88C9 PUSH1 0xE3 SHL DUP2 MSTORE SWAP1 MLOAD SWAP2 SWAP1 SWAP4 AND SWAP3 PUSH4 0xAD5C4648 SWAP3 PUSH1 0x4 DUP1 DUP4 ADD SWAP4 SWAP2 SWAP3 DUP3 SWAP1 SUB ADD DUP2 DUP7 DUP1 EXTCODESIZE ISZERO DUP1 ISZERO PUSH2 0x41F8 JUMPI PUSH1 0x0 DUP1 REVERT JUMPDEST POP GAS STATICCALL ISZERO DUP1 ISZERO PUSH2 0x420C JUMPI RETURNDATASIZE PUSH1 0x0 DUP1 RETURNDATACOPY RETURNDATASIZE PUSH1 0x0 REVERT JUMPDEST POP POP POP POP PUSH1 0x40 MLOAD RETURNDATASIZE PUSH1 0x1F NOT PUSH1 0x1F DUP3 ADD AND DUP3 ADD DUP1 PUSH1 0x40 MSTORE POP DUP2 ADD SWAP1 PUSH2 0x4230 SWAP2 SWAP1 PUSH2 0x4A1B JUMP JUMPDEST DUP2 PUSH1 0x1 DUP2 MLOAD DUP2 LT PUSH2 0x423D JUMPI INVALID JUMPDEST PUSH1 0x1 PUSH1 0x1 PUSH1 0xA0 SHL SUB SWAP3 DUP4 AND PUSH1 0x20 SWAP2 DUP3 MUL SWAP3 SWAP1 SWAP3 ADD ADD MSTORE PUSH1 0x8A SLOAD PUSH2 0x4263 SWAP2 ADDRESS SWAP2 AND DUP5 PUSH2 0x2A08 JUMP JUMPDEST PUSH1 0x8A SLOAD PUSH1 0x40 MLOAD PUSH4 0x791AC947 PUSH1 0xE0 SHL DUP2 MSTORE PUSH1 0x1 PUSH1 0x1 PUSH1 0xA0 SHL SUB SWAP1 SWAP2 AND SWAP1 PUSH4 0x791AC947 SWAP1 PUSH2 0x429C SWAP1 DUP6 SWAP1 PUSH1 0x0 SWAP1 DUP7 SWAP1 ADDRESS SWAP1 TIMESTAMP SWAP1 PUSH1 0x4 ADD PUSH2 0x54C2 JUMP JUMPDEST PUSH1 0x0 PUSH1 0x40 MLOAD DUP1 DUP4 SUB DUP2 PUSH1 0x0 DUP8 DUP1 EXTCODESIZE ISZERO DUP1 ISZERO PUSH2 0x42B6 JUMPI PUSH1 0x0 DUP1 REVERT JUMPDEST POP GAS CALL ISZERO DUP1 ISZERO PUSH2 0x42CA JUMPI RETURNDATASIZE PUSH1 0x0 DUP1 RETURNDATACOPY RETURNDATASIZE PUSH1 0x0 REVERT JUMPDEST POP POP POP POP POP POP JUMP JUMPDEST PUSH1 0x89 PUSH1 0x0 DUP2 SLOAD DUP2 LT PUSH2 0x42E0 JUMPI INVALID JUMPDEST PUSH1 0x0 SWAP2 DUP3 MSTORE PUSH1 0x20 DUP3 KECCAK256 PUSH1 0x7 SWAP1 SWAP2 MUL ADD DUP1 SLOAD PUSH1 0x7B SSTORE PUSH1 0x1 DUP2 ADD SLOAD PUSH1 0x7C SSTORE PUSH1 0x2 DUP2 ADD SLOAD PUSH1 0x7D SSTORE PUSH1 0x3 DUP2 ADD SLOAD PUSH1 0x7E SSTORE PUSH1 0x4 DUP2 ADD SLOAD PUSH1 0x7F SSTORE PUSH1 0x5 DUP2 ADD SLOAD PUSH1 0x80 DUP1 SLOAD PUSH1 0x1 PUSH1 0x1 PUSH1 0xA0 SHL SUB NOT SWAP1 DUP2 AND PUSH1 0x1 PUSH1 0x1 PUSH1 0xA0 SHL SUB SWAP4 DUP5 AND OR SWAP1 SWAP2 SSTORE PUSH1 0x6 SWAP1 SWAP3 ADD SLOAD PUSH1 0x81 DUP1 SLOAD SWAP1 SWAP4 AND SWAP2 AND OR SWAP1 SSTORE PUSH1 0x89 DUP1 SLOAD PUSH1 0x82 SWAP3 SWAP1 PUSH2 0x4358 JUMPI INVALID JUMPDEST PUSH1 0x0 SWAP2 DUP3 MSTORE PUSH1 0x20 SWAP1 SWAP2 KECCAK256 DUP3 SLOAD PUSH1 0x7 SWAP1 SWAP3 MUL ADD SWAP1 DUP2 SSTORE PUSH1 0x1 DUP1 DUP4 ADD SLOAD SWAP1 DUP3 ADD SSTORE PUSH1 0x2 DUP1 DUP4 ADD SLOAD SWAP1 DUP3 ADD SSTORE PUSH1 0x3 DUP1 DUP4 ADD SLOAD SWAP1 DUP3 ADD SSTORE PUSH1 0x4 DUP1 DUP4 ADD SLOAD SWAP1 DUP3 ADD SSTORE PUSH1 0x5 DUP1 DUP4 ADD SLOAD SWAP1 DUP3 ADD DUP1 SLOAD PUSH1 0x1 PUSH1 0x1 PUSH1 0xA0 SHL SUB NOT SWAP1 DUP2 AND PUSH1 0x1 PUSH1 0x1 PUSH1 0xA0 SHL SUB SWAP4 DUP5 AND OR SWAP1 SWAP2 SSTORE PUSH1 0x6 SWAP4 DUP5 ADD SLOAD SWAP4 SWAP1 SWAP3 ADD DUP1 SLOAD SWAP1 SWAP3 AND SWAP3 AND SWAP2 SWAP1 SWAP2 OR SWAP1 SSTORE JUMP JUMPDEST PUSH2 0x43DC PUSH2 0x48EA JUMP JUMPDEST PUSH2 0x43E6 DUP4 DUP4 PUSH2 0x350F JUMP JUMPDEST DUP1 MLOAD PUSH1 0x1 PUSH1 0x1 PUSH1 0xA0 SHL SUB DUP8 AND PUSH1 0x0 SWAP1 DUP2 MSTORE PUSH1 0x65 PUSH1 0x20 MSTORE PUSH1 0x40 SWAP1 KECCAK256 SLOAD SWAP2 SWAP3 POP PUSH2 0x440E SWAP2 SWAP1 PUSH2 0x326E JUMP JUMPDEST PUSH1 0x1 PUSH1 0x1 PUSH1 0xA0 SHL SUB DUP1 DUP8 AND PUSH1 0x0 SWAP1 DUP2 MSTORE PUSH1 0x65 PUSH1 0x20 SWAP1 DUP2 MSTORE PUSH1 0x40 DUP1 DUP4 KECCAK256 SWAP5 SWAP1 SWAP5 SSTORE DUP5 ADD MLOAD SWAP2 DUP8 AND DUP2 MSTORE SWAP2 SWAP1 SWAP2 KECCAK256 SLOAD PUSH2 0x4444 SWAP2 PUSH2 0x306F JUMP JUMPDEST PUSH1 0x1 PUSH1 0x1 PUSH1 0xA0 SHL SUB DUP6 AND PUSH1 0x0 SWAP1 DUP2 MSTORE PUSH1 0x65 PUSH1 0x20 MSTORE PUSH1 0x40 SWAP1 KECCAK256 SSTORE PUSH2 0x4468 DUP6 DUP3 DUP5 PUSH2 0x466E JUMP JUMPDEST PUSH2 0x447A DUP2 PUSH1 0x40 ADD MLOAD DUP3 PUSH1 0xC0 ADD MLOAD PUSH2 0x46FC JUMP JUMPDEST DUP4 PUSH1 0x1 PUSH1 0x1 PUSH1 0xA0 SHL SUB AND DUP6 PUSH1 0x1 PUSH1 0x1 PUSH1 0xA0 SHL SUB AND PUSH1 0x0 DUP1 MLOAD PUSH1 0x20 PUSH2 0x5640 DUP4 CODECOPY DUP2 MLOAD SWAP2 MSTORE DUP4 PUSH1 0x60 ADD MLOAD PUSH1 0x40 MLOAD PUSH2 0x44AF SWAP2 SWAP1 PUSH2 0x54B9 JUMP JUMPDEST PUSH1 0x40 MLOAD DUP1 SWAP2 SUB SWAP1 LOG3 POP POP POP POP POP JUMP JUMPDEST PUSH2 0x44C6 PUSH2 0x48EA JUMP JUMPDEST PUSH2 0x44D0 DUP4 DUP4 PUSH2 0x350F JUMP JUMPDEST PUSH1 0x1 PUSH1 0x1 PUSH1 0xA0 SHL SUB DUP7 AND PUSH1 0x0 SWAP1 DUP2 MSTORE PUSH1 0x66 PUSH1 0x20 MSTORE PUSH1 0x40 SWAP1 KECCAK256 SLOAD SWAP1 SWAP2 POP PUSH2 0x44F6 SWAP1 DUP5 PUSH2 0x326E JUMP JUMPDEST PUSH1 0x1 PUSH1 0x1 PUSH1 0xA0 SHL SUB DUP7 AND PUSH1 0x0 SWAP1 DUP2 MSTORE PUSH1 0x66 PUSH1 0x20 SWAP1 DUP2 MSTORE PUSH1 0x40 DUP1 DUP4 KECCAK256 SWAP4 SWAP1 SWAP4 SSTORE DUP4 MLOAD PUSH1 0x65 SWAP1 SWAP2 MSTORE SWAP2 SWAP1 KECCAK256 SLOAD PUSH2 0x440E SWAP2 PUSH2 0x326E JUMP JUMPDEST PUSH2 0x4531 PUSH2 0x48EA JUMP JUMPDEST PUSH2 0x453B DUP4 DUP4 PUSH2 0x350F JUMP JUMPDEST DUP1 MLOAD PUSH1 0x1 PUSH1 0x1 PUSH1 0xA0 SHL SUB DUP8 AND PUSH1 0x0 SWAP1 DUP2 MSTORE PUSH1 0x65 PUSH1 0x20 MSTORE PUSH1 0x40 SWAP1 KECCAK256 SLOAD SWAP2 SWAP3 POP PUSH2 0x4563 SWAP2 SWAP1 PUSH2 0x326E JUMP JUMPDEST PUSH1 0x1 PUSH1 0x1 PUSH1 0xA0 SHL SUB DUP1 DUP8 AND PUSH1 0x0 SWAP1 DUP2 MSTORE PUSH1 0x65 PUSH1 0x20 SWAP1 DUP2 MSTORE PUSH1 0x40 DUP1 DUP4 KECCAK256 SWAP5 SWAP1 SWAP5 SSTORE PUSH1 0x60 DUP6 ADD MLOAD SWAP3 DUP9 AND DUP3 MSTORE PUSH1 0x66 SWAP1 MSTORE SWAP2 SWAP1 SWAP2 KECCAK256 SLOAD PUSH2 0x459F SWAP2 PUSH2 0x306F JUMP JUMPDEST PUSH1 0x1 PUSH1 0x1 PUSH1 0xA0 SHL SUB DUP6 AND PUSH1 0x0 SWAP1 DUP2 MSTORE PUSH1 0x66 PUSH1 0x20 SWAP1 DUP2 MSTORE PUSH1 0x40 DUP1 DUP4 KECCAK256 SWAP4 SWAP1 SWAP4 SSTORE DUP4 DUP2 ADD MLOAD PUSH1 0x65 SWAP1 SWAP2 MSTORE SWAP2 SWAP1 KECCAK256 SLOAD PUSH2 0x4444 SWAP2 PUSH2 0x306F JUMP JUMPDEST PUSH2 0x45DC PUSH2 0x48EA JUMP JUMPDEST PUSH2 0x45E6 DUP4 DUP4 PUSH2 0x350F JUMP JUMPDEST PUSH1 0x1 PUSH1 0x1 PUSH1 0xA0 SHL SUB DUP7 AND PUSH1 0x0 SWAP1 DUP2 MSTORE PUSH1 0x66 PUSH1 0x20 MSTORE PUSH1 0x40 SWAP1 KECCAK256 SLOAD SWAP1 SWAP2 POP PUSH2 0x460C SWAP1 DUP5 PUSH2 0x326E JUMP JUMPDEST PUSH1 0x1 PUSH1 0x1 PUSH1 0xA0 SHL SUB DUP7 AND PUSH1 0x0 SWAP1 DUP2 MSTORE PUSH1 0x66 PUSH1 0x20 SWAP1 DUP2 MSTORE PUSH1 0x40 DUP1 DUP4 KECCAK256 SWAP4 SWAP1 SWAP4 SSTORE DUP4 MLOAD PUSH1 0x65 SWAP1 SWAP2 MSTORE SWAP2 SWAP1 KECCAK256 SLOAD PUSH2 0x4563 SWAP2 PUSH2 0x326E JUMP JUMPDEST PUSH1 0x7B PUSH1 0x89 PUSH1 0x0 DUP2 SLOAD DUP2 LT PUSH2 0x4358 JUMPI INVALID JUMPDEST PUSH1 0x0 DUP2 PUSH2 0x465E JUMPI POP PUSH1 0x0 PUSH2 0xC71 JUMP JUMPDEST PUSH2 0xFDE PUSH2 0x2710 PUSH2 0x256F DUP6 DUP6 PUSH2 0x3B12 JUMP JUMPDEST PUSH2 0x467D DUP4 DUP4 PUSH1 0xA0 ADD MLOAD ADDRESS PUSH2 0x4720 JUMP JUMPDEST PUSH2 0x46B5 DUP4 DUP4 PUSH1 0x80 ADD MLOAD PUSH1 0x89 DUP5 DUP2 SLOAD DUP2 LT PUSH2 0x4693 JUMPI INVALID JUMPDEST PUSH1 0x0 SWAP2 DUP3 MSTORE PUSH1 0x20 SWAP1 SWAP2 KECCAK256 PUSH1 0x5 PUSH1 0x7 SWAP1 SWAP3 MUL ADD ADD SLOAD PUSH1 0x1 PUSH1 0x1 PUSH1 0xA0 SHL SUB AND PUSH2 0x4720 JUMP JUMPDEST PUSH2 0x46ED DUP4 DUP4 PUSH1 0xE0 ADD MLOAD PUSH1 0x89 DUP5 DUP2 SLOAD DUP2 LT PUSH2 0x46CB JUMPI INVALID JUMPDEST PUSH1 0x0 SWAP2 DUP3 MSTORE PUSH1 0x20 SWAP1 SWAP2 KECCAK256 PUSH1 0x6 PUSH1 0x7 SWAP1 SWAP3 MUL ADD ADD SLOAD PUSH1 0x1 PUSH1 0x1 PUSH1 0xA0 SHL SUB AND PUSH2 0x4720 JUMP JUMPDEST PUSH2 0x1C60 DUP4 DUP4 PUSH2 0x100 ADD MLOAD PUSH2 0x4816 JUMP JUMPDEST PUSH1 0x6E SLOAD PUSH2 0x4709 SWAP1 DUP4 PUSH2 0x326E JUMP JUMPDEST PUSH1 0x6E SSTORE PUSH1 0x6F SLOAD PUSH2 0x4719 SWAP1 DUP3 PUSH2 0x306F JUMP JUMPDEST PUSH1 0x6F SSTORE POP POP JUMP JUMPDEST PUSH1 0x1 PUSH1 0x1 PUSH1 0xA0 SHL SUB DUP2 AND PUSH2 0x4733 JUMPI PUSH2 0x1C60 JUMP JUMPDEST DUP2 PUSH2 0x473D JUMPI PUSH2 0x1C60 JUMP JUMPDEST PUSH1 0x0 PUSH2 0x4747 PUSH2 0x2FAD JUMP JUMPDEST SWAP1 POP PUSH1 0x0 PUSH2 0x4755 DUP5 DUP4 PUSH2 0x3B12 JUMP JUMPDEST PUSH1 0x1 PUSH1 0x1 PUSH1 0xA0 SHL SUB DUP5 AND PUSH1 0x0 SWAP1 DUP2 MSTORE PUSH1 0x65 PUSH1 0x20 MSTORE PUSH1 0x40 SWAP1 KECCAK256 SLOAD SWAP1 SWAP2 POP PUSH2 0x477B SWAP1 DUP3 PUSH2 0x306F JUMP JUMPDEST PUSH1 0x1 PUSH1 0x1 PUSH1 0xA0 SHL SUB DUP5 AND PUSH1 0x0 SWAP1 DUP2 MSTORE PUSH1 0x65 PUSH1 0x20 SWAP1 DUP2 MSTORE PUSH1 0x40 DUP1 DUP4 KECCAK256 SWAP4 SWAP1 SWAP4 SSTORE PUSH1 0x69 SWAP1 MSTORE KECCAK256 SLOAD PUSH1 0xFF AND ISZERO PUSH2 0x47E5 JUMPI PUSH1 0x1 PUSH1 0x1 PUSH1 0xA0 SHL SUB DUP4 AND PUSH1 0x0 SWAP1 DUP2 MSTORE PUSH1 0x66 PUSH1 0x20 MSTORE PUSH1 0x40 SWAP1 KECCAK256 SLOAD PUSH2 0x47CB SWAP1 DUP6 PUSH2 0x306F JUMP JUMPDEST PUSH1 0x1 PUSH1 0x1 PUSH1 0xA0 SHL SUB DUP5 AND PUSH1 0x0 SWAP1 DUP2 MSTORE PUSH1 0x66 PUSH1 0x20 MSTORE PUSH1 0x40 SWAP1 KECCAK256 SSTORE JUMPDEST DUP3 PUSH1 0x1 PUSH1 0x1 PUSH1 0xA0 SHL SUB AND DUP6 PUSH1 0x1 PUSH1 0x1 PUSH1 0xA0 SHL SUB AND PUSH1 0x0 DUP1 MLOAD PUSH1 0x20 PUSH2 0x5640 DUP4 CODECOPY DUP2 MLOAD SWAP2 MSTORE DUP7 PUSH1 0x40 MLOAD PUSH2 0x44AF SWAP2 SWAP1 PUSH2 0x54B9 JUMP JUMPDEST DUP1 PUSH2 0x4820 JUMPI PUSH2 0x13F7 JUMP JUMPDEST PUSH1 0x8F SLOAD PUSH1 0x1 PUSH1 0x1 PUSH1 0xA0 SHL SUB AND PUSH1 0x0 SWAP1 DUP2 MSTORE PUSH1 0x66 PUSH1 0x20 MSTORE PUSH1 0x40 SWAP1 KECCAK256 SLOAD PUSH2 0x4845 SWAP1 DUP3 PUSH2 0x306F JUMP JUMPDEST PUSH1 0x8F DUP1 SLOAD PUSH1 0x1 PUSH1 0x1 PUSH1 0xA0 SHL SUB SWAP1 DUP2 AND PUSH1 0x0 SWAP1 DUP2 MSTORE PUSH1 0x66 PUSH1 0x20 MSTORE PUSH1 0x40 SWAP1 DUP2 SWAP1 KECCAK256 SWAP4 SWAP1 SWAP4 SSTORE SWAP1 SLOAD SWAP2 MLOAD SWAP2 DUP2 AND SWAP2 SWAP1 DUP5 AND SWAP1 PUSH1 0x0 DUP1 MLOAD PUSH1 0x20 PUSH2 0x5640 DUP4 CODECOPY DUP2 MLOAD SWAP2 MSTORE SWAP1 PUSH2 0x488F SWAP1 DUP6 SWAP1 PUSH2 0x54B9 JUMP JUMPDEST PUSH1 0x40 MLOAD DUP1 SWAP2 SUB SWAP1 LOG3 POP POP JUMP JUMPDEST PUSH1 0x40 MLOAD DUP1 PUSH1 0xE0 ADD PUSH1 0x40 MSTORE DUP1 PUSH1 0x0 DUP2 MSTORE PUSH1 0x20 ADD PUSH1 0x0 DUP2 MSTORE PUSH1 0x20 ADD PUSH1 0x0 DUP2 MSTORE PUSH1 0x20 ADD PUSH1 0x0 DUP2 MSTORE PUSH1 0x20 ADD PUSH1 0x0 DUP2 MSTORE PUSH1 0x20 ADD PUSH1 0x0 PUSH1 0x1 PUSH1 0x1 PUSH1 0xA0 SHL SUB AND DUP2 MSTORE PUSH1 0x20 ADD PUSH1 0x0 PUSH1 0x1 PUSH1 0x1 PUSH1 0xA0 SHL SUB AND DUP2 MSTORE POP SWAP1 JUMP JUMPDEST PUSH1 0x40 MLOAD DUP1 PUSH2 0x120 ADD PUSH1 0x40 MSTORE DUP1 PUSH1 0x0 DUP2 MSTORE PUSH1 0x20 ADD PUSH1 0x0 DUP2 MSTORE PUSH1 0x20 ADD PUSH1 0x0 DUP2 MSTORE PUSH1 0x20 ADD PUSH1 0x0 DUP2 MSTORE PUSH1 0x20 ADD PUSH1 0x0 DUP2 MSTORE PUSH1 0x20 ADD PUSH1 0x0 DUP2 MSTORE PUSH1 0x20 ADD PUSH1 0x0 DUP2 MSTORE PUSH1 0x20 ADD PUSH1 0x0 DUP2 MSTORE PUSH1 0x20 ADD PUSH1 0x0 DUP2 MSTORE POP SWAP1 JUMP JUMPDEST PUSH1 0x40 MLOAD DUP1 PUSH1 0xC0 ADD PUSH1 0x40 MSTORE DUP1 PUSH1 0x0 DUP2 MSTORE PUSH1 0x20 ADD PUSH1 0x0 DUP2 MSTORE PUSH1 0x20 ADD PUSH1 0x0 DUP2 MSTORE PUSH1 0x20 ADD PUSH1 0x0 DUP2 MSTORE PUSH1 0x20 ADD PUSH1 0x0 DUP2 MSTORE PUSH1 0x20 ADD PUSH1 0x0 DUP2 MSTORE POP SWAP1 JUMP JUMPDEST DUP3 DUP1 SLOAD PUSH1 0x1 DUP2 PUSH1 0x1 AND ISZERO PUSH2 0x100 MUL SUB AND PUSH1 0x2 SWAP1 DIV SWAP1 PUSH1 0x0 MSTORE PUSH1 0x20 PUSH1 0x0 KECCAK256 SWAP1 PUSH1 0x1F ADD PUSH1 0x20 SWAP1 DIV DUP2 ADD SWAP3 DUP3 PUSH1 0x1F LT PUSH2 0x49AD JUMPI DUP1 MLOAD PUSH1 0xFF NOT AND DUP4 DUP1 ADD OR DUP6 SSTORE PUSH2 0x49DA JUMP JUMPDEST DUP3 DUP1 ADD PUSH1 0x1 ADD DUP6 SSTORE DUP3 ISZERO PUSH2 0x49DA JUMPI SWAP2 DUP3 ADD JUMPDEST DUP3 DUP2 GT ISZERO PUSH2 0x49DA JUMPI DUP3 MLOAD DUP3 SSTORE SWAP2 PUSH1 0x20 ADD SWAP2 SWAP1 PUSH1 0x1 ADD SWAP1 PUSH2 0x49BF JUMP JUMPDEST POP PUSH2 0x49E6 SWAP3 SWAP2 POP PUSH2 0x49EA JUMP JUMPDEST POP SWAP1 JUMP JUMPDEST JUMPDEST DUP1 DUP3 GT ISZERO PUSH2 0x49E6 JUMPI PUSH1 0x0 DUP2 SSTORE PUSH1 0x1 ADD PUSH2 0x49EB JUMP JUMPDEST PUSH1 0x0 PUSH1 0x20 DUP3 DUP5 SUB SLT ISZERO PUSH2 0x4A10 JUMPI DUP1 DUP2 REVERT JUMPDEST DUP2 CALLDATALOAD PUSH2 0xFDE DUP2 PUSH2 0x555E JUMP JUMPDEST PUSH1 0x0 PUSH1 0x20 DUP3 DUP5 SUB SLT ISZERO PUSH2 0x4A2C JUMPI DUP1 DUP2 REVERT JUMPDEST DUP2 MLOAD PUSH2 0xFDE DUP2 PUSH2 0x555E JUMP JUMPDEST PUSH1 0x0 DUP1 PUSH1 0x40 DUP4 DUP6 SUB SLT ISZERO PUSH2 0x4A49 JUMPI DUP1 DUP2 REVERT JUMPDEST DUP3 CALLDATALOAD PUSH2 0x4A54 DUP2 PUSH2 0x555E JUMP JUMPDEST SWAP2 POP PUSH1 0x20 DUP4 ADD CALLDATALOAD PUSH2 0x4A64 DUP2 PUSH2 0x555E JUMP JUMPDEST DUP1 SWAP2 POP POP SWAP3 POP SWAP3 SWAP1 POP JUMP JUMPDEST PUSH1 0x0 DUP1 PUSH1 0x0 PUSH1 0x60 DUP5 DUP7 SUB SLT ISZERO PUSH2 0x4A83 JUMPI DUP1 DUP2 REVERT JUMPDEST DUP4 CALLDATALOAD PUSH2 0x4A8E DUP2 PUSH2 0x555E JUMP JUMPDEST SWAP3 POP PUSH1 0x20 DUP5 ADD CALLDATALOAD PUSH2 0x4A9E DUP2 PUSH2 0x555E JUMP JUMPDEST SWAP3 SWAP6 SWAP3 SWAP5 POP POP POP PUSH1 0x40 SWAP2 SWAP1 SWAP2 ADD CALLDATALOAD SWAP1 JUMP JUMPDEST PUSH1 0x0 DUP1 PUSH1 0x40 DUP4 DUP6 SUB SLT ISZERO PUSH2 0x4AC1 JUMPI DUP2 DUP3 REVERT JUMPDEST DUP3 CALLDATALOAD PUSH2 0x4ACC DUP2 PUSH2 0x555E JUMP JUMPDEST SWAP5 PUSH1 0x20 SWAP4 SWAP1 SWAP4 ADD CALLDATALOAD SWAP4 POP POP POP JUMP JUMPDEST PUSH1 0x0 PUSH1 0x20 DUP3 DUP5 SUB SLT ISZERO PUSH2 0x4AEB JUMPI DUP1 DUP2 REVERT JUMPDEST DUP2 CALLDATALOAD PUSH2 0xFDE DUP2 PUSH2 0x5573 JUMP JUMPDEST PUSH1 0x0 PUSH1 0x20 DUP3 DUP5 SUB SLT ISZERO PUSH2 0x4B07 JUMPI DUP1 DUP2 REVERT JUMPDEST DUP2 MLOAD PUSH2 0xFDE DUP2 PUSH2 0x5573 JUMP JUMPDEST PUSH1 0x0 PUSH1 0x20 DUP3 DUP5 SUB SLT ISZERO PUSH2 0x4B23 JUMPI DUP1 DUP2 REVERT JUMPDEST POP CALLDATALOAD SWAP2 SWAP1 POP JUMP JUMPDEST PUSH1 0x0 PUSH1 0x20 DUP3 DUP5 SUB SLT ISZERO PUSH2 0x4B3B JUMPI DUP1 DUP2 REVERT JUMPDEST POP MLOAD SWAP2 SWAP1 POP JUMP JUMPDEST PUSH1 0x0 DUP1 PUSH1 0x40 DUP4 DUP6 SUB SLT ISZERO PUSH2 0x4B54 JUMPI DUP2 DUP3 REVERT JUMPDEST DUP3 CALLDATALOAD SWAP2 POP PUSH1 0x20 DUP4 ADD CALLDATALOAD PUSH2 0x4A64 DUP2 PUSH2 0x555E JUMP JUMPDEST PUSH1 0x0 DUP1 PUSH1 0x40 DUP4 DUP6 SUB SLT ISZERO PUSH2 0x4B78 JUMPI DUP2 DUP3 REVERT JUMPDEST DUP3 CALLDATALOAD SWAP2 POP PUSH1 0x20 DUP4 ADD CALLDATALOAD PUSH2 0x4A64 DUP2 PUSH2 0x5573 JUMP JUMPDEST PUSH1 0x0 DUP1 PUSH1 0x40 DUP4 DUP6 SUB SLT ISZERO PUSH2 0x4B9C JUMPI DUP2 DUP3 REVERT JUMPDEST POP POP DUP1 CALLDATALOAD SWAP3 PUSH1 0x20 SWAP1 SWAP2 ADD CALLDATALOAD SWAP2 POP JUMP JUMPDEST PUSH1 0x0 DUP1 PUSH1 0x0 PUSH1 0x60 DUP5 DUP7 SUB SLT ISZERO PUSH2 0x4BBF JUMPI DUP3 DUP4 REVERT JUMPDEST DUP4 CALLDATALOAD SWAP3 POP PUSH1 0x20 DUP5 ADD CALLDATALOAD SWAP2 POP PUSH1 0x40 DUP5 ADD CALLDATALOAD PUSH2 0x4BD8 DUP2 PUSH2 0x5573 JUMP JUMPDEST DUP1 SWAP2 POP POP SWAP3 POP SWAP3 POP SWAP3 JUMP JUMPDEST PUSH1 0x0 DUP1 PUSH1 0x0 PUSH1 0x60 DUP5 DUP7 SUB SLT ISZERO PUSH2 0x4BF7 JUMPI DUP3 DUP4 REVERT JUMPDEST DUP4 MLOAD SWAP3 POP PUSH1 0x20 DUP5 ADD MLOAD SWAP2 POP PUSH1 0x40 DUP5 ADD MLOAD SWAP1 POP SWAP3 POP SWAP3 POP SWAP3 JUMP JUMPDEST PUSH1 0x0 DUP1 PUSH1 0x0 DUP1 PUSH1 0x0 DUP1 PUSH1 0x0 PUSH1 0xE0 DUP9 DUP11 SUB SLT ISZERO PUSH2 0x4C2A JUMPI DUP3 DUP4 REVERT JUMPDEST DUP8 CALLDATALOAD SWAP7 POP PUSH1 0x20 DUP9 ADD CALLDATALOAD SWAP6 POP PUSH1 0x40 DUP9 ADD CALLDATALOAD SWAP5 POP PUSH1 0x60 DUP9 ADD CALLDATALOAD SWAP4 POP PUSH1 0x80 DUP9 ADD CALLDATALOAD SWAP3 POP PUSH1 0xA0 DUP9 ADD CALLDATALOAD PUSH2 0x4C58 DUP2 PUSH2 0x555E JUMP JUMPDEST SWAP2 POP PUSH1 0xC0 DUP9 ADD CALLDATALOAD PUSH2 0x4C68 DUP2 PUSH2 0x555E JUMP JUMPDEST DUP1 SWAP2 POP POP SWAP3 SWAP6 SWAP9 SWAP2 SWAP5 SWAP8 POP SWAP3 SWAP6 POP JUMP JUMPDEST PUSH1 0x0 DUP2 MLOAD DUP1 DUP5 MSTORE PUSH1 0x20 DUP1 DUP6 ADD SWAP5 POP DUP1 DUP5 ADD DUP4 JUMPDEST DUP4 DUP2 LT ISZERO PUSH2 0x4CB0 JUMPI DUP2 MLOAD PUSH1 0x1 PUSH1 0x1 PUSH1 0xA0 SHL SUB AND DUP8 MSTORE SWAP6 DUP3 ADD SWAP6 SWAP1 DUP3 ADD SWAP1 PUSH1 0x1 ADD PUSH2 0x4C8B JUMP JUMPDEST POP SWAP5 SWAP6 SWAP5 POP POP POP POP POP JUMP JUMPDEST PUSH1 0x1 PUSH1 0x1 PUSH1 0xA0 SHL SUB SWAP2 SWAP1 SWAP2 AND DUP2 MSTORE PUSH1 0x20 ADD SWAP1 JUMP JUMPDEST PUSH1 0x1 PUSH1 0x1 PUSH1 0xA0 SHL SUB SWAP3 DUP4 AND DUP2 MSTORE SWAP2 AND PUSH1 0x20 DUP3 ADD MSTORE PUSH1 0x40 ADD SWAP1 JUMP JUMPDEST PUSH1 0x1 PUSH1 0x1 PUSH1 0xA0 SHL SUB SWAP4 DUP5 AND DUP2 MSTORE SWAP2 SWAP1 SWAP3 AND PUSH1 0x20 DUP3 ADD MSTORE PUSH1 0x40 DUP2 ADD SWAP2 SWAP1 SWAP2 MSTORE PUSH1 0x60 ADD SWAP1 JUMP JUMPDEST PUSH1 0x1 PUSH1 0x1 PUSH1 0xA0 SHL SUB SWAP3 SWAP1 SWAP3 AND DUP3 MSTORE PUSH1 0x20 DUP3 ADD MSTORE PUSH1 0x40 ADD SWAP1 JUMP JUMPDEST PUSH1 0x1 PUSH1 0x1 PUSH1 0xA0 SHL SUB SWAP7 DUP8 AND DUP2 MSTORE PUSH1 0x20 DUP2 ADD SWAP6 SWAP1 SWAP6 MSTORE PUSH1 0x40 DUP6 ADD SWAP4 SWAP1 SWAP4 MSTORE PUSH1 0x60 DUP5 ADD SWAP2 SWAP1 SWAP2 MSTORE SWAP1 SWAP3 AND PUSH1 0x80 DUP3 ADD MSTORE PUSH1 0xA0 DUP2 ADD SWAP2 SWAP1 SWAP2 MSTORE PUSH1 0xC0 ADD SWAP1 JUMP JUMPDEST SWAP1 ISZERO ISZERO DUP2 MSTORE PUSH1 0x20 ADD SWAP1 JUMP JUMPDEST PUSH1 0x0 DUP6 DUP3 MSTORE PUSH1 0x80 PUSH1 0x20 DUP4 ADD MSTORE PUSH2 0x4D85 PUSH1 0x80 DUP4 ADD DUP7 PUSH2 0x4C78 JUMP JUMPDEST PUSH1 0x1 PUSH1 0x1 PUSH1 0xA0 SHL SUB SWAP5 SWAP1 SWAP5 AND PUSH1 0x40 DUP4 ADD MSTORE POP PUSH1 0x60 ADD MSTORE SWAP3 SWAP2 POP POP JUMP JUMPDEST PUSH1 0x0 PUSH1 0x20 DUP1 DUP4 MSTORE DUP4 MLOAD DUP1 DUP3 DUP6 ADD MSTORE DUP3 JUMPDEST DUP2 DUP2 LT ISZERO PUSH2 0x4DCD JUMPI DUP6 DUP2 ADD DUP4 ADD MLOAD DUP6 DUP3 ADD PUSH1 0x40 ADD MSTORE DUP3 ADD PUSH2 0x4DB1 JUMP JUMPDEST DUP2 DUP2 GT ISZERO PUSH2 0x4DDE JUMPI DUP4 PUSH1 0x40 DUP4 DUP8 ADD ADD MSTORE JUMPDEST POP PUSH1 0x1F ADD PUSH1 0x1F NOT AND SWAP3 SWAP1 SWAP3 ADD PUSH1 0x40 ADD SWAP4 SWAP3 POP POP POP JUMP JUMPDEST PUSH1 0x20 DUP1 DUP3 MSTORE PUSH1 0x25 SWAP1 DUP3 ADD MSTORE PUSH32 0x42455032303A207472616E736665722066726F6D20746865207A65726F206164 PUSH1 0x40 DUP3 ADD MSTORE PUSH5 0x6472657373 PUSH1 0xD8 SHL PUSH1 0x60 DUP3 ADD MSTORE PUSH1 0x80 ADD SWAP1 JUMP JUMPDEST PUSH1 0x20 DUP1 DUP3 MSTORE PUSH1 0x24 SWAP1 DUP3 ADD MSTORE PUSH32 0x42455032303A20617070726F76652066726F6D20746865207A65726F20616464 PUSH1 0x40 DUP3 ADD MSTORE PUSH4 0x72657373 PUSH1 0xE0 SHL PUSH1 0x60 DUP3 ADD MSTORE PUSH1 0x80 ADD SWAP1 JUMP JUMPDEST PUSH1 0x20 DUP1 DUP3 MSTORE PUSH1 0x2A SWAP1 DUP3 ADD MSTORE PUSH32 0x416D6F756E74206D757374206265206C657373207468616E20746F74616C2072 PUSH1 0x40 DUP3 ADD MSTORE PUSH10 0x65666C656374696F6E73 PUSH1 0xB0 SHL PUSH1 0x60 DUP3 ADD MSTORE PUSH1 0x80 ADD SWAP1 JUMP JUMPDEST PUSH1 0x20 DUP1 DUP3 MSTORE PUSH1 0x26 SWAP1 DUP3 ADD MSTORE PUSH32 0x4F776E61626C653A206E6577206F776E657220697320746865207A65726F2061 PUSH1 0x40 DUP3 ADD MSTORE PUSH6 0x646472657373 PUSH1 0xD0 SHL PUSH1 0x60 DUP3 ADD MSTORE PUSH1 0x80 ADD SWAP1 JUMP JUMPDEST PUSH1 0x20 DUP1 DUP3 MSTORE PUSH1 0x1B SWAP1 DUP3 ADD MSTORE PUSH32 0x536166654D6174683A206164646974696F6E206F766572666C6F770000000000 PUSH1 0x40 DUP3 ADD MSTORE PUSH1 0x60 ADD SWAP1 JUMP JUMPDEST PUSH1 0x20 DUP1 DUP3 MSTORE PUSH1 0x1B SWAP1 DUP3 ADD MSTORE PUSH32 0x4163636F756E7420697320616C7265616479206578636C756465640000000000 PUSH1 0x40 DUP3 ADD MSTORE PUSH1 0x60 ADD SWAP1 JUMP JUMPDEST PUSH1 0x20 DUP1 DUP3 MSTORE PUSH1 0x1E SWAP1 DUP3 ADD MSTORE PUSH32 0x536166654D6174683A207375627472616374696F6E206F766572666C6F770000 PUSH1 0x40 DUP3 ADD MSTORE PUSH1 0x60 ADD SWAP1 JUMP JUMPDEST PUSH1 0x20 DUP1 DUP3 MSTORE PUSH1 0x1B SWAP1 DUP3 ADD MSTORE PUSH32 0x4163636F756E7420697320616C726561647920696E636C756465640000000000 PUSH1 0x40 DUP3 ADD MSTORE PUSH1 0x60 ADD SWAP1 JUMP JUMPDEST PUSH1 0x20 DUP1 DUP3 MSTORE PUSH1 0x1A SWAP1 DUP3 ADD MSTORE PUSH32 0x536166654D6174683A206469766973696F6E206279207A65726F000000000000 PUSH1 0x40 DUP3 ADD MSTORE PUSH1 0x60 ADD SWAP1 JUMP JUMPDEST PUSH1 0x20 DUP1 DUP3 MSTORE PUSH1 0x1F SWAP1 DUP3 ADD MSTORE PUSH32 0x416D6F756E74206D757374206265206C657373207468616E20737570706C7900 PUSH1 0x40 DUP3 ADD MSTORE PUSH1 0x60 ADD SWAP1 JUMP JUMPDEST PUSH1 0x20 DUP1 DUP3 MSTORE PUSH1 0x28 SWAP1 DUP3 ADD MSTORE PUSH32 0x5472616E7366657220616D6F756E74206578636565647320746865206D617854 PUSH1 0x40 DUP3 ADD MSTORE PUSH8 0x3C20B6B7BAB73A17 PUSH1 0xC1 SHL PUSH1 0x60 DUP3 ADD MSTORE PUSH1 0x80 ADD SWAP1 JUMP JUMPDEST PUSH1 0x20 DUP1 DUP3 MSTORE PUSH1 0x2E SWAP1 DUP3 ADD MSTORE PUSH32 0x496E697469616C697A61626C653A20636F6E747261637420697320616C726561 PUSH1 0x40 DUP3 ADD MSTORE PUSH14 0x191E481A5B9A5D1A585B1A5E9959 PUSH1 0x92 SHL PUSH1 0x60 DUP3 ADD MSTORE PUSH1 0x80 ADD SWAP1 JUMP JUMPDEST PUSH1 0x20 DUP1 DUP3 MSTORE PUSH1 0x15 SWAP1 DUP3 ADD MSTORE PUSH21 0x14D859995B5BDBDB8E88139BDD08105B1B1BDDD959 PUSH1 0x5A SHL PUSH1 0x40 DUP3 ADD MSTORE PUSH1 0x60 ADD SWAP1 JUMP JUMPDEST PUSH1 0x20 DUP1 DUP3 MSTORE PUSH1 0x1C SWAP1 DUP3 ADD MSTORE PUSH32 0x536166656D6F6F6E3A20496E76616C6964207469657220696E64657800000000 PUSH1 0x40 DUP3 ADD MSTORE PUSH1 0x60 ADD SWAP1 JUMP JUMPDEST PUSH1 0x20 DUP1 DUP3 MSTORE PUSH1 0x21 SWAP1 DUP3 ADD MSTORE PUSH32 0x536166654D6174683A206D756C7469706C69636174696F6E206F766572666C6F PUSH1 0x40 DUP3 ADD MSTORE PUSH1 0x77 PUSH1 0xF8 SHL PUSH1 0x60 DUP3 ADD MSTORE PUSH1 0x80 ADD SWAP1 JUMP JUMPDEST PUSH1 0x20 DUP1 DUP3 MSTORE PUSH1 0x1F SWAP1 DUP3 ADD MSTORE PUSH32 0x42455032303A206D696E7420746F20746865207A65726F206164647265737300 PUSH1 0x40 DUP3 ADD MSTORE PUSH1 0x60 ADD SWAP1 JUMP JUMPDEST PUSH1 0x20 DUP1 DUP3 MSTORE DUP2 DUP2 ADD MSTORE PUSH32 0x4F776E61626C653A2063616C6C6572206973206E6F7420746865206F776E6572 PUSH1 0x40 DUP3 ADD MSTORE PUSH1 0x60 ADD SWAP1 JUMP JUMPDEST PUSH1 0x20 DUP1 DUP3 MSTORE PUSH1 0x19 SWAP1 DUP3 ADD MSTORE PUSH32 0x536166656D6F6F6E3A20496E76616C6964206164647265737300000000000000 PUSH1 0x40 DUP3 ADD MSTORE PUSH1 0x60 ADD SWAP1 JUMP JUMPDEST PUSH1 0x20 DUP1 DUP3 MSTORE PUSH1 0x29 SWAP1 DUP3 ADD MSTORE PUSH32 0x5472616E7366657220616D6F756E74206D757374206265206772656174657220 PUSH1 0x40 DUP3 ADD MSTORE PUSH9 0x7468616E207A65726F PUSH1 0xB8 SHL PUSH1 0x60 DUP3 ADD MSTORE PUSH1 0x80 ADD SWAP1 JUMP JUMPDEST PUSH1 0x20 DUP1 DUP3 MSTORE PUSH1 0x22 SWAP1 DUP3 ADD MSTORE PUSH32 0x536166656D6F6F6E3A204D6967726174696F6E206973206E6F74207374617274 PUSH1 0x40 DUP3 ADD MSTORE PUSH2 0x1959 PUSH1 0xF2 SHL PUSH1 0x60 DUP3 ADD MSTORE PUSH1 0x80 ADD SWAP1 JUMP JUMPDEST PUSH1 0x20 DUP1 DUP3 MSTORE PUSH1 0x25 SWAP1 DUP3 ADD MSTORE PUSH32 0x536166656D6F6F6E3A2041646472657373205A65726F206973206E6F7420616C PUSH1 0x40 DUP3 ADD MSTORE PUSH5 0x1B1BDDD959 PUSH1 0xDA SHL PUSH1 0x60 DUP3 ADD MSTORE PUSH1 0x80 ADD SWAP1 JUMP JUMPDEST PUSH1 0x20 DUP1 DUP3 MSTORE PUSH1 0x23 SWAP1 DUP3 ADD MSTORE PUSH32 0x42455032303A207472616E7366657220746F20746865207A65726F2061646472 PUSH1 0x40 DUP3 ADD MSTORE PUSH3 0x657373 PUSH1 0xE8 SHL PUSH1 0x60 DUP3 ADD MSTORE PUSH1 0x80 ADD SWAP1 JUMP JUMPDEST PUSH1 0x20 DUP1 DUP3 MSTORE PUSH1 0x2A SWAP1 DUP3 ADD MSTORE PUSH32 0x424E422062616C616E6365206973206E6F7420726561636820666F7220532645 PUSH1 0x40 DUP3 ADD MSTORE PUSH10 0x8151A1C995CDA1BDB19 PUSH1 0xB2 SHL PUSH1 0x60 DUP3 ADD MSTORE PUSH1 0x80 ADD SWAP1 JUMP JUMPDEST PUSH1 0x20 DUP1 DUP3 MSTORE PUSH1 0x25 SWAP1 DUP3 ADD MSTORE PUSH32 0x536166656D6F6F6E3A204163636F756E74206973206E6F7420696E2077686974 PUSH1 0x40 DUP3 ADD MSTORE PUSH5 0x195B1A5CDD PUSH1 0xDA SHL PUSH1 0x60 DUP3 ADD MSTORE PUSH1 0x80 ADD SWAP1 JUMP JUMPDEST PUSH1 0x20 DUP1 DUP3 MSTORE PUSH1 0x26 SWAP1 DUP3 ADD MSTORE PUSH32 0x536166656D6F6F6E3A2046656573206578636565646564206D6178206C696D69 PUSH1 0x40 DUP3 ADD MSTORE PUSH6 0x3A30BA34B7B7 PUSH1 0xD1 SHL PUSH1 0x60 DUP3 ADD MSTORE PUSH1 0x80 ADD SWAP1 JUMP JUMPDEST PUSH1 0x20 DUP1 DUP3 MSTORE PUSH1 0x22 SWAP1 DUP3 ADD MSTORE PUSH32 0x42455032303A20617070726F766520746F20746865207A65726F206164647265 PUSH1 0x40 DUP3 ADD MSTORE PUSH2 0x7373 PUSH1 0xF0 SHL PUSH1 0x60 DUP3 ADD MSTORE PUSH1 0x80 ADD SWAP1 JUMP JUMPDEST DUP2 MLOAD DUP2 MSTORE PUSH1 0x20 DUP1 DUP4 ADD MLOAD SWAP1 DUP3 ADD MSTORE PUSH1 0x40 DUP1 DUP4 ADD MLOAD SWAP1 DUP3 ADD MSTORE PUSH1 0x60 DUP1 DUP4 ADD MLOAD SWAP1 DUP3 ADD MSTORE PUSH1 0x80 DUP1 DUP4 ADD MLOAD SWAP1 DUP3 ADD MSTORE PUSH1 0xA0 DUP1 DUP4 ADD MLOAD PUSH1 0x1 PUSH1 0x1 PUSH1 0xA0 SHL SUB SWAP1 DUP2 AND SWAP2 DUP4 ADD SWAP2 SWAP1 SWAP2 MSTORE PUSH1 0xC0 SWAP3 DUP4 ADD MLOAD AND SWAP2 DUP2 ADD SWAP2 SWAP1 SWAP2 MSTORE PUSH1 0xE0 ADD SWAP1 JUMP JUMPDEST SWAP1 DUP2 MSTORE PUSH1 0x20 ADD SWAP1 JUMP JUMPDEST PUSH1 0x0 DUP7 DUP3 MSTORE DUP6 PUSH1 0x20 DUP4 ADD MSTORE PUSH1 0xA0 PUSH1 0x40 DUP4 ADD MSTORE PUSH2 0x54E1 PUSH1 0xA0 DUP4 ADD DUP7 PUSH2 0x4C78 JUMP JUMPDEST PUSH1 0x1 PUSH1 0x1 PUSH1 0xA0 SHL SUB SWAP5 SWAP1 SWAP5 AND PUSH1 0x60 DUP4 ADD MSTORE POP PUSH1 0x80 ADD MSTORE SWAP4 SWAP3 POP POP POP JUMP JUMPDEST SWAP3 DUP4 MSTORE PUSH1 0x20 DUP4 ADD SWAP2 SWAP1 SWAP2 MSTORE PUSH1 0x40 DUP3 ADD MSTORE PUSH1 0x60 ADD SWAP1 JUMP JUMPDEST SWAP7 DUP8 MSTORE PUSH1 0x20 DUP8 ADD SWAP6 SWAP1 SWAP6 MSTORE PUSH1 0x40 DUP7 ADD SWAP4 SWAP1 SWAP4 MSTORE PUSH1 0x60 DUP6 ADD SWAP2 SWAP1 SWAP2 MSTORE PUSH1 0x80 DUP5 ADD MSTORE PUSH1 0x1 PUSH1 0x1 PUSH1 0xA0 SHL SUB SWAP1 DUP2 AND PUSH1 0xA0 DUP5 ADD MSTORE AND PUSH1 0xC0 DUP3 ADD MSTORE PUSH1 0xE0 ADD SWAP1 JUMP JUMPDEST PUSH1 0xFF SWAP2 SWAP1 SWAP2 AND DUP2 MSTORE PUSH1 0x20 ADD SWAP1 JUMP JUMPDEST PUSH1 0x1 PUSH1 0x1 PUSH1 0xA0 SHL SUB DUP2 AND DUP2 EQ PUSH2 0x1A63 JUMPI PUSH1 0x0 DUP1 REVERT JUMPDEST DUP1 ISZERO ISZERO DUP2 EQ PUSH2 0x1A63 JUMPI PUSH1 0x0 DUP1 REVERT INVALID MSTORE8 PUSH2 0x6665 PUSH14 0x6F6F6E3A2046726F6D2061646472 PUSH6 0x737320697320 PUSH3 0x6C6163 PUSH12 0x6C6973746564536166656D6F PUSH16 0x6E3A205370656E646572206164647265 PUSH20 0x7320697320626C61636B6C697374656442455032 ADDRESS GASPRICE KECCAK256 PUSH21 0x72616E7366657220616D6F756E7420657863656564 PUSH20 0x20616C6C6F77616E6365536166656D6F6F6E3A20 SLOAD PUSH16 0x206164647265737320697320626C6163 PUSH12 0x6C6973746564536166656D6F PUSH16 0x6E3A204F776E65722061646472657373 KECCAK256 PUSH10 0x7320626C61636B6C6973 PUSH21 0x6564DDF252AD1BE2C89B69C2B068FC378DAA952BA7 CALL PUSH4 0xC4A11628 CREATE2 GAS 0x4D CREATE2 0x23 0xB3 0xEF TIMESTAMP GASLIMIT POP ORIGIN ADDRESS GASPRICE KECCAK256 PUSH5 0x6563726561 PUSH20 0x656420616C6C6F77616E63652062656C6F77207A PUSH6 0x726F53616665 PUSH14 0x6F6F6E3A204D6967726174656420 PUSH2 0x6363 PUSH16 0x756E7420697320626C61636B6C697374 PUSH6 0x64536166656D PUSH16 0x6F6E3A2053656C656374656420616363 PUSH16 0x756E7420697320696E20626C61636B6C PUSH10 0x7374A264697066735822 SLT KECCAK256 0xED 0xAD 0x24 0xAF 0xB2 0xDC 0x2C CALLCODE PUSH30 0x72775204B61B4D7AB70B52667497FA33B6987ED394AE8164736F6C634300 MOD 0xC STOP CALLER "
        },
        "methodIdentifiers": {
          "WBNB()": "8dd95002",
          "_burnAddress()": "bd3900c0",
          "_defaultFees()": "dfd66cb3",
          "_maxTxAmount()": "7d1db4a5",
          "accountTier(address)": "30127334",
          "addTier(uint256,uint256,uint256,uint256,uint256,address,address)": "4ffc1425",
          "allowance(address,address)": "dd62ed3e",
          "approve(address,uint256)": "095ea7b3",
          "balanceOf(address)": "70a08231",
          "blacklistAddress(address)": "f3290d75",
          "decimals()": "313ce567",
          "decreaseAllowance(address,uint256)": "a457c2d7",
          "excludeFromFee(address)": "437823ec",
          "excludeFromReward(address)": "52390c02",
          "excludeWhitelistedAddress(address)": "10844953",
          "feeTier(uint256)": "140c5759",
          "feeTiersLength()": "11b32601",
          "getBNBBalance()": "f89879aa",
          "getContractBalance()": "6f9fb98a",
          "includeInFee(address)": "ea2f0b37",
          "includeInReward(address)": "3685d419",
          "increaseAllowance(address,uint256)": "39509351",
          "initialize(address)": "c4d66de8",
          "isBlacklisted(address)": "fe575a87",
          "isExcludedFromFee(address)": "5342acb4",
          "isExcludedFromReward(address)": "88f82020",
          "isMigrationStarted()": "60d0eb73",
          "isWhitelisted(address)": "3af32abf",
          "migrate(address,uint256)": "ad68ebf7",
          "name()": "06fdde03",
          "numOfBnbToSwapAndEvolve()": "8abec606",
          "numTokensToCollectBNB()": "6531c58c",
          "owner()": "8da5cb5b",
          "reflectionFromToken(uint256,bool)": "4549b039",
          "reflectionFromTokenInTiers(uint256,uint256,bool)": "bf266469",
          "renounceOwnership()": "715018a6",
          "setBurnFeePercent(uint256,uint256)": "8fc3d4b8",
          "setDefaultSettings()": "132af75c",
          "setEcoSystemFeeAddress(uint256,address)": "7ed948f7",
          "setEcoSystemFeePercent(uint256,uint256)": "39aa1bba",
          "setLiquidityFeePercent(uint256,uint256)": "f2d58c23",
          "setMaxTxPercent(uint256)": "d543dbeb",
          "setMigrationAddress(address)": "4732a7dc",
          "setNumOfBnbToSwapAndEvolve(uint256)": "fff3e1ba",
          "setNumberOfTokenToCollectBNB(uint256)": "674a3112",
          "setOwnerFeeAddress(uint256,address)": "8af319c7",
          "setOwnerFeePercent(uint256,uint256)": "d66329b0",
          "setSwapAndEvolveEnabled(bool)": "32c2d90c",
          "setTaxFeePercent(uint256,uint256)": "30b263ba",
          "swapAndEvolve()": "8d50d499",
          "swapAndEvolveEnabled()": "55724b3a",
          "swapAndLiquifyEnabled()": "4a74bb02",
          "symbol()": "95d89b41",
          "tokenFromReflection(uint256)": "2d838119",
          "totalFees()": "13114a9d",
          "totalSupply()": "18160ddd",
          "transfer(address,uint256)": "a9059cbb",
          "transferFrom(address,address,uint256)": "23b872dd",
          "transferOwnership(address)": "f2fde38b",
          "unBlacklistAddress(address)": "d40cf659",
          "uniswapV2Pair()": "49bd5a5e",
          "uniswapV2Router()": "1694505e",
          "updateBurnAddress(address)": "6bd89cdd",
          "updateRouterAndPair(address,address)": "40b28c2f",
          "whitelistAddress(address,uint256)": "200c7295",
          "withdrawBnb(uint256)": "459c979b",
          "withdrawToken(address,uint256)": "9e281a98"
        }
      },
      "storageLayout": {
        "storage": [
          {
            "astId": 598,
            "contract": "contracts/Safemoon.sol:Safemoon",
            "label": "_initialized",
            "offset": 0,
            "slot": "0",
            "type": "t_bool"
          },
          {
            "astId": 601,
            "contract": "contracts/Safemoon.sol:Safemoon",
            "label": "_initializing",
            "offset": 1,
            "slot": "0",
            "type": "t_bool"
          },
          {
            "astId": 698,
            "contract": "contracts/Safemoon.sol:Safemoon",
            "label": "__gap",
            "offset": 0,
            "slot": "1",
            "type": "t_array(t_uint256)50_storage"
          },
          {
            "astId": 705,
            "contract": "contracts/Safemoon.sol:Safemoon",
            "label": "_owner",
            "offset": 0,
            "slot": "51",
            "type": "t_address"
          },
          {
            "astId": 824,
            "contract": "contracts/Safemoon.sol:Safemoon",
            "label": "__gap",
            "offset": 0,
            "slot": "52",
            "type": "t_array(t_uint256)49_storage"
          },
          {
            "astId": 1670,
            "contract": "contracts/Safemoon.sol:Safemoon",
            "label": "_rOwned",
            "offset": 0,
            "slot": "101",
            "type": "t_mapping(t_address,t_uint256)"
          },
          {
            "astId": 1674,
            "contract": "contracts/Safemoon.sol:Safemoon",
            "label": "_tOwned",
            "offset": 0,
            "slot": "102",
            "type": "t_mapping(t_address,t_uint256)"
          },
          {
            "astId": 1680,
            "contract": "contracts/Safemoon.sol:Safemoon",
            "label": "_allowances",
            "offset": 0,
            "slot": "103",
            "type": "t_mapping(t_address,t_mapping(t_address,t_uint256))"
          },
          {
            "astId": 1684,
            "contract": "contracts/Safemoon.sol:Safemoon",
            "label": "_isExcludedFromFee",
            "offset": 0,
            "slot": "104",
            "type": "t_mapping(t_address,t_bool)"
          },
          {
            "astId": 1688,
            "contract": "contracts/Safemoon.sol:Safemoon",
            "label": "_isExcluded",
            "offset": 0,
            "slot": "105",
            "type": "t_mapping(t_address,t_bool)"
          },
          {
            "astId": 1692,
            "contract": "contracts/Safemoon.sol:Safemoon",
            "label": "_isBlacklisted",
            "offset": 0,
            "slot": "106",
            "type": "t_mapping(t_address,t_bool)"
          },
          {
            "astId": 1696,
            "contract": "contracts/Safemoon.sol:Safemoon",
            "label": "_accountsTier",
            "offset": 0,
            "slot": "107",
            "type": "t_mapping(t_address,t_uint256)"
          },
          {
            "astId": 1699,
            "contract": "contracts/Safemoon.sol:Safemoon",
            "label": "_excluded",
            "offset": 0,
            "slot": "108",
            "type": "t_array(t_address)dyn_storage"
          },
          {
            "astId": 1708,
            "contract": "contracts/Safemoon.sol:Safemoon",
            "label": "_tTotal",
            "offset": 0,
            "slot": "109",
            "type": "t_uint256"
          },
          {
            "astId": 1710,
            "contract": "contracts/Safemoon.sol:Safemoon",
            "label": "_rTotal",
            "offset": 0,
            "slot": "110",
            "type": "t_uint256"
          },
          {
            "astId": 1712,
            "contract": "contracts/Safemoon.sol:Safemoon",
            "label": "_tFeeTotal",
            "offset": 0,
            "slot": "111",
            "type": "t_uint256"
          },
          {
            "astId": 1714,
            "contract": "contracts/Safemoon.sol:Safemoon",
            "label": "_maxFee",
            "offset": 0,
            "slot": "112",
            "type": "t_uint256"
          },
          {
            "astId": 1716,
            "contract": "contracts/Safemoon.sol:Safemoon",
            "label": "_name",
            "offset": 0,
            "slot": "113",
            "type": "t_string_storage"
          },
          {
            "astId": 1718,
            "contract": "contracts/Safemoon.sol:Safemoon",
            "label": "_symbol",
            "offset": 0,
            "slot": "114",
            "type": "t_string_storage"
          },
          {
            "astId": 1720,
            "contract": "contracts/Safemoon.sol:Safemoon",
            "label": "_decimals",
            "offset": 0,
            "slot": "115",
            "type": "t_uint8"
          },
          {
            "astId": 1722,
            "contract": "contracts/Safemoon.sol:Safemoon",
            "label": "_defaultFees",
            "offset": 0,
            "slot": "116",
            "type": "t_struct(FeeTier)1634_storage"
          },
          {
            "astId": 1724,
            "contract": "contracts/Safemoon.sol:Safemoon",
            "label": "_previousFees",
            "offset": 0,
            "slot": "123",
            "type": "t_struct(FeeTier)1634_storage"
          },
          {
            "astId": 1726,
            "contract": "contracts/Safemoon.sol:Safemoon",
            "label": "_emptyFees",
            "offset": 0,
            "slot": "130",
            "type": "t_struct(FeeTier)1634_storage"
          },
          {
            "astId": 1729,
            "contract": "contracts/Safemoon.sol:Safemoon",
            "label": "feeTiers",
            "offset": 0,
            "slot": "137",
            "type": "t_array(t_struct(FeeTier)1634_storage)dyn_storage"
          },
          {
            "astId": 1731,
            "contract": "contracts/Safemoon.sol:Safemoon",
            "label": "uniswapV2Router",
            "offset": 0,
            "slot": "138",
            "type": "t_contract(IUniswapV2Router02)1605"
          },
          {
            "astId": 1733,
            "contract": "contracts/Safemoon.sol:Safemoon",
            "label": "uniswapV2Pair",
            "offset": 0,
            "slot": "139",
            "type": "t_address"
          },
          {
            "astId": 1735,
            "contract": "contracts/Safemoon.sol:Safemoon",
            "label": "WBNB",
            "offset": 0,
            "slot": "140",
            "type": "t_address"
          },
          {
            "astId": 1737,
            "contract": "contracts/Safemoon.sol:Safemoon",
            "label": "migration",
            "offset": 0,
            "slot": "141",
            "type": "t_address"
          },
          {
            "astId": 1739,
            "contract": "contracts/Safemoon.sol:Safemoon",
            "label": "_initializerAccount",
            "offset": 0,
            "slot": "142",
            "type": "t_address"
          },
          {
            "astId": 1741,
            "contract": "contracts/Safemoon.sol:Safemoon",
            "label": "_burnAddress",
            "offset": 0,
            "slot": "143",
            "type": "t_address"
          },
          {
            "astId": 1743,
            "contract": "contracts/Safemoon.sol:Safemoon",
            "label": "inSwapAndLiquify",
            "offset": 20,
            "slot": "143",
            "type": "t_bool"
          },
          {
            "astId": 1745,
            "contract": "contracts/Safemoon.sol:Safemoon",
            "label": "swapAndLiquifyEnabled",
            "offset": 21,
            "slot": "143",
            "type": "t_bool"
          },
          {
            "astId": 1747,
            "contract": "contracts/Safemoon.sol:Safemoon",
            "label": "_maxTxAmount",
            "offset": 0,
            "slot": "144",
            "type": "t_uint256"
          },
          {
            "astId": 1749,
            "contract": "contracts/Safemoon.sol:Safemoon",
            "label": "numTokensSellToAddToLiquidity",
            "offset": 0,
            "slot": "145",
            "type": "t_uint256"
          },
          {
            "astId": 1751,
            "contract": "contracts/Safemoon.sol:Safemoon",
            "label": "_upgraded",
            "offset": 0,
            "slot": "146",
            "type": "t_bool"
          },
          {
            "astId": 1863,
            "contract": "contracts/Safemoon.sol:Safemoon",
            "label": "numTokensToCollectBNB",
            "offset": 0,
            "slot": "147",
            "type": "t_uint256"
          },
          {
            "astId": 1865,
            "contract": "contracts/Safemoon.sol:Safemoon",
            "label": "numOfBnbToSwapAndEvolve",
            "offset": 0,
            "slot": "148",
            "type": "t_uint256"
          },
          {
            "astId": 1867,
            "contract": "contracts/Safemoon.sol:Safemoon",
            "label": "inSwapAndEvolve",
            "offset": 0,
            "slot": "149",
            "type": "t_bool"
          },
          {
            "astId": 1869,
            "contract": "contracts/Safemoon.sol:Safemoon",
            "label": "swapAndEvolveEnabled",
            "offset": 1,
            "slot": "149",
            "type": "t_bool"
          },
          {
            "astId": 3492,
            "contract": "contracts/Safemoon.sol:Safemoon",
            "label": "_rTotalExcluded",
            "offset": 0,
            "slot": "150",
            "type": "t_uint256"
          },
          {
            "astId": 3494,
            "contract": "contracts/Safemoon.sol:Safemoon",
            "label": "_tTotalExcluded",
            "offset": 0,
            "slot": "151",
            "type": "t_uint256"
          }
        ],
        "types": {
          "t_address": {
            "encoding": "inplace",
            "label": "address",
            "numberOfBytes": "20"
          },
          "t_array(t_address)dyn_storage": {
            "base": "t_address",
            "encoding": "dynamic_array",
            "label": "address[]",
            "numberOfBytes": "32"
          },
          "t_array(t_struct(FeeTier)1634_storage)dyn_storage": {
            "base": "t_struct(FeeTier)1634_storage",
            "encoding": "dynamic_array",
            "label": "struct Safemoon.FeeTier[]",
            "numberOfBytes": "32"
          },
          "t_array(t_uint256)49_storage": {
            "base": "t_uint256",
            "encoding": "inplace",
            "label": "uint256[49]",
            "numberOfBytes": "1568"
          },
          "t_array(t_uint256)50_storage": {
            "base": "t_uint256",
            "encoding": "inplace",
            "label": "uint256[50]",
            "numberOfBytes": "1600"
          },
          "t_bool": {
            "encoding": "inplace",
            "label": "bool",
            "numberOfBytes": "1"
          },
          "t_contract(IUniswapV2Router02)1605": {
            "encoding": "inplace",
            "label": "contract IUniswapV2Router02",
            "numberOfBytes": "20"
          },
          "t_mapping(t_address,t_bool)": {
            "encoding": "mapping",
            "key": "t_address",
            "label": "mapping(address => bool)",
            "numberOfBytes": "32",
            "value": "t_bool"
          },
          "t_mapping(t_address,t_mapping(t_address,t_uint256))": {
            "encoding": "mapping",
            "key": "t_address",
            "label": "mapping(address => mapping(address => uint256))",
            "numberOfBytes": "32",
            "value": "t_mapping(t_address,t_uint256)"
          },
          "t_mapping(t_address,t_uint256)": {
            "encoding": "mapping",
            "key": "t_address",
            "label": "mapping(address => uint256)",
            "numberOfBytes": "32",
            "value": "t_uint256"
          },
          "t_string_storage": {
            "encoding": "bytes",
            "label": "string",
            "numberOfBytes": "32"
          },
          "t_struct(FeeTier)1634_storage": {
            "encoding": "inplace",
            "label": "struct Safemoon.FeeTier",
            "members": [
              {
                "astId": 1621,
                "contract": "contracts/Safemoon.sol:Safemoon",
                "label": "ecoSystemFee",
                "offset": 0,
                "slot": "0",
                "type": "t_uint256"
              },
              {
                "astId": 1623,
                "contract": "contracts/Safemoon.sol:Safemoon",
                "label": "liquidityFee",
                "offset": 0,
                "slot": "1",
                "type": "t_uint256"
              },
              {
                "astId": 1625,
                "contract": "contracts/Safemoon.sol:Safemoon",
                "label": "taxFee",
                "offset": 0,
                "slot": "2",
                "type": "t_uint256"
              },
              {
                "astId": 1627,
                "contract": "contracts/Safemoon.sol:Safemoon",
                "label": "ownerFee",
                "offset": 0,
                "slot": "3",
                "type": "t_uint256"
              },
              {
                "astId": 1629,
                "contract": "contracts/Safemoon.sol:Safemoon",
                "label": "burnFee",
                "offset": 0,
                "slot": "4",
                "type": "t_uint256"
              },
              {
                "astId": 1631,
                "contract": "contracts/Safemoon.sol:Safemoon",
                "label": "ecoSystem",
                "offset": 0,
                "slot": "5",
                "type": "t_address"
              },
              {
                "astId": 1633,
                "contract": "contracts/Safemoon.sol:Safemoon",
                "label": "owner",
                "offset": 0,
                "slot": "6",
                "type": "t_address"
              }
            ],
            "numberOfBytes": "224"
          },
          "t_uint256": {
            "encoding": "inplace",
            "label": "uint256",
            "numberOfBytes": "32"
          },
          "t_uint8": {
            "encoding": "inplace",
            "label": "uint8",
            "numberOfBytes": "1"
          }
        }
      }
    }
  }
}