{
  "_format": "hh-sol-artifact-1",
  "contractName": "Safemoon",
  "sourceName": "contracts/safemoon.sol",
  "abi": [
    {
      "anonymous": false,
      "inputs": [
        {
          "indexed": true,
          "internalType": "address",
          "name": "owner",
          "type": "address"
        },
        {
          "indexed": true,
          "internalType": "address",
          "name": "spender",
          "type": "address"
        },
        {
          "indexed": false,
          "internalType": "uint256",
          "name": "value",
          "type": "uint256"
        }
      ],
      "name": "Approval",
      "type": "event"
    },
    {
      "anonymous": false,
      "inputs": [
        {
          "indexed": false,
          "internalType": "uint256",
          "name": "minTokensBeforeSwap",
          "type": "uint256"
        }
      ],
      "name": "MinTokensBeforeSwapUpdated",
      "type": "event"
    },
    {
      "anonymous": false,
      "inputs": [
        {
          "indexed": true,
          "internalType": "address",
          "name": "previousOwner",
          "type": "address"
        },
        {
          "indexed": true,
          "internalType": "address",
          "name": "newOwner",
          "type": "address"
        }
      ],
      "name": "OwnershipTransferred",
      "type": "event"
    },
    {
      "anonymous": false,
      "inputs": [
        {
          "indexed": false,
          "internalType": "uint256",
          "name": "bnbSwapped",
          "type": "uint256"
        },
        {
          "indexed": false,
          "internalType": "uint256",
          "name": "tokenReceived",
          "type": "uint256"
        },
        {
          "indexed": false,
          "internalType": "uint256",
          "name": "bnbIntoLiquidity",
          "type": "uint256"
        }
      ],
      "name": "SwapAndEvolve",
      "type": "event"
    },
    {
      "anonymous": false,
      "inputs": [
        {
          "indexed": false,
          "internalType": "bool",
          "name": "enabled",
          "type": "bool"
        }
      ],
      "name": "SwapAndEvolveEnabledUpdated",
      "type": "event"
    },
    {
      "anonymous": false,
      "inputs": [
        {
          "indexed": true,
          "internalType": "address",
          "name": "from",
          "type": "address"
        },
        {
          "indexed": true,
          "internalType": "address",
          "name": "to",
          "type": "address"
        },
        {
          "indexed": false,
          "internalType": "uint256",
          "name": "value",
          "type": "uint256"
        }
      ],
      "name": "Transfer",
      "type": "event"
    },
    {
      "inputs": [],
      "name": "WBNB",
      "outputs": [
        {
          "internalType": "address",
          "name": "",
          "type": "address"
        }
      ],
      "stateMutability": "view",
      "type": "function"
    },
    {
      "inputs": [],
      "name": "_burnAddress",
      "outputs": [
        {
          "internalType": "address",
          "name": "",
          "type": "address"
        }
      ],
      "stateMutability": "view",
      "type": "function"
    },
    {
      "inputs": [],
      "name": "_defaultFees",
      "outputs": [
        {
          "internalType": "uint256",
          "name": "ecoSystemFee",
          "type": "uint256"
        },
        {
          "internalType": "uint256",
          "name": "liquidityFee",
          "type": "uint256"
        },
        {
          "internalType": "uint256",
          "name": "taxFee",
          "type": "uint256"
        },
        {
          "internalType": "uint256",
          "name": "ownerFee",
          "type": "uint256"
        },
        {
          "internalType": "uint256",
          "name": "burnFee",
          "type": "uint256"
        },
        {
          "internalType": "address",
          "name": "ecoSystem",
          "type": "address"
        },
        {
          "internalType": "address",
          "name": "owner",
          "type": "address"
        }
      ],
      "stateMutability": "view",
      "type": "function"
    },
    {
      "inputs": [],
      "name": "_maxTxAmount",
      "outputs": [
        {
          "internalType": "uint256",
          "name": "",
          "type": "uint256"
        }
      ],
      "stateMutability": "view",
      "type": "function"
    },
    {
      "inputs": [
        {
          "internalType": "address",
          "name": "_account",
          "type": "address"
        }
      ],
      "name": "accountTier",
      "outputs": [
        {
          "components": [
            {
              "internalType": "uint256",
              "name": "ecoSystemFee",
              "type": "uint256"
            },
            {
              "internalType": "uint256",
              "name": "liquidityFee",
              "type": "uint256"
            },
            {
              "internalType": "uint256",
              "name": "taxFee",
              "type": "uint256"
            },
            {
              "internalType": "uint256",
              "name": "ownerFee",
              "type": "uint256"
            },
            {
              "internalType": "uint256",
              "name": "burnFee",
              "type": "uint256"
            },
            {
              "internalType": "address",
              "name": "ecoSystem",
              "type": "address"
            },
            {
              "internalType": "address",
              "name": "owner",
              "type": "address"
            }
          ],
          "internalType": "struct Safemoon.FeeTier",
          "name": "",
          "type": "tuple"
        }
      ],
      "stateMutability": "view",
      "type": "function"
    },
    {
      "inputs": [
        {
          "internalType": "uint256",
          "name": "_ecoSystemFee",
          "type": "uint256"
        },
        {
          "internalType": "uint256",
          "name": "_liquidityFee",
          "type": "uint256"
        },
        {
          "internalType": "uint256",
          "name": "_taxFee",
          "type": "uint256"
        },
        {
          "internalType": "uint256",
          "name": "_ownerFee",
          "type": "uint256"
        },
        {
          "internalType": "uint256",
          "name": "_burnFee",
          "type": "uint256"
        },
        {
          "internalType": "address",
          "name": "_ecoSystem",
          "type": "address"
        },
        {
          "internalType": "address",
          "name": "_owner",
          "type": "address"
        }
      ],
      "name": "addTier",
      "outputs": [],
      "stateMutability": "nonpayable",
      "type": "function"
    },
    {
      "inputs": [
        {
          "internalType": "address",
          "name": "owner",
          "type": "address"
        },
        {
          "internalType": "address",
          "name": "spender",
          "type": "address"
        }
      ],
      "name": "allowance",
      "outputs": [
        {
          "internalType": "uint256",
          "name": "",
          "type": "uint256"
        }
      ],
      "stateMutability": "view",
      "type": "function"
    },
    {
      "inputs": [
        {
          "internalType": "address",
          "name": "spender",
          "type": "address"
        },
        {
          "internalType": "uint256",
          "name": "amount",
          "type": "uint256"
        }
      ],
      "name": "approve",
      "outputs": [
        {
          "internalType": "bool",
          "name": "",
          "type": "bool"
        }
      ],
      "stateMutability": "nonpayable",
      "type": "function"
    },
    {
      "inputs": [
        {
          "internalType": "address",
          "name": "account",
          "type": "address"
        }
      ],
      "name": "balanceOf",
      "outputs": [
        {
          "internalType": "uint256",
          "name": "",
          "type": "uint256"
        }
      ],
      "stateMutability": "view",
      "type": "function"
    },
    {
      "inputs": [
        {
          "internalType": "address",
          "name": "account",
          "type": "address"
        }
      ],
      "name": "blacklistAddress",
      "outputs": [],
      "stateMutability": "nonpayable",
      "type": "function"
    },
    {
      "inputs": [],
      "name": "decimals",
      "outputs": [
        {
          "internalType": "uint8",
          "name": "",
          "type": "uint8"
        }
      ],
      "stateMutability": "view",
      "type": "function"
    },
    {
      "inputs": [
        {
          "internalType": "address",
          "name": "spender",
          "type": "address"
        },
        {
          "internalType": "uint256",
          "name": "subtractedValue",
          "type": "uint256"
        }
      ],
      "name": "decreaseAllowance",
      "outputs": [
        {
          "internalType": "bool",
          "name": "",
          "type": "bool"
        }
      ],
      "stateMutability": "nonpayable",
      "type": "function"
    },
    {
      "inputs": [
        {
          "internalType": "address",
          "name": "account",
          "type": "address"
        }
      ],
      "name": "excludeFromFee",
      "outputs": [],
      "stateMutability": "nonpayable",
      "type": "function"
    },
    {
      "inputs": [
        {
          "internalType": "address",
          "name": "account",
          "type": "address"
        }
      ],
      "name": "excludeFromReward",
      "outputs": [],
      "stateMutability": "nonpayable",
      "type": "function"
    },
    {
      "inputs": [
        {
          "internalType": "address",
          "name": "_account",
          "type": "address"
        }
      ],
      "name": "excludeWhitelistedAddress",
      "outputs": [],
      "stateMutability": "nonpayable",
      "type": "function"
    },
    {
      "inputs": [
        {
          "internalType": "uint256",
          "name": "_tierIndex",
          "type": "uint256"
        }
      ],
      "name": "feeTier",
      "outputs": [
        {
          "components": [
            {
              "internalType": "uint256",
              "name": "ecoSystemFee",
              "type": "uint256"
            },
            {
              "internalType": "uint256",
              "name": "liquidityFee",
              "type": "uint256"
            },
            {
              "internalType": "uint256",
              "name": "taxFee",
              "type": "uint256"
            },
            {
              "internalType": "uint256",
              "name": "ownerFee",
              "type": "uint256"
            },
            {
              "internalType": "uint256",
              "name": "burnFee",
              "type": "uint256"
            },
            {
              "internalType": "address",
              "name": "ecoSystem",
              "type": "address"
            },
            {
              "internalType": "address",
              "name": "owner",
              "type": "address"
            }
          ],
          "internalType": "struct Safemoon.FeeTier",
          "name": "",
          "type": "tuple"
        }
      ],
      "stateMutability": "view",
      "type": "function"
    },
    {
      "inputs": [],
      "name": "feeTiersLength",
      "outputs": [
        {
          "internalType": "uint256",
          "name": "",
          "type": "uint256"
        }
      ],
      "stateMutability": "view",
      "type": "function"
    },
    {
      "inputs": [],
      "name": "getBNBBalance",
      "outputs": [
        {
          "internalType": "uint256",
          "name": "",
          "type": "uint256"
        }
      ],
      "stateMutability": "view",
      "type": "function"
    },
    {
      "inputs": [],
      "name": "getContractBalance",
      "outputs": [
        {
          "internalType": "uint256",
          "name": "",
          "type": "uint256"
        }
      ],
      "stateMutability": "view",
      "type": "function"
    },
    {
      "inputs": [
        {
          "internalType": "address",
          "name": "account",
          "type": "address"
        }
      ],
      "name": "includeInFee",
      "outputs": [],
      "stateMutability": "nonpayable",
      "type": "function"
    },
    {
      "inputs": [
        {
          "internalType": "address",
          "name": "account",
          "type": "address"
        }
      ],
      "name": "includeInReward",
      "outputs": [],
      "stateMutability": "nonpayable",
      "type": "function"
    },
    {
      "inputs": [
        {
          "internalType": "address",
          "name": "spender",
          "type": "address"
        },
        {
          "internalType": "uint256",
          "name": "addedValue",
          "type": "uint256"
        }
      ],
      "name": "increaseAllowance",
      "outputs": [
        {
          "internalType": "bool",
          "name": "",
          "type": "bool"
        }
      ],
      "stateMutability": "nonpayable",
      "type": "function"
    },
    {
      "inputs": [
        {
          "internalType": "address",
          "name": "_router",
          "type": "address"
        }
      ],
      "name": "initialize",
      "outputs": [],
      "stateMutability": "nonpayable",
      "type": "function"
    },
    {
      "inputs": [
        {
          "internalType": "address",
          "name": "account",
          "type": "address"
        }
      ],
      "name": "isBlacklisted",
      "outputs": [
        {
          "internalType": "bool",
          "name": "",
          "type": "bool"
        }
      ],
      "stateMutability": "view",
      "type": "function"
    },
    {
      "inputs": [
        {
          "internalType": "address",
          "name": "account",
          "type": "address"
        }
      ],
      "name": "isExcludedFromFee",
      "outputs": [
        {
          "internalType": "bool",
          "name": "",
          "type": "bool"
        }
      ],
      "stateMutability": "view",
      "type": "function"
    },
    {
      "inputs": [
        {
          "internalType": "address",
          "name": "account",
          "type": "address"
        }
      ],
      "name": "isExcludedFromReward",
      "outputs": [
        {
          "internalType": "bool",
          "name": "",
          "type": "bool"
        }
      ],
      "stateMutability": "view",
      "type": "function"
    },
    {
      "inputs": [],
      "name": "isMigrationStarted",
      "outputs": [
        {
          "internalType": "bool",
          "name": "",
          "type": "bool"
        }
      ],
      "stateMutability": "view",
      "type": "function"
    },
    {
      "inputs": [
        {
          "internalType": "address",
          "name": "_account",
          "type": "address"
        }
      ],
      "name": "isWhitelisted",
      "outputs": [
        {
          "internalType": "bool",
          "name": "",
          "type": "bool"
        }
      ],
      "stateMutability": "view",
      "type": "function"
    },
    {
      "inputs": [
        {
          "internalType": "address",
          "name": "account",
          "type": "address"
        },
        {
          "internalType": "uint256",
          "name": "amount",
          "type": "uint256"
        }
      ],
      "name": "migrate",
      "outputs": [],
      "stateMutability": "nonpayable",
      "type": "function"
    },
    {
      "inputs": [],
      "name": "name",
      "outputs": [
        {
          "internalType": "string",
          "name": "",
          "type": "string"
        }
      ],
      "stateMutability": "view",
      "type": "function"
    },
    {
      "inputs": [],
      "name": "numOfBnbToSwapAndEvolve",
      "outputs": [
        {
          "internalType": "uint256",
          "name": "",
          "type": "uint256"
        }
      ],
      "stateMutability": "view",
      "type": "function"
    },
    {
      "inputs": [],
      "name": "numTokensToCollectBNB",
      "outputs": [
        {
          "internalType": "uint256",
          "name": "",
          "type": "uint256"
        }
      ],
      "stateMutability": "view",
      "type": "function"
    },
    {
      "inputs": [],
      "name": "owner",
      "outputs": [
        {
          "internalType": "address",
          "name": "",
          "type": "address"
        }
      ],
      "stateMutability": "view",
      "type": "function"
    },
    {
      "inputs": [
        {
          "internalType": "uint256",
          "name": "tAmount",
          "type": "uint256"
        },
        {
          "internalType": "bool",
          "name": "deductTransferFee",
          "type": "bool"
        }
      ],
      "name": "reflectionFromToken",
      "outputs": [
        {
          "internalType": "uint256",
          "name": "",
          "type": "uint256"
        }
      ],
      "stateMutability": "view",
      "type": "function"
    },
    {
      "inputs": [
        {
          "internalType": "uint256",
          "name": "tAmount",
          "type": "uint256"
        },
        {
          "internalType": "uint256",
          "name": "_tierIndex",
          "type": "uint256"
        },
        {
          "internalType": "bool",
          "name": "deductTransferFee",
          "type": "bool"
        }
      ],
      "name": "reflectionFromTokenInTiers",
      "outputs": [
        {
          "internalType": "uint256",
          "name": "",
          "type": "uint256"
        }
      ],
      "stateMutability": "view",
      "type": "function"
    },
    {
      "inputs": [],
      "name": "renounceOwnership",
      "outputs": [],
      "stateMutability": "nonpayable",
      "type": "function"
    },
    {
      "inputs": [
        {
          "internalType": "uint256",
          "name": "_tierIndex",
          "type": "uint256"
        },
        {
          "internalType": "uint256",
          "name": "_burnFee",
          "type": "uint256"
        }
      ],
      "name": "setBurnFeePercent",
      "outputs": [],
      "stateMutability": "nonpayable",
      "type": "function"
    },
    {
      "inputs": [],
      "name": "setDefaultSettings",
      "outputs": [],
      "stateMutability": "nonpayable",
      "type": "function"
    },
    {
      "inputs": [
        {
          "internalType": "uint256",
          "name": "_tierIndex",
          "type": "uint256"
        },
        {
          "internalType": "address",
          "name": "_ecoSystem",
          "type": "address"
        }
      ],
      "name": "setEcoSystemFeeAddress",
      "outputs": [],
      "stateMutability": "nonpayable",
      "type": "function"
    },
    {
      "inputs": [
        {
          "internalType": "uint256",
          "name": "_tierIndex",
          "type": "uint256"
        },
        {
          "internalType": "uint256",
          "name": "_ecoSystemFee",
          "type": "uint256"
        }
      ],
      "name": "setEcoSystemFeePercent",
      "outputs": [],
      "stateMutability": "nonpayable",
      "type": "function"
    },
    {
      "inputs": [
        {
          "internalType": "uint256",
          "name": "_tierIndex",
          "type": "uint256"
        },
        {
          "internalType": "uint256",
          "name": "_liquidityFee",
          "type": "uint256"
        }
      ],
      "name": "setLiquidityFeePercent",
      "outputs": [],
      "stateMutability": "nonpayable",
      "type": "function"
    },
    {
      "inputs": [
        {
          "internalType": "uint256",
          "name": "maxTxPercent",
          "type": "uint256"
        }
      ],
      "name": "setMaxTxPercent",
      "outputs": [],
      "stateMutability": "nonpayable",
      "type": "function"
    },
    {
      "inputs": [
        {
          "internalType": "address",
          "name": "_migration",
          "type": "address"
        }
      ],
      "name": "setMigrationAddress",
      "outputs": [],
      "stateMutability": "nonpayable",
      "type": "function"
    },
    {
      "inputs": [
        {
          "internalType": "uint256",
          "name": "_numBnb",
          "type": "uint256"
        }
      ],
      "name": "setNumOfBnbToSwapAndEvolve",
      "outputs": [],
      "stateMutability": "nonpayable",
      "type": "function"
    },
    {
      "inputs": [
        {
          "internalType": "uint256",
          "name": "_numToken",
          "type": "uint256"
        }
      ],
      "name": "setNumberOfTokenToCollectBNB",
      "outputs": [],
      "stateMutability": "nonpayable",
      "type": "function"
    },
    {
      "inputs": [
        {
          "internalType": "uint256",
          "name": "_tierIndex",
          "type": "uint256"
        },
        {
          "internalType": "address",
          "name": "_owner",
          "type": "address"
        }
      ],
      "name": "setOwnerFeeAddress",
      "outputs": [],
      "stateMutability": "nonpayable",
      "type": "function"
    },
    {
      "inputs": [
        {
          "internalType": "uint256",
          "name": "_tierIndex",
          "type": "uint256"
        },
        {
          "internalType": "uint256",
          "name": "_ownerFee",
          "type": "uint256"
        }
      ],
      "name": "setOwnerFeePercent",
      "outputs": [],
      "stateMutability": "nonpayable",
      "type": "function"
    },
    {
      "inputs": [
        {
          "internalType": "bool",
          "name": "_enabled",
          "type": "bool"
        }
      ],
      "name": "setSwapAndEvolveEnabled",
      "outputs": [],
      "stateMutability": "nonpayable",
      "type": "function"
    },
    {
      "inputs": [
        {
          "internalType": "uint256",
          "name": "_tierIndex",
          "type": "uint256"
        },
        {
          "internalType": "uint256",
          "name": "_taxFee",
          "type": "uint256"
        }
      ],
      "name": "setTaxFeePercent",
      "outputs": [],
      "stateMutability": "nonpayable",
      "type": "function"
    },
    {
      "inputs": [],
      "name": "swapAndEvolve",
      "outputs": [],
      "stateMutability": "nonpayable",
      "type": "function"
    },
    {
      "inputs": [],
      "name": "swapAndEvolveEnabled",
      "outputs": [
        {
          "internalType": "bool",
          "name": "",
          "type": "bool"
        }
      ],
      "stateMutability": "view",
      "type": "function"
    },
    {
      "inputs": [],
      "name": "swapAndLiquifyEnabled",
      "outputs": [
        {
          "internalType": "bool",
          "name": "",
          "type": "bool"
        }
      ],
      "stateMutability": "view",
      "type": "function"
    },
    {
      "inputs": [],
      "name": "symbol",
      "outputs": [
        {
          "internalType": "string",
          "name": "",
          "type": "string"
        }
      ],
      "stateMutability": "view",
      "type": "function"
    },
    {
      "inputs": [
        {
          "internalType": "uint256",
          "name": "rAmount",
          "type": "uint256"
        }
      ],
      "name": "tokenFromReflection",
      "outputs": [
        {
          "internalType": "uint256",
          "name": "",
          "type": "uint256"
        }
      ],
      "stateMutability": "view",
      "type": "function"
    },
    {
      "inputs": [],
      "name": "totalFees",
      "outputs": [
        {
          "internalType": "uint256",
          "name": "",
          "type": "uint256"
        }
      ],
      "stateMutability": "view",
      "type": "function"
    },
    {
      "inputs": [],
      "name": "totalSupply",
      "outputs": [
        {
          "internalType": "uint256",
          "name": "",
          "type": "uint256"
        }
      ],
      "stateMutability": "view",
      "type": "function"
    },
    {
      "inputs": [
        {
          "internalType": "address",
          "name": "recipient",
          "type": "address"
        },
        {
          "internalType": "uint256",
          "name": "amount",
          "type": "uint256"
        }
      ],
      "name": "transfer",
      "outputs": [
        {
          "internalType": "bool",
          "name": "",
          "type": "bool"
        }
      ],
      "stateMutability": "nonpayable",
      "type": "function"
    },
    {
      "inputs": [
        {
          "internalType": "address",
          "name": "sender",
          "type": "address"
        },
        {
          "internalType": "address",
          "name": "recipient",
          "type": "address"
        },
        {
          "internalType": "uint256",
          "name": "amount",
          "type": "uint256"
        }
      ],
      "name": "transferFrom",
      "outputs": [
        {
          "internalType": "bool",
          "name": "",
          "type": "bool"
        }
      ],
      "stateMutability": "nonpayable",
      "type": "function"
    },
    {
      "inputs": [
        {
          "internalType": "address",
          "name": "newOwner",
          "type": "address"
        }
      ],
      "name": "transferOwnership",
      "outputs": [],
      "stateMutability": "nonpayable",
      "type": "function"
    },
    {
      "inputs": [
        {
          "internalType": "address",
          "name": "account",
          "type": "address"
        }
      ],
      "name": "unBlacklistAddress",
      "outputs": [],
      "stateMutability": "nonpayable",
      "type": "function"
    },
    {
      "inputs": [],
      "name": "uniswapV2Pair",
      "outputs": [
        {
          "internalType": "address",
          "name": "",
          "type": "address"
        }
      ],
      "stateMutability": "view",
      "type": "function"
    },
    {
      "inputs": [],
      "name": "uniswapV2Router",
      "outputs": [
        {
          "internalType": "contract IUniswapV2Router02",
          "name": "",
          "type": "address"
        }
      ],
      "stateMutability": "view",
      "type": "function"
    },
    {
      "inputs": [
        {
          "internalType": "address",
          "name": "_newBurnAddress",
          "type": "address"
        }
      ],
      "name": "updateBurnAddress",
      "outputs": [],
      "stateMutability": "nonpayable",
      "type": "function"
    },
    {
      "inputs": [
        {
          "internalType": "address",
          "name": "_uniswapV2Router",
          "type": "address"
        },
        {
          "internalType": "address",
          "name": "_uniswapV2Pair",
          "type": "address"
        }
      ],
      "name": "updateRouterAndPair",
      "outputs": [],
      "stateMutability": "nonpayable",
      "type": "function"
    },
    {
      "inputs": [
        {
          "internalType": "address",
          "name": "_account",
          "type": "address"
        },
        {
          "internalType": "uint256",
          "name": "_tierIndex",
          "type": "uint256"
        }
      ],
      "name": "whitelistAddress",
      "outputs": [],
      "stateMutability": "nonpayable",
      "type": "function"
    },
    {
      "inputs": [
        {
          "internalType": "uint256",
          "name": "_amount",
          "type": "uint256"
        }
      ],
      "name": "withdrawBnb",
      "outputs": [],
      "stateMutability": "nonpayable",
      "type": "function"
    },
    {
      "inputs": [
        {
          "internalType": "address",
          "name": "_token",
          "type": "address"
        },
        {
          "internalType": "uint256",
          "name": "_amount",
          "type": "uint256"
        }
      ],
      "name": "withdrawToken",
      "outputs": [],
      "stateMutability": "nonpayable",
      "type": "function"
    },
    {
      "stateMutability": "payable",
      "type": "receive"
    }
  ],
  "bytecode": "0x608060405234801561001057600080fd5b5061571680620000216000396000f3fe6080604052600436106103e85760003560e01c8063674a311211610208578063a9059cbb11610118578063dd62ed3e116100ab578063f2fde38b1161007a578063f2fde38b14610b2e578063f3290d7514610b4e578063f89879aa14610b6e578063fe575a8714610b83578063fff3e1ba14610ba3576103ef565b8063dd62ed3e14610aa6578063dfd66cb314610ac6578063ea2f0b3714610aee578063f2d58c2314610b0e576103ef565b8063c4d66de8116100e7578063c4d66de814610a26578063d40cf65914610a46578063d543dbeb14610a66578063d66329b014610a86576103ef565b8063a9059cbb146109b1578063ad68ebf7146109d1578063bd3900c0146109f1578063bf26646914610a06576103ef565b80638abec6061161019b5780638dd950021161016a5780638dd95002146109275780638fc3d4b81461093c57806395d89b411461095c5780639e281a9814610971578063a457c2d714610991576103ef565b80638abec606146108c85780638af319c7146108dd5780638d50d499146108fd5780638da5cb5b14610912576103ef565b8063715018a6116101d7578063715018a61461085e5780637d1db4a5146108735780637ed948f71461088857806388f82020146108a8576103ef565b8063674a3112146107e95780636bd89cdd146108095780636f9fb98a1461082957806370a082311461083e576103ef565b80633685d419116103035780634732a7dc1161029657806352390c021161026557806352390c021461076a5780635342acb41461078a57806355724b3a146107aa57806360d0eb73146107bf5780636531c58c146107d4576103ef565b80634732a7dc1461070057806349bd5a5e146107205780634a74bb02146107355780634ffc14251461074a576103ef565b806340b28c2f116102d257806340b28c2f14610680578063437823ec146106a05780634549b039146106c0578063459c979b146106e0576103ef565b80633685d41914610600578063395093511461062057806339aa1bba146106405780633af32abf14610660576103ef565b806318160ddd1161037b578063301273341161034a578063301273341461057e57806330b263ba1461059e578063313ce567146105be57806332c2d90c146105e0576103ef565b806318160ddd14610509578063200c72951461051e57806323b872dd1461053e5780632d8381191461055e576103ef565b806313114a9d116103b757806313114a9d14610490578063132af75c146104a5578063140c5759146104ba5780631694505e146104e7576103ef565b806306fdde03146103f4578063095ea7b31461041f578063108449531461044c57806311b326011461046e576103ef565b366103ef57005b600080fd5b34801561040057600080fd5b50610409610bc3565b6040516104169190614daa565b60405180910390f35b34801561042b57600080fd5b5061043f61043a366004614ab8565b610c59565b6040516104169190614d6a565b34801561045857600080fd5b5061046c610467366004614a08565b610c77565b005b34801561047a57600080fd5b50610483610d34565b60405161041691906154c2565b34801561049c57600080fd5b50610483610d3a565b3480156104b157600080fd5b5061046c610d40565b3480156104c657600080fd5b506104da6104d5366004614b1b565b610d9d565b604051610416919061546a565b3480156104f357600080fd5b506104fc610e4a565b6040516104169190614cc4565b34801561051557600080fd5b50610483610e59565b34801561052a57600080fd5b5061046c610539366004614ab8565b610e5f565b34801561054a57600080fd5b5061043f610559366004614a78565b610f5d565b34801561056a57600080fd5b50610483610579366004614b1b565b610fe5565b34801561058a57600080fd5b506104da610599366004614a08565b611028565b3480156105aa57600080fd5b5061046c6105b9366004614b93565b6110cc565b3480156105ca57600080fd5b506105d36111f3565b6040516104169190615559565b3480156105ec57600080fd5b5061046c6105fb366004614ae3565b6111fc565b34801561060c57600080fd5b5061046c61061b366004614a08565b611288565b34801561062c57600080fd5b5061043f61063b366004614ab8565b6113fb565b34801561064c57600080fd5b5061046c61065b366004614b93565b611449565b34801561066c57600080fd5b5061043f61067b366004614a08565b611569565b34801561068c57600080fd5b5061046c61069b366004614a40565b611586565b3480156106ac57600080fd5b5061046c6106bb366004614a08565b61168c565b3480156106cc57600080fd5b506104836106db366004614b6f565b6116ef565b3480156106ec57600080fd5b5061046c6106fb366004614b1b565b6116fd565b34801561070c57600080fd5b5061046c61071b366004614a08565b611769565b34801561072c57600080fd5b506104fc6117ca565b34801561074157600080fd5b5061043f6117d9565b34801561075657600080fd5b5061046c610765366004614c19565b6117e9565b34801561077657600080fd5b5061046c610785366004614a08565b611841565b34801561079657600080fd5b5061043f6107a5366004614a08565b611979565b3480156107b657600080fd5b5061043f611997565b3480156107cb57600080fd5b5061043f6119a5565b3480156107e057600080fd5b506104836119b6565b3480156107f557600080fd5b5061046c610804366004614b1b565b6119bc565b34801561081557600080fd5b5061046c610824366004614a08565b611a00565b34801561083557600080fd5b50610483611a66565b34801561084a57600080fd5b50610483610859366004614a08565b611a76565b34801561086a57600080fd5b5061046c611ad8565b34801561087f57600080fd5b50610483611b61565b34801561089457600080fd5b5061046c6108a3366004614b4b565b611b67565b3480156108b457600080fd5b5061043f6108c3366004614a08565b611c65565b3480156108d457600080fd5b50610483611c83565b3480156108e957600080fd5b5061046c6108f8366004614b4b565b611c89565b34801561090957600080fd5b5061046c611d88565b34801561091e57600080fd5b506104fc612006565b34801561093357600080fd5b506104fc612015565b34801561094857600080fd5b5061046c610957366004614b93565b612024565b34801561096857600080fd5b50610409612147565b34801561097d57600080fd5b5061046c61098c366004614ab8565b6121a8565b34801561099d57600080fd5b5061043f6109ac366004614ab8565b612267565b3480156109bd57600080fd5b5061043f6109cc366004614ab8565b6122cf565b3480156109dd57600080fd5b5061046c6109ec366004614ab8565b6122e3565b3480156109fd57600080fd5b506104fc6123a6565b348015610a1257600080fd5b50610483610a21366004614bb4565b6123b5565b348015610a3257600080fd5b5061046c610a41366004614a08565b612419565b348015610a5257600080fd5b5061046c610a61366004614a08565b6124b5565b348015610a7257600080fd5b5061046c610a81366004614b1b565b612515565b348015610a9257600080fd5b5061046c610aa1366004614b93565b61257b565b348015610ab257600080fd5b50610483610ac1366004614a40565b61269e565b348015610ad257600080fd5b50610adb6126c9565b604051610416979695949392919061551d565b348015610afa57600080fd5b5061046c610b09366004614a08565b6126ee565b348015610b1a57600080fd5b5061046c610b29366004614b93565b61274e565b348015610b3a57600080fd5b5061046c610b49366004614a08565b61286f565b348015610b5a57600080fd5b5061046c610b69366004614a08565b612930565b348015610b7a57600080fd5b5061048361299e565b348015610b8f57600080fd5b5061043f610b9e366004614a08565b6129a2565b348015610baf57600080fd5b5061046c610bbe366004614b1b565b6129c0565b60718054604080516020601f6002600019610100600188161502019095169490940493840181900481028201810190925282815260609390929091830182828015610c4f5780601f10610c2457610100808354040283529160200191610c4f565b820191906000526020600020905b815481529060010190602001808311610c3257829003601f168201915b5050505050905090565b6000610c6d610c66612a04565b8484612a08565b5060015b92915050565b610c7f612a04565b6001600160a01b0316610c90612006565b6001600160a01b031614610cbf5760405162461bcd60e51b8152600401610cb6906151d4565b60405180910390fd5b6001600160a01b038116610ce55760405162461bcd60e51b8152600401610cb690615209565b6001600160a01b0381166000908152606b6020526040902054610d1a5760405162461bcd60e51b8152600401610cb69061539d565b6001600160a01b03166000908152606b6020526040812055565b60895490565b606f5490565b610d48612a04565b6001600160a01b0316610d59612006565b6001600160a01b031614610d7f5760405162461bcd60e51b8152600401610cb6906151d4565b608f805460ff60a81b191690556095805461ff001916610100179055565b610da56148a4565b60895482908110610dc85760405162461bcd60e51b8152600401610cb690615125565b60898381548110610dd557fe5b60009182526020918290206040805160e081018252600790930290910180548352600181015493830193909352600283015490820152600382015460608201526004820154608082015260058201546001600160a01b0390811660a083015260069092015490911660c0820152915050919050565b608a546001600160a01b031681565b606d5490565b610e67612a04565b6001600160a01b0316610e78612006565b6001600160a01b031614610e9e5760405162461bcd60e51b8152600401610cb6906151d4565b60895481908110610ec15760405162461bcd60e51b8152600401610cb690615125565b826040518060600160405280602a81526020016156b7602a91396001600160a01b0382166000908152606a6020526040902054819060ff1615610f175760405162461bcd60e51b8152600401610cb69190614daa565b506001600160a01b038516610f3e5760405162461bcd60e51b8152600401610cb690615209565b5050506001600160a01b039091166000908152606b6020526040902055565b6000610f6a848484612b6e565b610fda84610f76612a04565b610fd5856040518060600160405280602881526020016155d8602891396001600160a01b038a16600090815260676020526040812090610fb4612a04565b6001600160a01b031681526020810191909152604001600020549190612f81565b612a08565b5060015b9392505050565b6000606e548211156110095760405162461bcd60e51b8152600401610cb690614e86565b6000611013612fad565b905061101f8382612fd0565b9150505b919050565b6110306148a4565b6001600160a01b0382166000908152606b602052604090205460898054909190811061105857fe5b60009182526020918290206040805160e081018252600790930290910180548352600181015493830193909352600283015490820152600382015460608201526004820154608082015260058201546001600160a01b0390811660a083015260069092015490911660c08201529050919050565b6110d4612a04565b6001600160a01b03166110e5612006565b6001600160a01b03161461110b5760405162461bcd60e51b8152600401610cb6906151d4565b6089548290811061112e5760405162461bcd60e51b8152600401610cb690615125565b6111366148a4565b6089848154811061114357fe5b60009182526020918290206040805160e0810182526007909302909101805483526001810154938301939093526002830154908201819052600383015460608301526004830154608083015260058301546001600160a01b0390811660a084015260069093015490921660c082015291506111c090829085613002565b82608985815481106111ce57fe5b6000918252602090912060026007909202010155836111ed5760768390555b50505050565b60735460ff1690565b611204612a04565b6001600160a01b0316611215612006565b6001600160a01b03161461123b5760405162461bcd60e51b8152600401610cb6906151d4565b6095805461ff001916610100831515021790556040517ef279ea7539cc7cc5311702e24242fe836f7f94e8e329be09530ade3dd254c39061127d908390614d6a565b60405180910390a150565b611290612a04565b6001600160a01b03166112a1612006565b6001600160a01b0316146112c75760405162461bcd60e51b8152600401610cb6906151d4565b6001600160a01b03811660009081526069602052604090205460ff166112ff5760405162461bcd60e51b8152600401610cb690614fbb565b60005b606c548110156113f757816001600160a01b0316606c828154811061132357fe5b6000918252602090912001546001600160a01b031614156113ef57606c8054600019810190811061135057fe5b600091825260209091200154606c80546001600160a01b03909216918390811061137657fe5b600091825260208083209190910180546001600160a01b0319166001600160a01b039485161790559184168152606682526040808220829055606990925220805460ff19169055606c8054806113c857fe5b600082815260209020810160001990810180546001600160a01b03191690550190556113f7565b600101611302565b5050565b6000610c6d611408612a04565b84610fd58560676000611419612a04565b6001600160a01b03908116825260208083019390935260409182016000908120918c16815292529020549061306f565b611451612a04565b6001600160a01b0316611462612006565b6001600160a01b0316146114885760405162461bcd60e51b8152600401610cb6906151d4565b608954829081106114ab5760405162461bcd60e51b8152600401610cb690615125565b6114b36148a4565b608984815481106114c057fe5b60009182526020918290206040805160e08101825260079093029091018054808452600182015494840194909452600281015491830191909152600381015460608301526004810154608083015260058101546001600160a01b0390811660a08401526006909101541660c0820152915061153d90829085613002565b826089858154811061154b57fe5b6000918252602090912060079091020155836111ed57505060745550565b6001600160a01b03166000908152606b6020526040902054151590565b61158e612a04565b6001600160a01b031661159f612006565b6001600160a01b0316146115c55760405162461bcd60e51b8152600401610cb6906151d4565b608a80546001600160a01b038085166001600160a01b03199283161792839055608b8054858316931692909217909155604080516315ab88c960e31b81529051929091169163ad5c464891600480820192602092909190829003018186803b15801561163057600080fd5b505afa158015611644573d6000803e3d6000fd5b505050506040513d601f19601f820116820180604052508101906116689190614a24565b608c80546001600160a01b0319166001600160a01b03929092169190911790555050565b611694612a04565b6001600160a01b03166116a5612006565b6001600160a01b0316146116cb5760405162461bcd60e51b8152600401610cb6906151d4565b6001600160a01b03166000908152606860205260409020805460ff19166001179055565b6000610fde836000846123b5565b611705612a04565b6001600160a01b0316611716612006565b6001600160a01b03161461173c5760405162461bcd60e51b8152600401610cb6906151d4565b604051339082156108fc029083906000818181858888f193505050501580156113f7573d6000803e3d6000fd5b611771612a04565b6001600160a01b0316611782612006565b6001600160a01b0316146117a85760405162461bcd60e51b8152600401610cb6906151d4565b608d80546001600160a01b0319166001600160a01b0392909216919091179055565b608b546001600160a01b031681565b608f54600160a81b900460ff1681565b6117f1612a04565b6001600160a01b0316611802612006565b6001600160a01b0316146118285760405162461bcd60e51b8152600401610cb6906151d4565b61183787878787878787613094565b5050505050505050565b611849612a04565b6001600160a01b031661185a612006565b6001600160a01b0316146118805760405162461bcd60e51b8152600401610cb6906151d4565b6001600160a01b03811660009081526069602052604090205460ff16156118b95760405162461bcd60e51b8152600401610cb690614f4d565b6001600160a01b03811660009081526065602052604090205415611913576001600160a01b0381166000908152606560205260409020546118f990610fe5565b6001600160a01b0382166000908152606660205260409020555b6001600160a01b03166000818152606960205260408120805460ff19166001908117909155606c805491820181559091527f2b4a51ab505fc96a0952efda2ba61bcd3078d4c02c39a186ec16f21883fbe0160180546001600160a01b0319169091179055565b6001600160a01b031660009081526068602052604090205460ff1690565b609554610100900460ff1681565b608d546001600160a01b0316151590565b60935481565b6119c4612a04565b6001600160a01b03166119d5612006565b6001600160a01b0316146119fb5760405162461bcd60e51b8152600401610cb6906151d4565b609355565b611a08612a04565b6001600160a01b0316611a19612006565b6001600160a01b031614611a3f5760405162461bcd60e51b8152600401610cb6906151d4565b608f80546001600160a01b0319166001600160a01b038316179055611a6381611841565b50565b6000611a7130611a76565b905090565b6001600160a01b03811660009081526069602052604081205460ff1615611ab657506001600160a01b038116600090815260666020526040902054611023565b6001600160a01b038216600090815260656020526040902054610c7190610fe5565b611ae0612a04565b6001600160a01b0316611af1612006565b6001600160a01b031614611b175760405162461bcd60e51b8152600401610cb6906151d4565b6033546040516000916001600160a01b0316907f8be0079c531659141344cd1fd0a4f28419497f9722a3daafe3b4186f6b6457e0908390a3603380546001600160a01b0319169055565b60905481565b611b6f612a04565b6001600160a01b0316611b80612006565b6001600160a01b031614611ba65760405162461bcd60e51b8152600401610cb6906151d4565b60895482908110611bc95760405162461bcd60e51b8152600401610cb690615125565b6001600160a01b038216611bef5760405162461bcd60e51b8152600401610cb6906152cb565b611bf882611841565b8160898481548110611c0657fe5b906000526020600020906007020160050160006101000a8154816001600160a01b0302191690836001600160a01b031602179055508260001415611c6057607980546001600160a01b0319166001600160a01b0384161790555b505050565b6001600160a01b031660009081526069602052604090205460ff1690565b60945481565b611c91612a04565b6001600160a01b0316611ca2612006565b6001600160a01b031614611cc85760405162461bcd60e51b8152600401610cb6906151d4565b60895482908110611ceb5760405162461bcd60e51b8152600401610cb690615125565b6001600160a01b038216611d115760405162461bcd60e51b8152600401610cb6906152cb565b611d1a82611841565b8160898481548110611d2857fe5b906000526020600020906007020160060160006101000a8154816001600160a01b0302191690836001600160a01b031602179055508260001415611c6057607a80546001600160a01b0384166001600160a01b0319909116179055505050565b611d90612a04565b6001600160a01b0316611da1612006565b6001600160a01b031614611dc75760405162461bcd60e51b8152600401610cb6906151d4565b608f805460ff60a01b1916600160a01b1790556094544790811015611dfe5760405162461bcd60e51b8152600401610cb690615353565b506094546000611e0f826002612fd0565b90506000611e1d838361326e565b6040516370a0823160e01b815290915060009030906370a0823190611e46903390600401614cc4565b60206040518083038186803b158015611e5e57600080fd5b505afa158015611e72573d6000803e3d6000fd5b505050506040513d601f19601f82011682018060405250810190611e969190614b33565b9050611ea183613296565b6040516370a0823160e01b815260009030906370a0823190611ec7903390600401614cc4565b60206040518083038186803b158015611edf57600080fd5b505afa158015611ef3573d6000803e3d6000fd5b505050506040513d601f19601f82011682018060405250810190611f179190614b33565b90506000611f25828461326e565b9050611f32333083612a08565b6040516323b872dd60e01b815230906323b872dd90611f5990339084908690600401614cf2565b602060405180830381600087803b158015611f7357600080fd5b505af1158015611f87573d6000803e3d6000fd5b505050506040513d601f19601f82011682018060405250810190611fab9190614aff565b50611fb6818561341d565b7f08261edc7b257da79c22afdc1c7064b198c7abe8fdd21070ac0b55e0351804a3858286604051611fe993929190615507565b60405180910390a15050608f805460ff60a01b1916905550505050565b6033546001600160a01b031690565b608c546001600160a01b031681565b61202c612a04565b6001600160a01b031661203d612006565b6001600160a01b0316146120635760405162461bcd60e51b8152600401610cb6906151d4565b608954829081106120865760405162461bcd60e51b8152600401610cb690615125565b61208e6148a4565b6089848154811061209b57fe5b60009182526020918290206040805160e0810182526007909302909101805483526001810154938301939093526002830154908201526003820154606082015260048201546080820181905260058301546001600160a01b0390811660a084015260069093015490921660c0820152915061211890829085613002565b826089858154811061212657fe5b6000918252602090912060046007909202010155836111ed57505060785550565b60728054604080516020601f6002600019610100600188161502019095169490940493840181900481028201810190925282815260609390929091830182828015610c4f5780601f10610c2457610100808354040283529160200191610c4f565b6121b0612a04565b6001600160a01b03166121c1612006565b6001600160a01b0316146121e75760405162461bcd60e51b8152600401610cb6906151d4565b60405163a9059cbb60e01b81526001600160a01b0383169063a9059cbb906122159033908590600401614d16565b602060405180830381600087803b15801561222f57600080fd5b505af1158015612243573d6000803e3d6000fd5b505050506040513d601f19601f82011682018060405250810190611c609190614aff565b6000610c6d612274612a04565b84610fd585604051806060016040528060258152602001615669602591396067600061229e612a04565b6001600160a01b03908116825260208083019390935260409182016000908120918d16815292529020549190612f81565b6000610c6d6122dc612a04565b8484612b6e565b8160405180606001604052806029815260200161568e602991396001600160a01b0382166000908152606a6020526040902054819060ff16156123395760405162461bcd60e51b8152600401610cb69190614daa565b50608d546001600160a01b03166123625760405162461bcd60e51b8152600401610cb690615289565b608d546001600160a01b0316612376612a04565b6001600160a01b03161461239c5760405162461bcd60e51b8152600401610cb6906150f6565b6111ed84846134cf565b608f546001600160a01b031681565b6000606d548411156123d95760405162461bcd60e51b8152600401610cb690615029565b816123fa576123e66148f3565b6123f0858561350f565b519150610fde9050565b6124026148f3565b61240c858561350f565b602001519150610fde9050565b600054610100900460ff168061243257506124326135e1565b80612440575060005460ff16155b61245c5760405162461bcd60e51b8152600401610cb6906150a8565b600054610100900460ff16158015612487576000805460ff1961ff0019909116610100171660011790555b61248f6135f2565b612497613674565b6124a08261374e565b80156113f7576000805461ff00191690555050565b6124bd612a04565b6001600160a01b03166124ce612006565b6001600160a01b0316146124f45760405162461bcd60e51b8152600401610cb6906151d4565b6001600160a01b03166000908152606a60205260409020805460ff19169055565b61251d612a04565b6001600160a01b031661252e612006565b6001600160a01b0316146125545760405162461bcd60e51b8152600401610cb6906151d4565b61257561271061256f83606d54613b1290919063ffffffff16565b90612fd0565b60905550565b612583612a04565b6001600160a01b0316612594612006565b6001600160a01b0316146125ba5760405162461bcd60e51b8152600401610cb6906151d4565b608954829081106125dd5760405162461bcd60e51b8152600401610cb690615125565b6125e56148a4565b608984815481106125f257fe5b60009182526020918290206040805160e0810182526007909302909101805483526001810154938301939093526002830154908201526003820154606082018190526004830154608083015260058301546001600160a01b0390811660a084015260069093015490921660c0820152915061266f90829085613002565b826089858154811061267d57fe5b6000918252602090912060036007909202010155836111ed57505060775550565b6001600160a01b03918216600090815260676020908152604080832093909416825291909152205490565b607454607554607654607754607854607954607a546001600160a01b03918216911687565b6126f6612a04565b6001600160a01b0316612707612006565b6001600160a01b03161461272d5760405162461bcd60e51b8152600401610cb6906151d4565b6001600160a01b03166000908152606860205260409020805460ff19169055565b612756612a04565b6001600160a01b0316612767612006565b6001600160a01b03161461278d5760405162461bcd60e51b8152600401610cb6906151d4565b608954829081106127b05760405162461bcd60e51b8152600401610cb690615125565b6127b86148a4565b608984815481106127c557fe5b60009182526020918290206040805160e0810182526007909302909101805483526001810154938301849052600281015491830191909152600381015460608301526004810154608083015260058101546001600160a01b0390811660a08401526006909101541660c0820152915061284090829085613002565b826089858154811061284e57fe5b6000918252602090912060016007909202010155836111ed57505060755550565b612877612a04565b6001600160a01b0316612888612006565b6001600160a01b0316146128ae5760405162461bcd60e51b8152600401610cb6906151d4565b6001600160a01b0381166128d45760405162461bcd60e51b8152600401610cb690614ed0565b6033546040516001600160a01b038084169216907f8be0079c531659141344cd1fd0a4f28419497f9722a3daafe3b4186f6b6457e090600090a3603380546001600160a01b0319166001600160a01b0392909216919091179055565b612938612a04565b6001600160a01b0316612949612006565b6001600160a01b03161461296f5760405162461bcd60e51b8152600401610cb6906151d4565b6001600160a01b03166000908152606a60209081526040808320805460ff19166001179055606b909152812055565b4790565b6001600160a01b03166000908152606a602052604090205460ff1690565b6129c8612a04565b6001600160a01b03166129d9612006565b6001600160a01b0316146129ff5760405162461bcd60e51b8152600401610cb6906151d4565b609455565b3390565b82604051806060016040528060268152602001615623602691396001600160a01b0382166000908152606a6020526040902054819060ff1615612a5e5760405162461bcd60e51b8152600401610cb69190614daa565b50836040518060600160405280602881526020016155b0602891396001600160a01b0382166000908152606a6020526040902054819060ff1615612ab55760405162461bcd60e51b8152600401610cb69190614daa565b506001600160a01b038716612adc5760405162461bcd60e51b8152600401610cb690614e42565b6001600160a01b038616612b025760405162461bcd60e51b8152600401610cb690615428565b6001600160a01b038088166000818152606760209081526040808320948b168084529490915290819020889055517f8c5be1e5ebec7d5bd14f71427d1e84f3dd0314c0f7b2291e5b200ac8c7c3b92590612b5d9089906154c2565b60405180910390a350505050505050565b612b76612a04565b60408051808201825260208082527f536166656d6f6f6e3a204164647265737320697320626c61636b6c6973746564818301526001600160a01b0384166000908152606a9091529190912054819060ff1615612be55760405162461bcd60e51b8152600401610cb69190614daa565b508460405180606001604052806025815260200161558b602591396001600160a01b0382166000908152606a6020526040902054819060ff1615612c3c5760405162461bcd60e51b8152600401610cb69190614daa565b5085604051806060016040528060238152602001615600602391396001600160a01b0382166000908152606a6020526040902054819060ff1615612c935760405162461bcd60e51b8152600401610cb69190614daa565b50612c9c612a04565b803b63ffffffff811615612d61576001600160a01b0382166000908152606b602052604090205480612d5f576000839050806001600160a01b031663c45a01556040518163ffffffff1660e01b815260040160206040518083038186803b158015612d0657600080fd5b505afa925050508015612d36575060408051601f3d908101601f19168201909252612d3391810190614a24565b60015b612d3f57612d5d565b506001600160a01b0384166000908152606b60205260409020600190555b505b505b506001600160a01b038a16612d885760405162461bcd60e51b8152600401610cb690614dfd565b6001600160a01b038916612dae5760405162461bcd60e51b8152600401610cb690615310565b60008811612dce5760405162461bcd60e51b8152600401610cb690615240565b612dd6612006565b6001600160a01b03168a6001600160a01b031614158015612e105750612dfa612006565b6001600160a01b0316896001600160a01b031614155b15612e3757609054881115612e375760405162461bcd60e51b8152600401610cb690615060565b6000612e4230611a76565b90506090548110612e5257506090545b60935481108015908190612e705750608f54600160a01b900460ff16155b8015612e8a5750608b546001600160a01b038d8116911614155b8015612e9d5750609554610100900460ff165b15612eb0576093549150612eb082613b4c565b6001600160a01b038c1660009081526068602052604090205460019060ff1680612ef257506001600160a01b038c1660009081526068602052604090205460ff165b15612efb575060005b60008115612f6457506001600160a01b038d166000818152606b602052604090205490612f26612a04565b6001600160a01b031614612f6457606b6000612f40612a04565b6001600160a01b03166001600160a01b031681526020019081526020016000205490505b612f718e8e8e8486613b78565b5050505050505050505050505050565b60008184841115612fa55760405162461bcd60e51b8152600401610cb69190614daa565b505050900390565b6000806000612fba613ceb565b9092509050612fc98282612fd0565b9250505090565b6000808211612ff15760405162461bcd60e51b8152600401610cb690614ff2565b818381612ffa57fe5b049392505050565b600061304b8261303f85613045886080015161303f8a6060015161303f8c6040015161303f8e602001518f6000015161306f90919063ffffffff16565b9061306f565b9061326e565b90506070548111156111ed5760405162461bcd60e51b8152600401610cb6906153e2565b600082820183811015610fde5760405162461bcd60e51b8152600401610cb690614f16565b61309c6148a4565b6130a46148a4565b6130f16040518060e001604052808b81526020018a8152602001898152602001888152602001878152602001866001600160a01b03168152602001856001600160a01b0316815250613e4e565b90506130fc84611841565b61310583611841565b6089805460018101825560009190915281517f5bfa74c743914028161ae645d300d90bbdc659f169ca1469ec86b4960f7266cb60079092029182015560208201517f5bfa74c743914028161ae645d300d90bbdc659f169ca1469ec86b4960f7266cc82015560408201517f5bfa74c743914028161ae645d300d90bbdc659f169ca1469ec86b4960f7266cd82015560608201517f5bfa74c743914028161ae645d300d90bbdc659f169ca1469ec86b4960f7266ce82015560808201517f5bfa74c743914028161ae645d300d90bbdc659f169ca1469ec86b4960f7266cf82015560a08201517f5bfa74c743914028161ae645d300d90bbdc659f169ca1469ec86b4960f7266d0820180546001600160a01b03199081166001600160a01b039384161790915560c08401517f5bfa74c743914028161ae645d300d90bbdc659f169ca1469ec86b4960f7266d190930180549091169290911691909117905598975050505050505050565b6000828211156132905760405162461bcd60e51b8152600401610cb690614f84565b50900390565b60408051600280825260608083018452926020830190803683375050608a54604080516315ab88c960e31b815290519394506001600160a01b039091169263ad5c464892506004808301926020929190829003018186803b1580156132fa57600080fd5b505afa15801561330e573d6000803e3d6000fd5b505050506040513d601f19601f820116820180604052508101906133329190614a24565b8160008151811061333f57fe5b60200260200101906001600160a01b031690816001600160a01b031681525050308160018151811061336d57fe5b60200260200101906001600160a01b031690816001600160a01b0316815250506133aa613398612006565b608a546001600160a01b031684612a08565b608a546001600160a01b031663b6f9de95836000846133c7612006565b426040518663ffffffff1660e01b81526004016133e79493929190614d75565b6000604051808303818588803b15801561340057600080fd5b505af1158015613414573d6000803e3d6000fd5b50505050505050565b608a546134359030906001600160a01b031684612a08565b608a546001600160a01b031663f305d719823085600080613454612006565b426040518863ffffffff1660e01b815260040161347696959493929190614d2f565b6060604051808303818588803b15801561348f57600080fd5b505af11580156134a3573d6000803e3d6000fd5b50505050506040513d601f19601f820116820180604052508101906134c89190614bec565b5050505050565b6001600160a01b0382166134f55760405162461bcd60e51b8152600401610cb69061519d565b608e546113f7906001600160a01b03168383600080613b78565b6135176148f3565b61351f61493f565b6135298484613eb6565b905060006135588260a0015161303f846080015161303f8660200151876040015161306f90919063ffffffff16565b9050600080600061357688866060015186613571612fad565b613ffc565b92509250925060405180610120016040528084815260200183815260200182815260200186600001518152602001866020015181526020018660400151815260200186606001518152602001866080015181526020018660a001518152509550505050505092915050565b60006135ec3061404c565b15905090565b600054610100900460ff168061360b575061360b6135e1565b80613619575060005460ff16155b6136355760405162461bcd60e51b8152600401610cb6906150a8565b600054610100900460ff16158015613660576000805460ff1961ff0019909116610100171660011790555b8015611a63576000805461ff001916905550565b600054610100900460ff168061368d575061368d6135e1565b8061369b575060005460ff16155b6136b75760405162461bcd60e51b8152600401610cb6906150a8565b600054610100900460ff161580156136e2576000805460ff1961ff0019909116610100171660011790555b60006136ec612a04565b603380546001600160a01b0319166001600160a01b038316908117909155604051919250906000907f8be0079c531659141344cd1fd0a4f28419497f9722a3daafe3b4186f6b6457e0908290a3508015611a63576000805461ff001916905550565b600054610100900460ff168061376757506137676135e1565b80613775575060005460ff16155b6137915760405162461bcd60e51b8152600401610cb6906150a8565b600054610100900460ff161580156137bc576000805460ff1961ff0019909116610100171660011790555b6040805180820190915260088082526729b0b332a6b7b7b760c11b60209092019182526137eb91607191614975565b506040805180820190915260038082526253464d60e81b602090920191825261381691607291614975565b506073805460ff19166009179055683635c9adc5dea00000606d8190556000190619606e556103e8607055674563918244f400006090556706f05b59d3b20000609155608f80546001600160a01b03191661dead179055613875612a04565b608e80546001600160a01b03199081166001600160a01b039384161791829055606e5491831660009081526065602090815260409182902093909355608a8054909216868516179182905580516315ab88c960e31b81529051919093169263ad5c4648926004808301939192829003018186803b1580156138f557600080fd5b505afa158015613909573d6000803e3d6000fd5b505050506040513d601f19601f8201168201806040525081019061392d9190614a24565b608c80546001600160a01b0319166001600160a01b03928316179055608a546040805163c45a015560e01b81529051919092169163c45a0155916004808301926020929190829003018186803b15801561398657600080fd5b505afa15801561399a573d6000803e3d6000fd5b505050506040513d601f19601f820116820180604052508101906139be9190614a24565b608c546040516364e329cb60e11b81526001600160a01b039283169263c9c65396926139f292309290911690600401614cd8565b602060405180830381600087803b158015613a0c57600080fd5b505af1158015613a20573d6000803e3d6000fd5b505050506040513d601f19601f82011682018060405250810190613a449190614a24565b608b80546001600160a01b0319166001600160a01b0392909216919091179055600160686000613a72612006565b6001600160a01b0316815260208082019290925260409081016000908120805494151560ff199586161790553081526068909252902080549091166001179055613aba614052565b613ac2612a04565b6001600160a01b031660006001600160a01b0316600080516020615649833981519152606d54604051613af591906154c2565b60405180910390a380156113f7576000805461ff00191690555050565b600082613b2157506000610c71565b82820282848281613b2e57fe5b0414610fde5760405162461bcd60e51b8152600401610cb69061515c565b608f805460ff60a01b1916600160a01b179055613b688161417f565b50608f805460ff60a01b19169055565b80613b8557613b856142db565b6001600160a01b03851660009081526069602052604090205460ff168015613bc657506001600160a01b03841660009081526069602052604090205460ff16155b15613bdc57613bd7858585856143dd565b613cde565b6001600160a01b03851660009081526069602052604090205460ff16158015613c1d57506001600160a01b03841660009081526069602052604090205460ff165b15613c2e57613bd7858585856144f8565b6001600160a01b03851660009081526069602052604090205460ff16158015613c7057506001600160a01b03841660009081526069602052604090205460ff16155b15613c8157613bd7858585856145a3565b6001600160a01b03851660009081526069602052604090205460ff168015613cc157506001600160a01b03841660009081526069602052604090205460ff165b15613cd257613bd7858585856145dd565b613cde858585856145a3565b806134c8576134c8614648565b606e54606d546000918291825b606c54811015613e1c578260656000606c8481548110613d1457fe5b60009182526020808320909101546001600160a01b031683528201929092526040019020541180613d7957508160666000606c8481548110613d5257fe5b60009182526020808320909101546001600160a01b03168352820192909252604001902054115b15613d9057606e54606d5494509450505050613e4a565b613dd060656000606c8481548110613da457fe5b60009182526020808320909101546001600160a01b03168352820192909252604001902054849061326e565b9250613e1260666000606c8481548110613de657fe5b60009182526020808320909101546001600160a01b03168352820192909252604001902054839061326e565b9150600101613cf8565b50606d54606e54613e2c91612fd0565b821015613e4457606e54606d54935093505050613e4a565b90925090505b9091565b613e566148a4565b6000613e8b836080015161303f856060015161303f876040015161303f89602001518a6000015161306f90919063ffffffff16565b9050607054811115613eaf5760405162461bcd60e51b8152600401610cb6906153e2565b5090919050565b613ebe61493f565b613ec66148a4565b60898381548110613ed357fe5b60009182526020918290206040805160e081018252600790930290910180548352600181015493830193909352600283015490820152600382015460608201526004820154608082015260058201546001600160a01b0390811660a083015260069092015490911660c08201529050613f4a61493f565b6040518060c0016040528060008152602001613f6a878560000151614658565b8152602001613f7d878560200151614658565b8152602001613f90878560400151614658565b8152602001613fa3878560600151614658565b8152602001613fb6878560800151614658565b8152509050613ff28160a0015161304583608001516130458560400151613045876060015161304589602001518e61326e90919063ffffffff16565b8152949350505050565b600080808061400b8886613b12565b905060006140198887613b12565b905060006140278888613b12565b9050600061403982613045868661326e565b939b939a50919850919650505050505050565b3b151590565b600054610100900460ff168061406b575061406b6135e1565b80614079575060005460ff16155b6140955760405162461bcd60e51b8152600401610cb6906150a8565b600054610100900460ff161580156140c0576000805460ff1961ff0019909116610100171660011790555b6140d460006101f480600080600080613094565b8051607455602081015160755560408101516076556060810151607755608081015160785560a0810151607980546001600160a01b03199081166001600160a01b039384161790915560c090920151607a8054909316911617905561414160328060646000808080613094565b506141556032806064806000806000613094565b5061416a6064607d8060966000806000613094565b508015611a63576000805461ff001916905550565b604080516002808252606080830184529260208301908036833701905050905030816000815181106141ad57fe5b6001600160a01b03928316602091820292909201810191909152608a54604080516315ab88c960e31b81529051919093169263ad5c4648926004808301939192829003018186803b15801561420157600080fd5b505afa158015614215573d6000803e3d6000fd5b505050506040513d601f19601f820116820180604052508101906142399190614a24565b8160018151811061424657fe5b6001600160a01b039283166020918202929092010152608a5461426c9130911684612a08565b608a5460405163791ac94760e01b81526001600160a01b039091169063791ac947906142a59085906000908690309042906004016154cb565b600060405180830381600087803b1580156142bf57600080fd5b505af11580156142d3573d6000803e3d6000fd5b505050505050565b60896000815481106142e957fe5b6000918252602082206007909102018054607b556001810154607c556002810154607d556003810154607e556004810154607f556005810154608080546001600160a01b03199081166001600160a01b0393841617909155600690920154608180549093169116179055608980546082929061436157fe5b6000918252602090912082546007909202019081556001808301549082015560028083015490820155600380830154908201556004808301549082015560058083015490820180546001600160a01b03199081166001600160a01b03938416179091556006938401549390920180549092169216919091179055565b6143e56148f3565b6143ef838361350f565b6001600160a01b038616600090815260666020526040902054909150614415908461326e565b6001600160a01b03861660009081526066602090815260408083209390935583516065909152919020546144489161326e565b6001600160a01b038087166000908152606560209081526040808320949094558401519187168152919091205461447e9161306f565b6001600160a01b0385166000908152606560205260409020556144a2858284614677565b6144b481604001518260c00151614705565b836001600160a01b0316856001600160a01b031660008051602061564983398151915283606001516040516144e991906154c2565b60405180910390a35050505050565b6145006148f3565b61450a838361350f565b80516001600160a01b038716600090815260656020526040902054919250614532919061326e565b6001600160a01b038087166000908152606560209081526040808320949094556060850151928816825260669052919091205461456e9161306f565b6001600160a01b0385166000908152606660209081526040808320939093558381015160659091529190205461447e9161306f565b6145ab6148f3565b6145b5838361350f565b80516001600160a01b038716600090815260656020526040902054919250614448919061326e565b6145e56148f3565b6145ef838361350f565b6001600160a01b038616600090815260666020526040902054909150614615908461326e565b6001600160a01b03861660009081526066602090815260408083209390935583516065909152919020546145329161326e565b607b608960008154811061436157fe5b60008161466757506000610c71565b610fde61271061256f8585613b12565b614686838360a0015130614729565b6146be8383608001516089848154811061469c57fe5b60009182526020909120600560079092020101546001600160a01b0316614729565b6146f6838360e00151608984815481106146d457fe5b60009182526020909120600660079092020101546001600160a01b0316614729565b611c608383610100015161481f565b606e54614712908361326e565b606e55606f54614722908261306f565b606f555050565b6001600160a01b03811661473c57611c60565b8161474657611c60565b6000614750612fad565b9050600061475e8483613b12565b6001600160a01b038416600090815260656020526040902054909150614784908261306f565b6001600160a01b03841660009081526065602090815260408083209390935560699052205460ff16156147ee576001600160a01b0383166000908152606660205260409020546147d4908561306f565b6001600160a01b0384166000908152606660205260409020555b826001600160a01b0316856001600160a01b0316600080516020615649833981519152866040516144e991906154c2565b80614829576113f7565b608f546001600160a01b031660009081526066602052604090205461484e908261306f565b608f80546001600160a01b039081166000908152606660205260409081902093909355905491519181169190841690600080516020615649833981519152906148989085906154c2565b60405180910390a35050565b6040518060e00160405280600081526020016000815260200160008152602001600081526020016000815260200160006001600160a01b0316815260200160006001600160a01b031681525090565b6040518061012001604052806000815260200160008152602001600081526020016000815260200160008152602001600081526020016000815260200160008152602001600081525090565b6040518060c001604052806000815260200160008152602001600081526020016000815260200160008152602001600081525090565b828054600181600116156101000203166002900490600052602060002090601f016020900481019282601f106149b657805160ff19168380011785556149e3565b828001600101855582156149e3579182015b828111156149e35782518255916020019190600101906149c8565b506149ef9291506149f3565b5090565b5b808211156149ef57600081556001016149f4565b600060208284031215614a19578081fd5b8135610fde81615567565b600060208284031215614a35578081fd5b8151610fde81615567565b60008060408385031215614a52578081fd5b8235614a5d81615567565b91506020830135614a6d81615567565b809150509250929050565b600080600060608486031215614a8c578081fd5b8335614a9781615567565b92506020840135614aa781615567565b929592945050506040919091013590565b60008060408385031215614aca578182fd5b8235614ad581615567565b946020939093013593505050565b600060208284031215614af4578081fd5b8135610fde8161557c565b600060208284031215614b10578081fd5b8151610fde8161557c565b600060208284031215614b2c578081fd5b5035919050565b600060208284031215614b44578081fd5b5051919050565b60008060408385031215614b5d578182fd5b823591506020830135614a6d81615567565b60008060408385031215614b81578182fd5b823591506020830135614a6d8161557c565b60008060408385031215614ba5578182fd5b50508035926020909101359150565b600080600060608486031215614bc8578283fd5b83359250602084013591506040840135614be18161557c565b809150509250925092565b600080600060608486031215614c00578283fd5b8351925060208401519150604084015190509250925092565b600080600080600080600060e0888a031215614c33578283fd5b873596506020880135955060408801359450606088013593506080880135925060a0880135614c6181615567565b915060c0880135614c7181615567565b8091505092959891949750929550565b6000815180845260208085019450808401835b83811015614cb95781516001600160a01b031687529582019590820190600101614c94565b509495945050505050565b6001600160a01b0391909116815260200190565b6001600160a01b0392831681529116602082015260400190565b6001600160a01b039384168152919092166020820152604081019190915260600190565b6001600160a01b03929092168252602082015260400190565b6001600160a01b039687168152602081019590955260408501939093526060840191909152909216608082015260a081019190915260c00190565b901515815260200190565b600085825260806020830152614d8e6080830186614c81565b6001600160a01b03949094166040830152506060015292915050565b6000602080835283518082850152825b81811015614dd657858101830151858201604001528201614dba565b81811115614de75783604083870101525b50601f01601f1916929092016040019392505050565b60208082526025908201527f42455032303a207472616e736665722066726f6d20746865207a65726f206164604082015264647265737360d81b606082015260800190565b60208082526024908201527f42455032303a20617070726f76652066726f6d20746865207a65726f206164646040820152637265737360e01b606082015260800190565b6020808252602a908201527f416d6f756e74206d757374206265206c657373207468616e20746f74616c207260408201526965666c656374696f6e7360b01b606082015260800190565b60208082526026908201527f4f776e61626c653a206e6577206f776e657220697320746865207a65726f206160408201526564647265737360d01b606082015260800190565b6020808252601b908201527f536166654d6174683a206164646974696f6e206f766572666c6f770000000000604082015260600190565b6020808252601b908201527f4163636f756e7420697320616c7265616479206578636c756465640000000000604082015260600190565b6020808252601e908201527f536166654d6174683a207375627472616374696f6e206f766572666c6f770000604082015260600190565b6020808252601b908201527f4163636f756e7420697320616c726561647920696e636c756465640000000000604082015260600190565b6020808252601a908201527f536166654d6174683a206469766973696f6e206279207a65726f000000000000604082015260600190565b6020808252601f908201527f416d6f756e74206d757374206265206c657373207468616e20737570706c7900604082015260600190565b60208082526028908201527f5472616e7366657220616d6f756e74206578636565647320746865206d6178546040820152673c20b6b7bab73a1760c11b606082015260800190565b6020808252602e908201527f496e697469616c697a61626c653a20636f6e747261637420697320616c72656160408201526d191e481a5b9a5d1a585b1a5e995960921b606082015260800190565b60208082526015908201527414d859995b5bdbdb8e88139bdd08105b1b1bddd959605a1b604082015260600190565b6020808252601c908201527f536166656d6f6f6e3a20496e76616c6964207469657220696e64657800000000604082015260600190565b60208082526021908201527f536166654d6174683a206d756c7469706c69636174696f6e206f766572666c6f6040820152607760f81b606082015260800190565b6020808252601f908201527f42455032303a206d696e7420746f20746865207a65726f206164647265737300604082015260600190565b6020808252818101527f4f776e61626c653a2063616c6c6572206973206e6f7420746865206f776e6572604082015260600190565b60208082526019908201527f536166656d6f6f6e3a20496e76616c6964206164647265737300000000000000604082015260600190565b60208082526029908201527f5472616e7366657220616d6f756e74206d7573742062652067726561746572206040820152687468616e207a65726f60b81b606082015260800190565b60208082526022908201527f536166656d6f6f6e3a204d6967726174696f6e206973206e6f74207374617274604082015261195960f21b606082015260800190565b60208082526025908201527f536166656d6f6f6e3a2041646472657373205a65726f206973206e6f7420616c6040820152641b1bddd95960da1b606082015260800190565b60208082526023908201527f42455032303a207472616e7366657220746f20746865207a65726f206164647260408201526265737360e81b606082015260800190565b6020808252602a908201527f424e422062616c616e6365206973206e6f7420726561636820666f722053264560408201526908151a1c995cda1bdb1960b21b606082015260800190565b60208082526025908201527f536166656d6f6f6e3a204163636f756e74206973206e6f7420696e2077686974604082015264195b1a5cdd60da1b606082015260800190565b60208082526026908201527f536166656d6f6f6e3a2046656573206578636565646564206d6178206c696d696040820152653a30ba34b7b760d11b606082015260800190565b60208082526022908201527f42455032303a20617070726f766520746f20746865207a65726f206164647265604082015261737360f01b606082015260800190565b815181526020808301519082015260408083015190820152606080830151908201526080808301519082015260a0808301516001600160a01b039081169183019190915260c092830151169181019190915260e00190565b90815260200190565b600086825285602083015260a060408301526154ea60a0830186614c81565b6001600160a01b0394909416606083015250608001529392505050565b9283526020830191909152604082015260600190565b96875260208701959095526040860193909352606085019190915260808401526001600160a01b0390811660a08401521660c082015260e00190565b60ff91909116815260200190565b6001600160a01b0381168114611a6357600080fd5b8015158114611a6357600080fdfe536166656d6f6f6e3a2046726f6d206164647265737320697320626c61636b6c6973746564536166656d6f6f6e3a205370656e646572206164647265737320697320626c61636b6c697374656442455032303a207472616e7366657220616d6f756e74206578636565647320616c6c6f77616e6365536166656d6f6f6e3a20546f206164647265737320697320626c61636b6c6973746564536166656d6f6f6e3a204f776e6572206164647265737320697320626c61636b6c6973746564ddf252ad1be2c89b69c2b068fc378daa952ba7f163c4a11628f55a4df523b3ef42455032303a2064656372656173656420616c6c6f77616e63652062656c6f77207a65726f536166656d6f6f6e3a204d69677261746564206163636f756e7420697320626c61636b6c6973746564536166656d6f6f6e3a2053656c6563746564206163636f756e7420697320696e20626c61636b6c697374a2646970667358221220f223a9acf06dd2a390de36782931e12636f3275307bee175fc6d9543012ed98664736f6c634300060c0033",
  "linkReferences": {},
  "deployedLinkReferences": {}
}